:020000040801F1
:1000000098B100205D020108DDB2010851AA010883
:10001000D5B20108C142010851D601080000000014
:100020000000000000000000000000009D01010829
:10003000454A010800000000F90101084DC6010809
:1000400077020108770201087702010877020108A8
:100050007702010877020108770201087702010898
:100060007702010877020108770201085948010860
:1000700069480108794801087702010877020108F8
:100080008948010877020108770201087702010810
:10009000770201087702010877020108A54B0108E1
:1000A000770201087DC7010877020108770201087D
:1000B0008DC701087702010877020108770201085D
:1000C0007702010877020108770201087702010828
:1000D0007702010865D1010879D101088DD10108A5
:1000E0007702010877020108770201087702010808
:1000F00077020108770201087702010877020108F8
:1001000077020108770201087702010877020108E7
:1001100089CA01089DCA010877020108770201080F
:100120007702010899480108A948010877020108E7
:1001300077020108770201087702010877020108B7
:1001400077020108770201087702010877020108A7
:10015000770201087702010877020108A1D101089E
:100160007702010877020108770201087702010887
:1001700077020108770201087702010800000000F9
:100180007702010877020108DFF80CD000F084FC48
:1001900000480047191D020898B100202C4B19682F
:1001A0000868B0E8F04F80F30988BFF36F8F4FF015
:1001B000000080F3118870470000000008480068C4
:1001C000006880F308884FF0000080F3148862B65E
:1001D00061B6BFF34F8FBFF36F8F00DF00BF00BF6B
:1001E00008ED00E0DFF80C00016841F470010160E7
:1001F000704700BF88ED00E0EFF30980BFF36F8F19
:10020000134B1A681EF0100F08BF20ED108A20E96A
:10021000F04F106009B44FF0500080F31188BFF325
:100220004F8FBFF36F8F13F05FFB4FF0000080F331
:10023000118809BC19680868B0E8F04F1EF0100F6B
:1002400008BFB0EC108A80F30988BFF36F8F704746
:1002500030060020EFF30580704700000648804715
:1002600006480047FEE7FEE7FEE7FEE7FEE7FEE79B
:10027000FEE7FEE7FEE7FEE739C70108890101084E
:100280002DE9F05F0546002092469B4688460646CB
:10029000814640241BE0284641464746224600F05E
:1002A0002CFB53465A46C01A914110D311461846AA
:1002B000224600F013FB2D1A67EB01084F46224639
:1002C0000120002100F00AFB17EB00094E41201E1F
:1002D000A4F10104DFDC484631462A464346BDE826
:1002E000F09F00000649074A0868504343F239026C
:1002F00010440860400870470149086070470000DA
:10030000940600206D4EC64140EA01039B0703D0CE
:1003100009E008C9121F08C0042AFAD203E011F844
:10032000013B00F8013B521EF9D27047D2B201E006
:1003300000F8012B491EFBD270470022F6E710B5EA
:1003400013460A4604461946FFF7F0FF204610BD43
:1003500030B505462A460B4612F8010B13F8014B3F
:1003600008B1A042F8D01CB1002802D06D1CF1E702
:10037000284630BD10B5044604E00B7800F8013B78
:1003800003B1491C521EF8D2204610BD421C10F881
:10039000011B0029FBD1801A704710B5002200E034
:1003A000521C835C8C5CA34201D1002BF8D1D8B2E3
:1003B000E1B2401A10BD034611F8012B00F8012BE1
:1003C000002AF9D11846704730B50546002003468B
:1003D00000E05B1C934205D2EC5CC85C201A01D1A2
:1003E000002CF6D130BD0EB540F233410291002110
:1003F000CDE900110A460B4600F0E7FA03B000BD54
:10040000532D3233305F4150505F56332E302E31F2
:100410002E35000000000000000000000000000079
:1004200000000000000000000000000000000000CC
:1004300000000000000000000000000000000000BC
:1004400044656320323420323032342D31373A342F
:10045000353A3136000000000000000000000000C6
:10046000000000000000000000000000000000008C
:10047000000000000000000000000000000000007C
:100480002DE9FE4F804681EA0300C00F0C46009024
:1004900021F0004123F00045B8EB0200A94105D24C
:1004A0004046214690461C460B46024623F000403B
:1004B000104347D0270DC7F30A00C3F30A51029037
:1004C000401A019040286BDAC3F3130040F4801BFC
:1004D0000098924620B10023D2EB030A63EB0B0B8A
:1004E00001985946C0F14002504600F0F7F906461F
:1004F0000D4650465946019A00F00FFA10EB0800DD
:100500006141002487EA115284EAE7731A4340D01C
:10051000009A62B3019A012A4FEA075215DC001BC8
:1005200061EB02014FF0004202EA0752CDE90042BE
:10053000001C41F5801132462B4600F046FA03B00C
:10054000BDE8F08F40462146F9E7001B61EB020150
:10055000001C41F5801300185B412018A2F500171C
:1005600047EB030140EAD570B6196D4111E06D0803
:100570004FEA360645EAC0754FEA0752001B61EBA9
:100580000201001C41F5801149084FEA30000019B2
:10059000514132462B4603B0BDE8F04F00F006BA99
:1005A0000098012240000023D0EB020263EBE073CD
:1005B000009821464FEAE074B8EB000061EB0401BB
:1005C000E9E783F000435BE781F0004158E72DE95C
:1005D000FE4F81EA030404F0004421F0004100943E
:1005E0004FF0000B23F0004350EA01045ED052EAC2
:1005F00003045BD0C3F30A54C1F30A552C44A4F29C
:10060000F3340194A0FB0254C1F3130141F48011AF
:10061000C3F3130343F4801301FB024400FB034EB6
:10062000840A970A44EA815447EA8357A4FB07687F
:1006300002958D0A05FB07854FEA932C04FB0C54A9
:100640002705029D4FEA065847EA1637B5EB08051D
:100650006EEB070C870E920E47EA811742EA83126F
:10066000A7FB0201B6EB0B0164EB00042B0D43EA80
:100670000C335E1844EB1C50DA465146E7FB02018E
:10068000C5F313044FEA0B3343EA14534FEA043221
:10069000019C43EA0603A4F10C040294009CCDE9FA
:1006A00000B400F092F903B0BDE8F08F00200146DD
:1006B000F9E72DE9F04D81EA030404F0004B21F045
:1006C000004514464FF0000A23F0004150EA0502AD
:1006D00020D054EA01021DD0C5F30A570246C5F3E3
:1006E0001303C1F31300C1F30A5640F4801543F419
:1006F0008013A7EB0608101BD64608F2FD3873EBF3
:10070000050002D308F1010801E092185B41B8F13D
:10071000000F03DA00200146BDE8F08D00204FF401
:100720008011064684460EE0171B73EB050705D3C0
:10073000121B63EB050306434CEA010C49084FEA20
:10074000300092185B4150EA0107EDD152EA0300F4
:1007500012D082EA040083EA0501084305D0101B89
:10076000AB4106D20122002306E000224FF00043F5
:1007700002E06FF0010253101AEB06004CEB085137
:1007800010EB0A0041EB0B01BDE8F04D00F00EB993
:100790000EB5C10F80EAE0700844CA07002140F29C
:1007A00033438DE80E000A460B4600F00EF903B005
:1007B00000BD70B5C1F30A5201F000450024C1F339
:1007C000130140F2FF3341F480119A4201DA002014
:1007D00070BD40F233439A42A2F2334203DC5242EC
:1007E00000F08BF800E090402C43F1D0404270BD07
:1007F00000F0004230F000400AD0C10D01F56071F8
:10080000C0F3160042EA0151C20840071143704785
:10081000002001467047000030B5041E71F100044D
:1008200004DB4FF00044404264EB0101141E73F1FD
:10083000000405DB1C464FF00043524263EB040307
:100840008B4208BF824230BD30B5041E71F10004F6
:1008500004DB4FF00044404264EB0101141E73F1CD
:10086000000405DB1C464FF00043524263EB0403D7
:10087000994208BF904230BD01F0004330B421F0EE
:10088000004150EA010206D00A0DA2F56072C1F3E0
:100890001301002A02DC30BC00207047440F44EAF8
:1008A000C104C100E01830BC00EBC25000F047B8F2
:1008B00030B50B46014600202022012409E021FA30
:1008C00002F59D4205D303FA02F5491B04FA02F52D
:1008D0002844151EA2F10102F1DC30BD202A04DB00
:1008E000203A00FA02F1002070479140C2F1200343
:1008F00020FA03F3194390407047202A04DB203A82
:1009000021FA02F00021704721FA02F3D040C2F12F
:1009100020029140084319467047202A06DBCB1776
:10092000203A41FA02F043EAE07306E041FA02F3AA
:10093000D040C2F120029140084319467047002977
:10094000A8BF7047401C490008BF20F00100704755
:1009500010B4B0FA80FC00FA0CF050EA010404BFB5
:1009600010BC704749B1CCF1200421FA04F411FA0B
:100970000CF118BF012121430843A3EB0C01CB1D4F
:100980004FEA00614FEA102042BF002010BC7047C0
:1009900000EBC35010440029A4BF10BC7047401C9A
:1009A000490008BF20F0010010BC704710B5141EAC
:1009B00073F1000408DA401C41F1000192185B4118
:1009C0001A4301D120F0010010BD2DE9F04D9246EF
:1009D0009B4611B1B1FA81F202E0B0FA80F2203206
:1009E0009046FFF77BFF04460F4640EA0A0041EAC3
:1009F0000B0153465A46084313D0114653EA0100EF
:100A000019D0C8F140025046FFF777FF05460E4661
:100A1000504659464246FFF761FF084305D0012082
:100A200004E020463946BDE8F08D0020054346EA43
:100A3000E0762C4337430A986305E40AA0EB0800EC
:100A40000022FD0A44EA47540A3002D5002001463C
:100A5000E9E7010510196941DDE908450019694117
:100A6000BDE8F04DA2E7C1F30A52C1F3130140F211
:100A7000FF3341F480119A4202DA002001467047A8
:100A800040F233439A42A2F2334202DC5242FFF771
:100A900034BFFFF723BF0000064C074D06E0E068B7
:100AA00040F0010394E8070098471034AC42F6D3B5
:100AB000FFF76EFB705E0208B05E020870B58C181E
:100AC00010F8015B15F0070301D110F8013B2A1162
:100AD00006D110F8012B03E010F8016B01F8016B4F
:100AE0005B1EF9D12B0705D40023521E0DD401F84B
:100AF000013BFAE710F8013BCB1A921C03E013F814
:100B0000015B01F8015B521EF9D5A142D8D3002048
:100B100070BD000070B50025174C002020602071CA
:100B200060710021A1710120E071207203216172C6
:100B30000021A172E1724104E160811E2161214620
:100B4000002000F052FE05460DB1284670BD14226B
:100B500009490A48FFF7D8FB084CFF20E071002044
:100B600020722146012000F040FE05460DB12846C6
:100B7000ECE70020EAE700002C0A0020400A0020F1
:100B800010B5002400200549087100F02EFE04462F
:100B90000CB1204610BD0020FCE700002C0A00200C
:100BA00070B500250E4C002020602071607100217E
:100BB000A1710120E0712072032161720021A172F4
:100BC000E1724104E160811E21612146002000F0B4
:100BD0000CFE05460DB1284670BD0020FCE7000064
:100BE0002C0A002001460020087048807047000051
:100BF00070B5002600241BE0002515E00E4901EB2E
:100C0000441101EB8500FFF7EDFF0B4800EB4410AA
:100C100000EB85022946204600F010F806460EB18A
:100C2000304670BD681CC5B2082DE7DB601CC4B23D
:100C3000012CE1DB0020F4E7F0060020F0B589B0DC
:100C400004460D461646202101A8FFF776FB012C2D
:100C500001DC082D03DD4FF0FF3009B0F0BD4FF48B
:100C60009C7101EB0411481901A903F001FF07462B
:100C70000FB13846F1E701A812F0B7F930700DF165
:100C8000050012F090F970800020E6E770B50026AC
:100C900000241BE0002515E00E4901EB441101EB97
:100CA0008500FFF79FFF0B4800EB441000EB850227
:100CB0002946204600F010F806460EB1304670BDB9
:100CC000681CC5B2082DE7DB601CC4B2012CE1DB57
:100CD0000020F4E7F006002070B588B004460D4609
:100CE000164620216846FFF728FB012C01DC082D61
:100CF00003DD4FF0FF3008B070BD3146684603F0A9
:100D00003DFD4FF49C7101EB04114819694603F055
:100D100011FFF0E72DE9F04389B004460E46154671
:100D20001F46DDF84090202101A8FFF706FB012CAB
:100D300001DC082E04DD4FF0FF3009B0BDE8F08380
:100D4000294601A803F01AFD01A9384613F019F845
:100D50000DF10501484612F0ECFF4FF49C7101EBD8
:100D60000411881901A903F0E5FE8046B8F1000FCF
:100D700001D04046E1E72F70A5F802900020DCE7A3
:100D80000146002008704870704701460020087036
:100D90007047000010B500240548FFF7F6FF04482F
:100DA00000F008F804460CB1204610BD0020FCE716
:100DB0000700002030B589B00446202101A8FFF7C4
:100DC000BCFA01A90A2003F053FE054615B12846D6
:100DD00009B030BD01A812F008F920700020F7E733
:100DE00010B500240548FFF7D0FF044800F008F8CC
:100DF00004460CB1204610BD0020FCE7070000208F
:100E000010B588B0044620216846FFF796FA2146BF
:100E1000684603F018FE69460A2003F08BFE08B00E
:100E200010BD00B5024601201070501C01F06EFB91
:100E3000002000BD10B500240548FFF7F2FF04486C
:100E400000F008F804460CB1204610BD0020FCE775
:100E50000000002030B589B00446202101A8FFF72A
:100E60006CFA01A9092003F003FE054615B12846D6
:100E700009B030BD01A812F0B8F82070611C0DF166
:100E800005000BF032FD0020F2E7000010B5002451
:100E90000548FFF7C6FF044800F008F804460CB107
:100EA000204610BD0020FCE70000002010B588B0EF
:100EB000044620216846FFF740FA2146684603F0C1
:100EC000CAFD6946092003F035FE08B010BD0000D8
:100ED0000148006870470000A0060020014600207D
:100EE00008700120487088700020C870087148712F
:100EF0008871C8717047000010B500240948FFF7D9
:100F0000EDFF084800F010F80648007838B90548A9
:100F1000407820B90348807808B900F03FF80020F5
:100F200010BD00001400002030B589B00446202117
:100F300001A8FFF702FA01A94FF4D76003F098FD6A
:100F4000054615B1284609B030BD01A812F04DF88C
:100F500020700DF1050012F048F860700DF10600E8
:100F600012F043F8A0700DF1070012F03EF8E070A7
:100F700002A812F03AF820710DF1090012F035F8CC
:100F800060710DF10A0012F030F8A0710DF10B0044
:100F900012F02BF8E0710020D5E7000010B5002416
:100FA0000348FFF79BFF024800F004F8002010BD43
:100FB0001400002030B589B00446202101A8FFF7B5
:100FC000BCF9207801A912F0DCFE60780DF1050172
:100FD00012F0D7FEA0780DF1060112F0D2FEE078F3
:100FE0000DF1070112F0CDFE207902A912F0C9FE21
:100FF00060790DF1090112F0C4FEA0790DF10A012A
:1010000012F0BFFEE0790DF10B0112F0BAFE01A95A
:101010004FF4D76003F08EFD0546284609B030BD79
:1010200070B500250F4C00202060207160710021F8
:10103000A171FF20E0710020207203216172002164
:10104000A172E1724FF40031E160411E216121463D
:10105000012000F0CAFB05460DB1284670BD0020F6
:10106000FCE70000400A002010B5002403F03AFD20
:10107000044622465FA1052002F0B4FD01F0CCF940
:101080000446224662A1052002F0ACFD0CB12046C8
:1010900010BDFFF7CFFE0446224663A1052002F0F3
:1010A000A1FD0CB12046F3E7FFF774FE044622468B
:1010B00064A1052002F096FD0CB12046E8E700F09F
:1010C0005BFE0446224667A1052002F08BFD0CB1B1
:1010D0002046DDE700F0D4FE0446224668A1052044
:1010E00002F080FD0CB12046D2E701F0CFF80446B3
:1010F00022466AA1052002F075FD0CB12046C7E723
:10110000FFF776FD044622466AA1052002F06AFD3B
:101110000CB12046BCE700F0A1FB044622466CA1BE
:10112000052002F05FFD0CB12046B1E703F08CF81A
:1011300000F06CFC044622466DA1052002F052FD31
:101140000CB12046A4E703F07FF800F07BFF0446D3
:1011500022466CA1052002F045FD0CB1204697E720
:1011600001F0FEF9044622466BA1052002F03AFD8B
:101170000CB120468CE701F0A9FA044622466DA185
:10118000052002F02FFD0CB1204681E700F03CFD68
:10119000044622466CA1052002F024FD0CB1204635
:1011A00076E700F095FF044622466EA1052002F086
:1011B00019FD0CB120466BE7FFF79EFE0446224660
:1011C00071A1052002F00EFD0CB1204660E700F091
:1011D000CFFE04460CB100F003FF00F0B1FA044664
:1011E000224671A1052002F0FDFC0CB120464FE71C
:1011F00000204DE7656570726F6D5F6964207265F0
:101200006164207263203D2025640D0A0000000007
:1012100073797374656D206C6F61642072633A201A
:1012200025640D0A000000006465766963655F65EA
:101230006E61626C65206C6F61642072633A202578
:10124000640D0A006465766963655F636F6E6E6541
:101250006374206C6F61642072633A2025640D0A08
:101260000000000070726F62655F656E61626C65A0
:10127000206C6F61642072633A2025640D0A0000BF
:1012800070756D705F737461747573206C6F6164D9
:101290002072633A2025640D0A00000073656E73A6
:1012A0006F72206C6F61642072633A2025640D0AAE
:1012B00000000000636F6D70656E736174696F6E1E
:1012C000206C6F61642072633A2025640D0A00006F
:1012D000696E64696361746F725F616C65727420BA
:1012E0006C6F61642072633A2025640D0A0000006F
:1012F0006C696D6974206C6F61642072633A20259B
:10130000640D0A0072656C6179206C6F61642072F3
:10131000633A2025640D0A0074696D65735F656E1C
:1013200061626C65206C6F61642072633A20256491
:101330000D0A000074696D6573206C6F6164207222
:10134000633A2025640D0A006D616E75616C5F72F1
:10135000656C6179206C6F61642072633A2025644A
:101360000D0A000072656C617920706F77657220DC
:10137000636F6E666967206C6F61642072633A20E8
:1013800025640D0A00000000646961676E6F73696F
:1013900073206D657373616765206C6F6164207283
:1013A000633A2025640D0A006669726D7761726583
:1013B00020696E666F206C6F61642072633A20252D
:1013C000640D0A0010B50024FFF760FD04462246B4
:1013D00058A1052002F006FC0CB1204610BDFFF715
:1013E000FFFC044622465BA1052002F0FBFB0CB18A
:1013F0002046F3E700F006FD044622465EA10520E4
:1014000002F0F0FB0CB12046E8E700F073FD044663
:10141000224661A1052002F0E5FB0CB12046DDE784
:1014200000F09CFF0446224663A1052002F0DAFB8F
:101430000CB12046D2E7FFF729FC0446224665A1FD
:10144000052002F0CFFB0CB12046C7E700F062FA9E
:101450000446224667A1052002F0C4FB0CB12046D9
:10146000BCE702F0F1FE00F05BFB044622466AA1F5
:10147000052002F0B7FB0CB12046AFE702F0E4FE16
:1014800000F0C4FE0446224669A1052002F0AAFB32
:101490000CB12046A2E701F0C1F8044622466AA139
:1014A000052002F09FFB0CB1204697E701F08CF974
:1014B000044622466CA1052002F094FB0CB12046A4
:1014C0008CE700F007FC044622466DA1052002F0DF
:1014D00089FB0CB1204681E700F036FE0446224627
:1014E0006FA1052002F07EFB0CB1204676E7FFF7E6
:1014F00055FD0446224671A1052002F073FB0CB194
:1015000020466BE700F06CFD224675A1052002F035
:1015100069FB0CB1204661E7FFF7FCFA044622465E
:1015200077A1052002F05EFB0CB1204656E70020B3
:1015300054E700006465766963655F656E61626C9F
:1015400065207265636F766572792072633A202533
:10155000640D0A006465766963655F636F6E6E652E
:101560006374207265636F766572792072633A20C6
:1015700025640D0A0000000070726F62655F656E81
:1015800061626C65207265636F7665727920726343
:101590003A2025640D0A000070756D705F737461E8
:1015A000747573207265636F766572792072633A21
:1015B0002025640D0A00000073656E736F7220723F
:1015C00065636F766572792072633A2025640D0A2F
:1015D00000000000636F6D70656E736174696F6EFB
:1015E000207265636F766572792072633A20256494
:1015F0000D0A0000696E64696361746F725F616CEB
:10160000657274207265636F766572792072633AD1
:101610002025640D0A0000006C696D6974207265F4
:10162000636F766572792072633A2025640D0A0033
:1016300072656C6179207265636F7665727920726C
:10164000633A2025640D0A0074696D65735F656EE9
:1016500061626C65207265636F7665727920726372
:101660003A2025640D0A000074696D657320726567
:10167000636F766572792072633A2025640D0A00E3
:101680006D616E75616C5F72656C61792072656306
:101690006F766572792072633A2025640D0A000026
:1016A00072656C617920706F77657220636F6E660A
:1016B00069672072633A2025640D0A0064696167D6
:1016C0006E6F736973206D657373616765207265F2
:1016D000636F766572792072633A2025640D0A0083
:1016E00072616E642076616C7565207265636F76D9
:1016F0006572792072633A2025640D0A00000000AB
:101700006669726D7761726520696E666F207265B9
:10171000636F766572792072633A2025640D0A0042
:1017200010B5044600202060207160710021A17175
:10173000FF20E07104F1080003F00BFC002010BD55
:1017400010B500240B48FFF7EBFF0B48FFF7E8FF4D
:101750000849002000F012F804460CB1204610BDE4
:101760000549012000F00AF804460CB12046F6E7CE
:101770000020F4E72C0A0020400A0020F0B589B0D0
:1017800005460C460026202101A8FEF7D6FD0027BD
:1017900015B940F2FE7701E040F2FF7701A9384623
:1017A00003F066F9064616B1304609B0F0BD01A84F
:1017B00011F00BFC206002A811F017FC20710DF154
:1017C000090011F012FC60710DF10A0011F00DFC1E
:1017D000A0710DF10B0011F008FCE07104F108019B
:1017E00001A803F093FB0020DFE770B588B0054641
:1017F0000C4620216846FEF7A0FD002615B940F2F0
:10180000FE7601E040F2FF766946206812F0A6FA03
:10181000207901A912F0B5FA60790DF1050112F0F5
:10182000B0FAA0790DF1060112F0ABFAE0790DF1F2
:10183000070112F0A6FA04F10801684603F092FBD2
:101840006946304603F076F908B070BD01460020C5
:101850000870487048808880C880704770B500263E
:1018600000241BE0002515E00E4901EB841101EB7B
:10187000C500FFF7EBFF0B4800EB841000EBC5023F
:101880002946204600F010F806460EB1304670BDDD
:10189000681CC5B2082DE7DB601CC4B2012CE1DB7B
:1018A0000020F4E710070020F0B589B005460E4689
:1018B0001446202101A8FEF740FD012D01DC082E71
:1018C00003DD4FF0FF3009B0F0BD4FF4E07101EBE4
:1018D0000511881901A903F0CBF807460FB1384666
:1018E000F1E701A811F081FB20700DF1050011F066
:1018F0007CFB60700DF1060011F055FB608002A8C2
:1019000011F051FBA0800DF10A0011F04CFBE080BA
:101910000020D8E770B5002600241BE0002515E064
:101920000E4901EB841101EBC500FFF78FFF0B4857
:1019300000EB841000EBC5022946204600F010F8A9
:1019400006460EB1304670BD681CC5B2082DE7DBF7
:10195000601CC4B2012CE1DB0020F4E7100700207A
:1019600070B588B004460D46164620216846FEF73D
:10197000E4FC012C01DC082D03DD4FF0FF3008B042
:1019800070BD3146684609F079F84FF4E07101EB1B
:1019900004114819694603F0CDF8F0E710B50F4877
:1019A00000F027FD0A2006F097FE02F04DFC03F040
:1019B000FCFA02F049FC0AF09DF802F045FCFFF742
:1019C00053FB044602F040FC224605A1042002F02D
:1019D00009F90CB102F038F9002010BDA006002072
:1019E000636F6E66696720696E69742072633A205E
:1019F00025640D0A000000000146002008704870B0
:101A00008870888088710881488170472DE9F0418D
:101A10000027002433E000252DE0002627E004EB1A
:101A20004401194A02EBC11105EB450201EB021119
:101A300006EB460201EB8200FFF7DEFF04EB4400F9
:101A4000114901EBC01005EB450100EB011006EB5D
:101A5000460100EB810332462946204600F016F885
:101A6000074617B13846BDE8F081701CC6B2042E97
:101A7000D5DB681CC5B2082DCFDB601CC4B2012CBD
:101A8000C9DB0020EFE70000500700202DE9F041FE
:101A900088B006460D4617461C4620216846FEF7CC
:101AA0004CFC012E03DC082D01DC042F04DD4FF07B
:101AB000FF3008B0BDE8F0814FF4307202EB8611C0
:101AC00001EB8501394488B2694602F0D1FF8046B6
:101AD000B8F1000F01D04046EBE7684611F085FAF7
:101AE00020700DF1010011F080FA60700DF102001C
:101AF00011F07BFAA0700DF1030011F054FAA080F0
:101B00000DF1050011F071FAA0710DF1060011F050
:101B10004AFA208102A811F046FA60810020C8E745
:101B20002DE9F0410027002433E000252DE00026B8
:101B300027E004EB4401194A02EBC11105EB450211
:101B400001EB021106EB460201EB8200FFF754FFA6
:101B500004EB4400114901EBC01005EB450100EB1B
:101B6000011006EB460100EB810332462946204670
:101B700000F016F8074617B13846BDE8F081701C32
:101B8000C6B2042ED5DB681CC5B2082DCFDB601CA5
:101B9000C4B2012CC9DB0020EFE700005007002091
:101BA000F0B589B005460C4616461F46202101A80F
:101BB000FEF7C3FB012D03DC082C01DC042E03DD42
:101BC0004FF0FF3009B0F0BD394601A808F095FF8D
:101BD0004FF4307202EB851101EB8401314488B27D
:101BE00001A902F0A7FFEDE700B502460020107042
:101BF00050709070D01C00F089FC02F1090000F0D8
:101C000085FC002000BD000070B50026002423E004
:101C100000251DE0C4EB041101EB8101104A1144C1
:101C2000C5EB05128818FFF7DFFFC4EB041000EBCB
:101C300080000B490844C5EB05114218294620468F
:101C400000F010F806460EB1304670BD681CC5B2F3
:101C5000052DDFDB601CC4B2012CD9DB0020F4E7CA
:101C6000E0090020F0B589B005460E461446202153
:101C700001A8FEF762FB012D01DC052E03DD4FF00C
:101C8000FF3009B0F0BD4FF4C56101EB05118819B3
:101C900001A902F0EDFE07460FB13846F1E701A8B1
:101CA00011F0A3F920700DF1050011F09EF960709C
:101CB0000DF1060011F099F9A070E11C0DF107007B
:101CC0000AF013FE04F109010DF10D000AF00DFEFA
:101CD0000020D6E770B50026002423E000251DE093
:101CE000C4EB041101EB8101104A1144C5EB05124C
:101CF0008818FFF779FFC4EB041000EB80000B4954
:101D00000844C5EB051142182946204600F010F89A
:101D100006460EB1304670BD681CC5B2052DDFDB2E
:101D2000601CC4B2012CD9DB0020F4E7E0090020DC
:101D300070B588B004460D46164620216846FEF769
:101D4000FCFA012C01DC052D03DD4FF0FF3008B05B
:101D500070BD3146684609F0A3FA4FF4C56101EB46
:101D600004114819694602F0E5FEF0E7014600203B
:101D7000087048708870704770B50025002412E024
:101D800004EB44010A4A8818FFF7F0FF04EB440013
:101D9000074A8118204600F00DF805460DB1284687
:101DA00070BD601CC4B2012CEADB0020F8E7000023
:101DB0000800002070B588B005460C462021684612
:101DC000FEF7BBFA012D03DD4FF0FF3008B070BD08
:101DD00005F12000694602F04BFE06460EB1304682
:101DE000F4E7684611F001F920700DF1010011F0DF
:101DF000FCF860700DF1020011F0F7F8A0700020FF
:101E0000E4E7000070B50025002412E004EB440173
:101E10000A4A8818FFF7AAFF04EB4400074A811812
:101E2000204600F00DF805460DB1284670BD601C37
:101E3000C4B2012CEADB0020F8E700000800002013
:101E400030B589B004460D46202101A8FEF775FA89
:101E5000012C03DD4FF0FF3009B030BD294601A849
:101E600009F099FA04F1200001A902F063FEF3E7FA
:101E700010B5044610212046FEF75FFA002010BD81
:101E800070B50025002410E00A4901EB0410FFF7AB
:101E9000EFFF084800EB0411204600F00DF805465E
:101EA0000DB1284670BD601CC4B2012CECDB0020D3
:101EB000F8E70000B006002070B588B004460E4672
:101EC00020216846FEF739FA012C03DD4FF0FF3080
:101ED00008B070BD04F12800694602F0C9FD05464E
:101EE0000DB12846F4E7102269463046FEF70CFA99
:101EF0000020EDE770B50025002410E00A4901EB51
:101F00000410FFF7B5FF084800EB0411204600F06D
:101F10000DF805460DB1284670BD601CC4B2012CF9
:101F2000ECDB0020F8E70000B006002030B589B0F7
:101F300004460D46202101A8FEF7FFF9012C03DD20
:101F40004FF0FF3009B030BD294601A809F033FA3F
:101F500004F1280001A902F0EDFDF3E701464AF281
:101F60005A500880322048800A208880704700003C
:101F700010B500240948FFF7F1FF084800F010F8F9
:101F800004460CB1204610BD044800884AF25A515C
:101F9000884201D04FF0FF342046F4E71C000020B7
:101FA00030B589B00446202101A8FEF7C6F901A981
:101FB00040F2FD7002F05CFD054615B1284609B0FF
:101FC00030BD01A810F0EFFF20800DF1060010F0E9
:101FD000EAFF608002A810F0E6FFA0800020EEE794
:101FE00010B500240448FFF7B9FF034800F006F8D5
:101FF0000446204610BD00001C00002030B589B00A
:102000000446202101A8FEF798F9208801A911F0C3
:1020100090FE60880DF1060111F08BFEA08802A9E8
:1020200011F087FE01A940F2FD7002F083FD054624
:10203000284609B030BD01460020087048708870FD
:102040007047000070B50025002412E004EB440145
:102050000A4A8818FFF7EFFF04EB4400074A81188B
:10206000204600F0ACF805460DB1284670BD601C56
:10207000C4B2012CEADB0020F8E700000B000020CE
:1020800070B505460C46207801280AD0214628461E
:1020900000F009F82146284600F074F84FF0FF30B0
:1020A00070BD00BFFCE7024601200870042A04D07E
:1020B000032048701E20887003E0012048700A2029
:1020C00088700020C87008714871887170470000DE
:1020D00070B500250026002411E0C4EBC4000A49B5
:1020E00046183146204600F011F805463146204694
:1020F000FFF7C6FF0DB1284670BD601CC4B2052CA9
:10210000EBDB0020F8E70000540A002070B588B02F
:1021100004460E4620216846FEF70FF9052C03DD24
:102120004FF0FF3008B070BD04F5D660694602F08C
:102130009FFC05460DB12846F4E73146684609F094
:10214000E3FC0020EEE7000070B500250026002427
:1021500011E0C4EBC4000A49461831462046FFF797
:10216000A2FF3146204600F00DF805460DB1284685
:1021700070BD601CC4B2052CEBDB0020F8E700004A
:10218000540A002070B588B004460E4620216846E7
:10219000FEF7D3F8052C03DD4FF0FF3008B070BD1B
:1021A0003146684609F0D1FC04F5D660694602F074
:1021B000C1FC05460DB12846F0E70020EEE770B5FA
:1021C00088B005460C4620216846FEF7B6F8012D7A
:1021D00003DD4FF0FF3008B070BD05F5BB60694608
:1021E00002F046FC06460EB13046F4E7684610F0B1
:1021F000FCFE20700DF1010010F0F7FE60700DF193
:10220000020010F0F2FEA0700020E4E770B5002597
:10221000002412E004EB44010A4A8818FFF70BFF80
:1022200004EB4400074A8118204600F00DF80546EB
:102230000DB1284670BD601CC4B2012CEADB002041
:10224000F8E700000B00002030B589B004460D46C9
:10225000202101A8FEF771F8012C03DD4FF0FF30BB
:1022600009B030BD294601A809F090FC04F5BB6017
:1022700001A902F05FFCF3E70146002008704870F6
:102280008870C870087148717047000070B50026EA
:10229000002423E000251DE004EB4401114A02EB79
:1022A000011105EB450201EB4200FFF7E5FF04EBEE
:1022B00044000C4901EB001005EB450100EB410225
:1022C0002946204600F010F806460EB1304670BD93
:1022D000681CC5B2082DDFDB601CC4B2012CD9DB41
:1022E0000020F4E7C0060020F0B589B005460E4690
:1022F0001446202101A8FEF720F8012D01DC082E4C
:1023000003DD4FF0FF3009B0F0BD382101EB0511BE
:10231000881901A902F0ACFB07460FB13846F2E775
:1023200001A810F062FE20700DF1050010F05DFEB6
:1023300060700DF1060010F058FEA0700DF107005E
:1023400010F053FEE07002A810F04FFE20710DF166
:10235000090010F04AFE60710020D4E770B5002635
:10236000002423E000251DE004EB4401114A02EBA8
:10237000011105EB450201EB4200FFF77DFF04EB85
:1023800044000C4901EB001005EB450100EB410254
:102390002946204600F010F806460EB1304670BDC2
:1023A000681CC5B2082DDFDB601CC4B2012CD9DB70
:1023B0000020F4E7C006002070B588B004460D4642
:1023C000164620216846FDF7B8FF012C01DC082DD8
:1023D00003DD4FF0FF3008B070BD3146684609F0AC
:1023E00065FF382101EB04114819694602F0A2FB90
:1023F000F1E7014601200860002048600872A1F85A
:102400000900C8720120487200228A72CA72042030
:10241000087300207047000010B500240548FFF73E
:10242000E8FF044800F008F804460CB1204610BD4F
:102430000020FCE7A006002030B589B0044620212A
:1024400001A8FDF77AFF01A9082002F011FB05465B
:1024500015B1284609B030BD01A810F0B6FD2060C6
:10246000029860609DF80C002072BDF80D00A4F881
:1024700009009DF80F00E0720020EBE770B588B00E
:1024800004460D4620216846FDF757FF2146684661
:102490000AF062F96946284611F060FC6946082096
:1024A00002F048FB064616B1304608B070BD256004
:1024B0000020FAE7F0B589B004460D461646202103
:1024C00001A8FDF73AFF214601A80AF045F928685E
:1024D000029028798DF80C003088ADF80D00B078A6
:1024E0008DF80F0001A9082002F024FB074617B160
:1024F000384609B0F0BD28686060287920723088BD
:10250000A4F80900B078E0720020F2E7014600204C
:10251000087048708870C87008714871704700B5BD
:1025200002461046FEF72CFC901CFEF729FC101DFD
:10253000FEF726FC901DFEF723FC02F10800FEF7D3
:102540001FFC02F10A00FEF71BFC02F10C00FEF773
:1025500017FC02F10E00FEF713FC002000BD000086
:1025600070B50025002410E00A4901EB0410FFF7C4
:10257000D6FF084800EB0411204600F00DF8054690
:102580000DB1284670BD601CC4B2012CECDB0020EC
:10259000F8E70000D008002070B588B005460C466A
:1025A00020216846FDF7C9FE012D03DD4FF0FF3005
:1025B00008B070BD05F5BC60694602F059FA0646E0
:1025C0000EB13046F4E72146684602F0E3F8A11C5C
:1025D0000DF1020002F0DEF8211D01A802F0DAF888
:1025E000A11D0DF1060002F0D5F804F1080102A8C2
:1025F00002F0D0F804F10A010DF10A0002F0CAF865
:1026000004F10C0103A802F0C5F804F10E010DF16C
:102610000E0002F0BFF80020CAE7000070B50025E8
:10262000002410E00A4901EB0410FFF778FF084886
:1026300000EB0411204600F00DF805460DB12846C8
:1026400070BD601CC4B2012CECDB0020F8E7000078
:10265000D008002030B589B004460D46202101A8DD
:10266000FDF76BFE012C03DD4FF0FF3009B030BDEC
:10267000294601A80AF072F904F5BC6001A902F02C
:1026800059FAF3E700B5024600201070508010712F
:102690005071D0801081907202F10B0000F00EF8A2
:1026A00002F1100000F00AF802F1150000F006F83F
:1026B00002F11A0000F002F8002000BD01460020DF
:1026C000087048708870C8700871704770B500262F
:1026D00000241BE0002515E00E4901EB042101EB6D
:1026E0004510FFF7CFFF0B4800EB042000EB45122D
:1026F0002946204600F010F806460EB1304670BD5F
:10270000681CC5B2082DE7DB601CC4B2012CE1DBFC
:102710000020F4E7E0080020F0B589B005460E4639
:102720001446202101A8FDF708FE012D01DC082E2A
:1027300003DD4FF0FF3009B0F0BD4FF4BD6101EB98
:10274000C501881901A902F093F907460FB138466F
:10275000F1E701A810F049FC20700DF1050010F020
:1027600022FC60800DF1070010F03FFC207102A8F0
:1027700010F03BFC60710DF1090010F014FCE080DA
:102780000DF10B0010F00FFC20810DF10D0010F089
:102790002CFCA07204F10B010DF10E000AF00AF9F5
:1027A00004F110010DF113000AF004F904F1150110
:1027B00006A80AF0FFF804F11A010DF11D000AF055
:1027C000F9F80020B7E7000070B5002600241BE0F0
:1027D000002515E00E4901EB042101EB4510FFF740
:1027E00051FF0B4800EB042000EB45122946204620
:1027F00000F010F806460EB1304670BD681CC5B238
:10280000082DE7DB601CC4B2012CE1DB0020F4E7FB
:10281000E008002070B588B004460D461646202119
:102820006846FDF78AFD012C01DC082D03DD4FF021
:10283000FF3008B070BD314668460AF0ECF84FF43E
:10284000BD6101EBC4014819694602F073F9F0E774
:1028500010B5094805F036F904464FF0FF30074936
:10286000C8609FED070A084680ED010A9FED040A43
:1028700080ED020A002010BD340300204015002026
:10288000000000000146002008801148C068E0B93F
:102890004FF4404008800E4890ED010AF2EE040A21
:1028A00020EE200ABDEEC00A10EE100A00B24880E9
:1028B000074890ED020AF2EE040A20EE200ABDEE6F
:1028C000C00A10EE100A00B2888000207047000095
:1028D0004015002010B509F025F8002010BD0000BB
:1028E00070B5074C25462B46224606A1002001F074
:1028F00079F90A4A0AA1002001F074F970BD0000BC
:1029000000040108646576696365203C25733E20F8
:10291000617420253038780D0A0000004004010859
:10292000636F6D70696C6572206174203C25733E25
:102930000D0A000010B501F063F8012009F090FDC8
:1029400001F076FC10BD000010B5CEB00024134895
:10295000006800B302E00A200FF0BEFA0A210F4817
:10296000006811F0D9FD0128F5D1684602F026FB78
:10297000684602F02FFC044600231A461946074811
:10298000006811F0C5FB0548006810F0A9FD0020A3
:102990000249086000BF20464EB010BD5002002022
:1029A0009EB00024742101A8FDF7C7FCFFF7C2FF09
:1029B00000BF01A80AF0FEFB01A911480AF00EFCB5
:1029C00004464CB901200F490870002048708870F7
:1029D00001A80AF0B4FC07E00A4890F900000028BA
:1029E00002DCFF200749087001A90748007805F0BC
:1029F0001DFC01F005FD4FF4FA700FF06DFAD8E7F9
:102A000004030020560200205502002010B50EA13C
:102A1000002001F0E7F812A1002001F0E3F816A170
:102A2000002001F0DFF81AA1002001F0DBF81FA15F
:102A3000002001F0D7F823A1002001F0D3F808A16D
:102A4000002001F0CFF810BD415050204C4F4720DE
:102A5000434F4E46494720494E464F0D0A0000005D
:102A60002A2A2A2A2A2A2A2A2A2A2A2A2A2A2A2AC6
:102A70002A2A2A2A2A0D0A002A2073686F77205BE7
:102A8000525334383520444154415D0D0A00000052
:102A90002A2073686F77205B50524F544F434F4C3E
:102AA00020444154415D0D0A000000002A20736853
:102AB0006F77205B4750525320444154415D0D0ACB
:102AC000000000002A2073686F77205B4445564958
:102AD00043452054494D455D0D0A000010B5034C97
:102AE0002146002001F07EF810BD0000F05C0208D5
:102AF0007047000010B54021054805F0DFFF0128B0
:102B000002D108F0EFFB01E008F0F2FB10BD00007D
:102B10000000024010B5012009498870C8700020EB
:102B2000486008480078012805D001200549087050
:102B30000846FEF765F901200149086110BD000053
:102B4000880A00200700002008B50024002000901B
:102B50000025C8200FF0C0F901F010F940F2DC5058
:102B60000FF0BAF907F0EAFFFFF772FE64200FF0EA
:102B7000B3F9FFF7AFFE00BF64004021164805F02F
:102B80009DFF044304F07F40B0F17C4F0FD16946B4
:102B9000204608F0B7FB05464DB99DF800000F49E7
:102BA0004870084642780EA1052001F01BF8FFF797
:102BB000A1FF01F009FE09F01DFB09F049FA09F037
:102BC0008DFA01F095FC00F0C7FEFFF7BDFEFA207C
:102BD0000FF082F9D0E7000000040240880A0020CC
:102BE0004353513A2025640D0A000000CEB0002462
:102BF000002501F033F800BF684602F0DFF96946AE
:102C0000094802F0FDF9044654B96D1C684603F00A
:102C1000C1FBFF300028EFD1684601F041F8EBE737
:102C200064200FF059F9E7E7E00200200146002098
:102C300008600D488078012813D10B4800780128DE
:102C400005D10948C078012801D1801E70470120B4
:102C500008600020044A90701046007850700020F0
:102C6000F4E74FF0FF30F1E7780A002070B5012457
:102C700000251F48007801281AD11E480078042832
:102C800009DA1C480078401C1A49087001201849CC
:102C9000C870002070BD002007E01549891D31F87B
:102CA00010100A2900DB0024401C0428F5DB03E097
:102CB000002400200F49087000200D49C870084604
:102CC00040780978884200D0012509480079A0425F
:102CD00006D0074804710125012C01D107F0C6FE7A
:102CE00003480471807808B901498D700020D1E74C
:102CF000780A002028000020002009490870487048
:102D00008870C8700871C88100BF05E000220449BE
:102D1000891D21F81020401C0428F7DB0020704793
:102D2000780A002010B504460E48006881B20E48AB
:102D30000E4A126820F812100C480068401C0B491B
:102D4000086000200749086008490868C11700EBBF
:102D500091718910A0EB8101044A1160FFF786FF91
:102D600010BD00002C0000207E0A0020340000204E
:102D700030B503460D4C04EB831404EBC100002472
:102D800054710478012C02D14478012C00D030BD5C
:102D900014884588AC4201DD01245471148885886B
:102DA000AC4201DA0224547100BFF0E710070020A2
:102DB00010B500F091FF002400BF03E0E0B20EF078
:102DC0005FFF641C082CF9DB002407E004EB84019E
:102DD000044A02EBC10009F04DFA641C082CF5D33B
:102DE000002010BDE01300202DE9F041064600242C
:102DF0000025002758E007EB870000EBC7002D49AE
:102E000001EB8004781C00EB4001301D00EBC10594
:102E100094F82400002845D0A069002842D070888A
:102E200022794FF400411141084370800322284663
:102E3000216901F001FD0322E81CE16801F0FCFCBE
:102E4000A069FDF7A3FA00F0FF084246A81DA1699A
:102E500001F0F2FC082205F11000616901F0ECFCC0
:102E6000207901281ED1351D708840F40040708003
:102E700003222846216901F0DFFC0322E81CE168F7
:102E800001F0DAFCA069FDF781FA00F0FF08424684
:102E9000A81DA16901F0D0FC082205F110006169AC
:102EA00001F0CAFC781CC7B2072FA4D30020BDE8EC
:102EB000F0810000700000202DE9F84F064688469A
:102EC0004FF00009CA46334C0025AB4632A105201D
:102ED00000F088FE002754E007EB870000EBC700F6
:102EE0002C4901EB8004256A94F82400002847D07F
:102EF000002D45D02868002842D02079216B087623
:102F0000206B4462216B20462A6890478146206BE3
:102F10004A4626A1C369042000F064FE206BC06904
:102F200010B90020208519E0002000902079694622
:102F300005F09EF828B9002023499DF8002041F8AB
:102F40002200208D401C2085208D0A2805DB0020D2
:102F500020850BF1010000F0FF0B00BF6EB1206A6D
:102F600058B1207905F09AF88246BAF1070F02D1DC
:102F7000208D012801D0206BB04740460EF0ACFFF9
:102F80007F1C072FA8D311A1052000F02BFE0020E5
:102F9000BDE8F88F70000020726561642065616390
:102FA000682073746172740D0A0000000D0A536585
:102FB0006E736F7273207265616420726320256482
:102FC00020732025640D0A002015002072656164BD
:102FD000206561636820656E640D0A002DE9F04785
:102FE0002DED088B86B006460C461746012E00DCF8
:102FF00036B94FF0FF3006B0BDEC088BBDE8F08766
:103000000020386080460390204604F043F8267084
:103010000020E08105AAA11D601D231D8DE8070089
:10302000E21CA11C601C00F06DFE3846FFF7FEFD9F
:103030005A480078012808D14FF4C04020815748F1
:10304000007910B14FF4C04060810025A1E0E8B2E2
:1030500004A900F005FA8046B8F1000F7ED104986B
:10306000C06900287AD0E0894FF400412941084323
:10307000E08103AA2846049901F0C6FA00287FD10E
:10308000062D57D1464840880A2190FBF1F000EB0D
:1030900080004FF6FF7101EA4009414880880A210B
:1030A00090FBF1F000EB80004FF6FF7101EA400A5F
:1030B00009F10900FDF76CFB41EC1B0B9FED390B8F
:1030C00053EC102BFDF783FA41EC1A0BFDF7D4FB00
:1030D00008EE900A5046FDF75BFB41EC1B0B9FEDA1
:1030E000310B53EC102BFDF772FA41EC1A0BFDF784
:1030F000C3FB08EE100AFDF7F5F800EE100AB8EE73
:10310000C00A9FED2A1AC0EE010A38EEC81AB0EEC6
:10311000480A00EE810AB0EE409ABCEEC90A10EEF1
:10312000100AC0B20390BDF80C2021A1042000F0C9
:1031300059FD00BFBDF80C1005EB450204F110006D
:1031400020F81210002105EB450200EB420001714E
:103150000498008981B205EB450201E018E00FE018
:1031600004F1100000EB4200418005EB450304F13F
:10317000100101EB4302701E2946FFF7F9FD07E03D
:10318000E02105EB450204F1100000EB4200017163
:103190006D1C082DFFF65BAF00202CE7780A00209D
:1031A0001C0000209A9999999999B93F0000004F05
:1031B0004E484E2072616E643A25640D0A0000008C
:1031C0000120014908707047E80100202DE9F04115
:1031D0000025002400265748007800287DD0554857
:1031E00090F90000B0F1FF3F04D1601E524A106018
:1031F000506008E04F480078012804D101210020E8
:103200004D4AC2E9001000204A4908704BA1042031
:1032100000F0E8FC012484E004EB44004D4901EB9C
:103220004005601E00EB80004B4901EBC001601EB1
:1032300000EB800202EBC000484A02EB8000016311
:103240002878012837D10121601E00EB800202EBB3
:10325000C000424A02EB800080F824104049601E02
:1032600000EB800202EBC0003C4A42F820102A79B1
:10327000E978631E03EB830707EBC303374F07EBC4
:103280008303187904F028FF611E01EB810202EB31
:10329000C1013A4602EB81010881601E00EB80010A
:1032A00001EBC000114601EB800002892DA1042032
:1032B00000F098FC34E0611EC8B209F02DF8601EE1
:1032C00000EB800101EBC000244901EB8000007994
:1032D000012803D10EF0D4FC22E029E0601E00EBAF
:1032E000800101EBC0001D4901EB8000007902283C
:1032F00009D100200EF0C4FC02200EF0C1FC062013
:103300000EF0BEFC0CE0601E00EB800101EBC00083
:10331000124901EB80000079072801D10EF0B0FCC2
:10332000641C082CFFF678AF16A1042000F05AFCAC
:10333000BDE8F081E8010020F001002072656672AE
:10334000657368207374617475732073746172742B
:103350000D0A0000C0060020E013002070000020CD
:10336000A002002073656E736F7220636F6E6669D2
:1033700067206D6F64656C5F6964203D2025640D76
:103380000A00000072656672657368207374617468
:10339000757320656E640D0A0000000010B52DEDF8
:1033A000028BE0B09FED170BB0EE408AF0EE608A22
:1033B00000205F9011A801F001FE5FAA01A9012081
:1033C000FFF70CFE044611488078012815D15F985C
:1033D00038B905F081FB0E490968401A0D49884249
:1033E0000BD905F079FB0A49086001AA11A90A481E
:1033F00003F058FC012009490870002060B0BDECC2
:10340000028B10BD0000000000000000880A0020B0
:10341000E0010020E0930400E002002064020020AC
:1034200038B504469FED0C0A8DED000A207901287D
:1034300010D10A4D2878012804D169886A460320F2
:1034400010F09AFA207900229DED000A032100F085
:103450005FF838BD0020FCE700000000FC060020FB
:103460000246082A02DB4FF0FF30704702EB0210E1
:10347000024B03EB001008600020F6E7A00A0020D2
:10348000FFF796FC00BFFFF7A1FE08F003FC07481A
:10349000FFF7C6FF4FF47A710548FFF70DFD4FF4B3
:1034A0007A700EF019FDFFF779FFECE7700000204D
:1034B000CDC501082DE9F84381460D4616461F4645
:1034C000002000906946284601F0FEFC8046B8F1D5
:1034D000000F02D04046BDE8F8830098046A0098C7
:1034E000006888B184B1009890F8240060B1206B26
:1034F00050B13A463146236B0098984708B90020EE
:10350000E9E74FF0FF30E6E74FF0FF30E3E7000078
:103510002DE9F0412DED028B82B080460E46B0EED3
:10352000408A17461C4850F8260038B137B94FF08A
:10353000FF3002B0BDEC028BBDE8F08100200190AD
:1035400001A9404601F0C0FC04460CB12046F0E75A
:103550000198056A01980068D0B1CDB1019890F842
:103560002400A8B1A86A98B1B0EE480A3146AA6A08
:103570000198904708B9002001E04FF0FF30044661
:1035800024B905F0A9FA044941F826002046D0E7FD
:103590004FF0FF30CDE7000020150020002405F09B
:1035A0009BFA044600BF01F081FC204607F09EFA1A
:1035B00008F0D6FFF7E7000010B58AB024220A49C8
:1035C00001A8FCF7A1FE01AA002108480EF0EAFCC0
:1035D0000446224606A1002000F004FB0A2005F064
:1035E0007BF80AB010BD0000EC540208F137010866
:1035F0002A205550444154455F46494E495348207E
:1036000068616E646C652025780D0A0010B5002095
:10361000FFF788FB10BD000000B5ADB00EF078FCE0
:103620003DA1002000F0DEFA41A1002000F0DAFA0E
:103630002422454924A8FCF767FE24AA0021434818
:103640000EF0B0FC42490860084642A10268002022
:1036500000F0C8FA0A2005F03FF824223A49243144
:103660001BA8FCF751FE1BAA002140480EF09AFC53
:103670003F49086008463FA10268002000F0B2FA06
:103680000A2005F029F824222F49483112A8FCF716
:103690003BFE12AA00213D480EF084FC3C49086024
:1036A00008463CA10268002000F09CFA0A2005F0C0
:1036B00013F8242224496C3109A8FCF725FE09AA35
:1036C00000213A480EF06EFC39490860084639A1DD
:1036D0000268002000F086FA0A2004F0FDFF242290
:1036E000194990316846FCF70FFE6A4600213748B9
:1036F0000EF058FC36490860084636A102680020E2
:1037000000F070FA0A2004F0E7FF09A1002000F0A1
:1037100069FA00202DB000BD415050205441534B58
:1037200020434F4E46494720494E464F0D0A000060
:103730002A2A2A2A2A2A2A2A2A2A2A2A2A2A2A2AE9
:103740002A2A2A2A2A0D0A0038540208ED2B0108D9
:103750003C0000202A2050524F544F434F4C2068C9
:10376000616E646C652025780D0A000081340108C3
:10377000440000202A2053454E534F525320686185
:103780006E646C652025780D0A000000492B010845
:10379000380000202A204E4554574F524B20686174
:1037A0006E646C652025780D0A0000009D350108C7
:1037B000480000202A205354415455532068616E1C
:1037C000646C652025780D0A00000000A12901081D
:1037D0004C0000202A20475052532068616E646CD0
:1037E000652025780D0A00000EF0B2FB00BFFEE751
:1037F00008B5002400BF1B48807801282DD14FF464
:103800007A700EF069FB4FF49C700EF09FFA04463C
:103810001CB3204601F0D2FB0020009002208DF85E
:103820000000114800788DF801006A4621460F48D3
:1038300003F0B3FA40F6B8300EF04EFB204602F02B
:103840005FFD64200EF048FB20460EF0B3F90EF049
:10385000A3FB05460FF0CAFE00BF4FF47A700EF0CE
:103860003BFBC8E7880A00202D020020E002002070
:1038700070B504460E4D1CB10C2C01D0022C10D199
:103880001CB901200B4908700EE00C2C03D1032059
:103890000849087008E0022C06D10220054908708A
:1038A00002E0022003490870FFF786FE002070BD89
:1038B000400A00202D0200202DE9F041224C234D2A
:1038C000207A01282FD1E07901282CD12079A8B9BC
:1038D000607A032829D1A07A20BBE07A012824D17C
:1038E000E7682669B6F1FF3F07D0394618480EF061
:1038F000FFF8B04201D0FDF753F916E02079022815
:1039000006D114490870FDF73BF9FFF755FE0CE0AE
:103910002079032809D101200E490870FDF730F9FC
:10392000FFF74AFE01E0FDF73BF92879012807D1AE
:10393000287A012804D1E879012801D1FDF770FB2C
:103940000020BDE8F08100002C0A0020400A002081
:10395000000001082D02002010B5D0B0002422483C
:10396000007801283CD105F0B7F81F494968401A92
:103970001D4949781D4A52F82110884230D91C4807
:10398000807801282CD14FF49C7102A8FCF7D5FC5B
:1039900000200090019002A801F010FB154800885B
:1039A000ADF80E0010484078052806DB092102A872
:1039B00008F0E0FB09F008FE11E00F4800680090F5
:1039C0000D48808801906A4602A90C4803F0C6F9A8
:1039D0000446BDF80E000749088009F0E7FD00BF66
:1039E000204650B010BD000010020020845502088F
:1039F000880A00202E02002018020020E002002089
:103A0000FF2003490870002048708870704700004C
:103A100056020020002004494870887008704860F1
:103A20008860086170470000880A00202DE9F8438B
:103A300004460D4616460027B84610E02B4622469F
:103A400001210948009604F0F9F8074617B93846ED
:103A5000BDE8F883052004F03FFE08F10108B8F145
:103A6000030FEBDB3846F3E7200300202DE9F0419C
:103A700004460D46002600270EE02B462246012173
:103A8000074804F032F9064616B93046BDE8F08121
:103A9000052004F021FE7F1C032FEEDB3046F5E706
:103AA000200300202DE9FC4104460D461646002760
:103AB000B84613E040F6B8302B4622460121CDE946
:103AC0000060094804F067F9074617B93846BDE8B1
:103AD000FC81052004F000FE08F10108B8F1030F95
:103AE000E8DB3846F3E700002003002030B502464B
:103AF00000200BE0012383400B402BB113684500ED
:103B00000324AC40A3431360431CD8B21028F1DB5C
:103B100030BD30B5024600200FE0012383400B404A
:103B20004BB1136845000324AC40A3434500012476
:103B3000AC4023431360431CD8B21028EDDB30BDEA
:103B400010B505F00BF808F09BFD00F0A1FB00F0AC
:103B50007BFB07F085F907F02FF907F04DFB07F025
:103B6000F7FA07F02DFB07F063FB07F00DFB07F0FA
:103B70007BFB07F0B5FA07F091FA00F03BFF044633
:103B80000CB100F061F8064806F0BAF862B6002001
:103B900080F3108800BF00BF80F3138800BF10BD02
:103BA000D03E00200020704710B50848007B052853
:103BB00001DD052001E00548007B0446044850F87B
:103BC000242004A1002000F00DF810BDA006002064
:103BD000780200204C6F67206C6576656C3A202572
:103BE000730D0A000FB438B504460848007BA042A4
:103BF00002DA38BC5DF814FB06A80090009905981D
:103C000009F0ACFD0020009000BFF2E7A006002004
:103C10002DE9F04105460E4617460848007BA842AC
:103C200001DABDE8F081002404E0315D04A009F070
:103C300085FD641CBC42F8D300BFF2E7A00600205B
:103C4000253032782000000010B5012080F3138861
:103C500000BF05F073F8002010BD000010B5012072
:103C600010F058F905490860012010F053F9044993
:103C7000086001F027FF002010BD0000D8020020DE
:103C8000DC02002070B504460D46044842F6FF727F
:103C9000294643682046984770BD0000F002002086
:103CA00010B50446D121204600F008F810BD10B52B
:103CB0000446D021204600F001F810BD70B504463E
:103CC0000D466572002020732146024801F014FA67
:103CD00070BD0000E002002010B5084808494860A7
:103CE0000CF0EEFD064807F085FD07F093FB044954
:103CF000496888688047002010BD000090020020BD
:103D0000A00200202DE9F04786B004460D46164675
:103D10001F46DDE90F9ADDF8388000226946164813
:103D200005F0D0FC20B14FF0FF3006B0BDE8F087C1
:103D3000002205A9104805F09FFC10B14FF0FF309C
:103D4000F3E79DF8170020709DF8150028709DF886
:103D5000160030709DF814008AF800009DF80000ED
:103D600038709DF8010088F800009DF8020089F87D
:103D700000000020D9E70000B03E002010B50AF096
:103D800001FC044654B909480068C0F3400028B15A
:103D900000F05EF904460CB9204610BD04A10420D1
:103DA000FFF720FF00F0F2F8F7E70000703802405C
:103DB00052544320757365204C5345204552524F51
:103DC000520D0A0030B58DB000200B900C902021D0
:103DD00003A8FCF7B2FA03A91F2000F049FE04462D
:103DE00014B120460DB030BD9DF80C00A52807D1B8
:103DF0009DF80D005A2803D19DF80E00142802DA10
:103E00004FF0FF30EEE79DF80E008DF82C009DF886
:103E10000F008DF82D009DF810008DF82E009DF8F4
:103E200011008DF82F009DF812008DF830009DF8DC
:103E300013008DF831009DF831009DF83010CDE968
:103E400000109DF82F309DF82E209DF82D109DF824
:103E50002C0000F05BF804460CB12046C2E703A139
:103E60000420FFF7BFFE0020BCE700004253505F74
:103E70005254435F6C6F61645F66726F6D5F626125
:103E8000636B7570204F4B0030B589B004462078C5
:103E9000142803DA4FF0FF3009B030BD202101A80B
:103EA000FCF74BFAA5208DF804005A208DF8050088
:103EB00020788DF8060060788DF80700A0788DF8DE
:103EC0000800E0788DF8090020798DF80A00607903
:103ED0008DF80B0001A91F2000F02CFE05460DB146
:103EE0002846D9E702A10420FFF77CFE0020D3E793
:103EF0004253505F5254435F736176655F746F5FE6
:103F00006261636B7570204F4B0000002DE9F04734
:103F100086B004460D4616461F46DDE90E9A8DF81A
:103F200017408DF815508DF8166032462946204608
:103F30000DF012FD8046B8F1000F01D14FF00708D7
:103F40008DF81480002205A90F4805F063FC20B10C
:103F50004FF0FF3006B0BDE8F0878DF800708DF8A7
:103F600001908DF802A000208DF8030003900490CA
:103F700000226946044805F0CFFC10B14FF0FF3035
:103F8000E8E70020E6E70000B03E00201FB523A1CF
:103F90000420FFF727FE04F0F3FE00BF234800686B
:103FA00020F00100214908600846006820F0040064
:103FB000086000BF32200DF08FFF002000900190BC
:103FC000029003900220009019480390684604F084
:103FD000DDFE28B100F00CFE4FF0FF3004B010BD44
:103FE000144815490860002048607C21124881600F
:103FF00040F69F71C160002101614161816105F05E
:1040000091FB20B100F0F4FD4FF0FF30E6E70BA18B
:104010000420FFF7E7FD0020E0E7000052544320B2
:10402000757365204853450D0A0000007038024042
:104030000003100000280040B03E002052544320EE
:1040400075736520485345204F4B0D0A0000000052
:104050001FB51FA10420FFF7C5FD00BF2048006861
:1040600040F001001E49086000BF32200DF034FF0F
:104070000020009001900290039002200090C00167
:104080000390684604F082FE28B100F0B1FD4FF0C5
:10409000FF3004B010BD1348134908600020486089
:1040A0007F2111488160FF21C160002101614161D0
:1040B000816105F037FB20B100F09AFD4FF0FF3031
:1040C000E7E70AA10420FFF78DFD0020E1E70000EB
:1040D00052544320757365204C53450D0A0000006F
:1040E0007038024000280040B03E00205254432067
:1040F000757365204C5345204F4B0D0A000000009E
:1041000038B5044620680068C0F3001010B320687A
:104110000068C0F3C000E8B920680068C0F3800000
:10412000C0B920680068C0F3400098B920680068F2
:1041300000F0010070B900BF002000902068006806
:10414000009020684068009000BF00BF002120461A
:1041500006F02EFC00BF0020009020680068009050
:1041600020684068009000BF00BF38BD10B5002235
:104170000121C80210F0C1FA1E4908601E481F49FB
:104180000860002048604FF4805300221C480DF066
:104190009DF900220121480210F0AFFA1949086088
:1041A00019481A490860002048604FF480630022D3
:1041B00017480DF08BF900220121480210F09DFAFA
:1041C00014490860144815490860002048604FF4FD
:1041D0008063002212480DF079F9124812490860F4
:1041E000002048604FF48053002210480DF06EF913
:1041F00010BD0000B002002064150020A8020020BD
:10420000903F0020BC02002064250020B402002062
:10421000D03F0020C802002064290020C0020020F6
:1042200010400020642D0020CC02002050400020CF
:1042300010B501200FF06EFE0249086009F07DF80C
:10424000002010BD0003002010B50E4804F072FCE1
:104250000D480068401C0C490860086800EBD071EC
:104260004910A0EB4101084A11601046006800287F
:1042700001DD012000E0002002460421034804F093
:1042800025FC10BDA43E0020D402002000100240F6
:1042900010B506F0EFFE04210748FFF73AFC074887
:1042A0000068002801DD012000E000200246042112
:1042B000014804F00BFC10BD00100240D4020020A5
:1042C000FFF7C2FC00BFFEE730B502460B46FF20F9
:1042D000002113E0555C684008240BE000F08005E5
:1042E00025B1312585EA4005E8B201E04506280EF2
:1042F000651EECB2002CF1DC4D1CE9B29942E9DB01
:1043000030BD000010B5D2B000204F90254C4FAA10
:104310000DF2451051A9831ECDE901020091C21E84
:10432000011F50A8FFF7EEFC2078002837DD9DF82C
:104330004201A178884202D0FCF730FE2FE09DF8C0
:104340004001217888422AD19DF841016178884254
:1043500025D19DF84201A178884220D19DF84301E2
:104360000C2802DBFCF71AFE19E09DF84301072830
:1043700015DB01A800F022FE684602F0DAFA0948CF
:1043800080798DF800000748C0798DF801006A46F1
:1043900001A9054802F042FCFCF700FE00BF52B044
:1043A00010BD000014000020E00200202DE9F041C3
:1043B00000264FF6FF750F48C4680769B4F5003F43
:1043C00005D821460C480DF093FB05460CE04FF450
:1043D000003109480DF08CFB0546EA43A4F5003195
:1043E00006480DF0A3FA0546AF4200D00426304639
:1043F000BDE8F081180200200000040800800008D9
:1044000010B52C480078012801D1002010BD2948A2
:1044100090F90000B0F1FF3F26D126484078401CBB
:10442000244948700846407878281DDB7820487079
:1044300008468078032817DB08460078022813D046
:1044400002200870002281031B4804F03FFB41F268
:1044500088300DF041FD0122D103174804F036FBEE
:1044600016A10420FFF7BEFB1248807803281EDA4D
:104470001048407878281ADB00224FF400410E489B
:1044800004F024FB41F288300DF026FD0122D10317
:10449000094804F01BFB07488078401C05498870D8
:1044A0000020487008700BA10420FFF79BFB4FF021
:1044B000FF30ABE756020020000002404750525345
:1044C000206D6F64656C204552524F522121210DA1
:1044D0000A000000706F776572206F66662F6F6E3E
:1044E0002047505253206D6F64656C0D0A00000028
:1044F000F0B587B000200490059004F0EDFA044672
:10450000002539480068201A4EF66021884269D992
:104510003548046006AAD01E05A9831ECDE9010214
:104520000091C21E011F04A8FFF7ECFB9DF81000CC
:10453000142803DA4FF6FF702C49086004A92C48B0
:104540000DF0FDFA38B3FFF721FD054615B12846F9
:1045500007B0F0BD9DF815009DF81410CDE90010CE
:104560009DF813309DF812209DF811109DF8100051
:10457000FFF7CCFC05460DB12846E9E701201D49AF
:1045800008601D48046004A8FFF77EFC4FF6FF702A
:104590001649086003E004A915480DF0BFFA174852
:1045A000B4FBF0F611480068864207D014488078C2
:1045B000012803D10D48066007F0F8FA0D4800689D
:1045C00001280ED19DF8100014280ADB0A48006863
:1045D000001B0C49884204D90748046004A8FFF76F
:1045E00053FC00BF0020B3E75C000020580000200F
:1045F000500000206000002064000020005C2605C0
:10460000880A0020E09304002DE9F0412DED028B93
:1046100082B006460C4615460027B8469FED160B9D
:104620008DED000B694604F10C000DF0E5FB07462B
:104630009DED000B51EC100BFCF71EF908EE100A73
:10464000F0B22946B0EE480A0FF09CFA80462A885C
:104650000BA10320FFF7C6FA5FB9B8F1000F08D12C
:104660006089032805DC002002B0BDEC028BBDE8A8
:10467000F0814FF0FF30F7E700000000000000007D
:1046800070726F626520755F76616C7565203D2084
:1046900025640D0A0000000030B587B00024002515
:1046A0000020049004AA0DF1190006A9831ECDE98B
:1046B00001020091C21E011F05A8FFF723FB002283
:1046C000114605A807F00EFE04462822002105A881
:1046D00007F008FE0546012C04D1681C10B9002023
:1046E00007B030BD4FF0FF30FAE700000146002070
:1046F0000B4B0A681B689A4201D005200EE0084B5C
:104700009B884A689A4209D9054A9288044B1B68DB
:104710001344034AD268934200D006207047000039
:104720001802002070B504460026134DA5F10801BB
:104730000020FDF723F82078012817D1A868A16888
:1047400088420DD168786178884209D1A878A1782B
:10475000884205D1E878E178884201D10C2604E04E
:104760006068B0F5403F00D9032601E0032600BF92
:1047700000BF304670BD0000340A002070B504460A
:104780000D46287821460FF0FCFA6888611C0FF06E
:10479000D0FA70BD70B505460C4628460EF025FCD3
:1047A0002070681C0EF021FC6070002070BD70B598
:1047B00004460D46287821460FF0E3FA6878611C1C
:1047C0000FF0DFFA70BD000000B5CFB017480078D9
:1047D000012829D11548807830BB1448406840B181
:1047E00004F07AF911494968401A43F69821884241
:1047F0001AD901A800F0E2FB0D48007800909DF85E
:10480000000008B9012000900848C078012801D1B3
:10481000022000906A4601A9064802F0BFF804F0A1
:104820005BF90249486000BF4FB000BD880A002014
:1048300007000020E002002070B506460C46154631
:104840002CB12A4621463046FBF75EFD03E029469F
:104850003046FBF772FD70BD10B5024803F05CFDF9
:1048600010BD00007042002010B5024803F054FD56
:1048700010BD0000B041002010B5024803F04CFD0F
:1048800010BD00009040002010B5024803F044FD28
:1048900010BD0000F040002010B5024803F03CFDC0
:1048A00010BD00001042002010B5024803F034FD96
:1048B00010BD000050410020014608781038182330
:1048C000B0FBF3F20848805CC865032A05D9086884
:1048D0006FF30900001D886503E008686FF30900A5
:1048E0008865886D70470000CD5C02080146002095
:1048F0008A6A8B69CBB932B1012A0DD0022A03D062
:10490000032A10D10EE000BFCB6A03F08073B3F12D
:10491000807F00D1012007E0CB6AB3F1C07F00D1D6
:10492000012001E000E000BF34E08B69B3F5005FD7
:104930001AD132B1012A07D0022A03D0032A11D199
:104940000AE000BF01200EE0CB6A03F08073B3F1F0
:10495000807F00D1012006E0CB6AB3F1C07F00D197
:10496000012000E000BF15E032B1012A05D0022A83
:1049700004D0032A0CD103E000BF00BF012008E0EF
:10498000CB6A03F08073B3F1807F00D1012000E097
:1049900000BF00BF704730B50468246824F4802449
:1049A00005682C60046863608468402C04D1046846
:1049B000A2600468E16003E00468A1600468E2604A
:1049C00030BD000010B5084B5968084B1B68084CF7
:1049D000B3FBF4F303FB00F200BF034B5B685B1A0D
:1049E0009342FAD310BD0000001000E02C06002016
:1049F00040420F001148006800F0807090B90F48E5
:104A0000006840F080700D49086000200C49486043
:104A10000846006820F0010008600846006840F081
:104A20000100086000BF00BF00BF0548406808B132
:104A3000002070474FF0FF30FBE70000FCED00E086
:104A4000001000E0704770B504460D4628782146F6
:104A50000FF097F970BD70B504460D4628782146D1
:104A60000FF08FF9691C601C07F05CFF70BD00003F
:104A700070B504460D4604F5006214A10420FFF74A
:104A8000B1F84FF6FF7101EA441020222946FEF7E3
:104A9000CDFF10B14FF0FF3070BD20222946042019
:104AA000FFF7B6F80EA10420FFF79CF81E21284658
:104AB0000DF0D8F8064605F11E000EF074FAB0426B
:104AC00001D10020E8E74FF0FF30E5E7656570723F
:104AD0006F6D20726561643A20257520706167658D
:104AE0000D0A00001FB50020009001900290039075
:104AF00010216846FEF7BAFF18B14FF0FF3004B03E
:104B000010BD07A10420FFF76DF8102269460420AC
:104B1000FFF77EF806A10420FFF764F80020EEE717
:104B2000656570726F6D206964203A0D0A5B000044
:104B30005D0D0A0070B504460D4604F5006212A131
:104B40000420FFF74FF81E2128460DF08BF806468B
:104B500005F11E0130460FF0ECF820222946042012
:104B6000FFF756F80EA10420FFF73CF84FF6FF714F
:104B700001EA441020222946FEF794FF08B90020DC
:104B800070BD4FF0FF30FBE7656570726F6D207789
:104B9000726974653A20257520706167650D0A0099
:104BA0000D0A000010B5402003F07AFE10BD000091
:104BB00070B504460025FFF747FB4FF400310A4863
:104BC0000EF09CFA00B10725B4F5003F08D9FFF7B5
:104BD0003BFB4FF4004105480EF090FA00B1072569
:104BE000FFF732FB284670BD000004080080000873
:104BF00072B6FFF729F800BFFEE7000010B50022EB
:104C000001B909E0012901D10A0205E0022901D117
:104C10000A0201E04FF440720E4B1B6823F440730C
:104C20000C4C236023461B681343236023461B68F8
:104C300023F0F803236023461B68022444EAC004DF
:104C40002343044C236023461B6843F480332360D2
:104C500010BD0000103C02401C48006800F40070C9
:104C6000B0B11A48006820F400701849086000BF0D
:104C70000846006840F4006008600846006820F4B8
:104C80000060086000BF0846006840F400700860DB
:104C90000E48006800F48060B0B10C48006820F451
:104CA00080600A49086000BF0846006840F48050F0
:104CB00008600846006820F48050086000BF08467D
:104CC000006840F48060086070470000003C0240CB
:104CD0000A4A126822F44072084B1A601A46126897
:104CE00042F004021A601A4612684FF4803343EA15
:104CF00000231A43014B1A6070470000103C024029
:104D0000074A126822F44072054B1A601A4612686C
:104D10001A601A46126842F001021A600170704768
:104D2000103C024010B50D49096821F440710B4C4C
:104D300021602146096841F44071216021460968DB
:104D400041F001012160026000BF00BF00BFBFF35E
:104D50006F8F00BF00BF00BF436010BD103C02401A
:104D6000084A126822F44072064B1A601A4612680A
:104D700042F480721A601A46126842F001021A6008
:104D800001807047103C0240084A126822F44072C9
:104D9000064B1A601A46126842F400721A601A46EC
:104DA000126842F001021A6001607047103C024034
:104DB0002348006800F0100040B12248C06940F06C
:104DC00010002049C86110201D4908601C48006877
:104DD00000F0200040B11B48C06940F008001949AC
:104DE000C8612020164908601548006800F040009E
:104DF00040B11448C06940F004001249C861402025
:104E00000F4908600E48006800F0800040B10D486E
:104E1000C06940F002000B49C86180200849086061
:104E20000748006800F0020040B10648C06940F041
:104E300020000449C8610220014908607047000051
:104E40000C3C02409844002070B504460025002028
:104E50001449C86103F040FE054609E0601C38B102
:104E600024B103F039FE401BA04201D9032070BDDC
:104E70000D48006800F480300028EFD10A4800682F
:104E800000F0010010B101200749086006480068E1
:104E900000F0F20018B1FFF78BFF0120E7E70020D8
:104EA000E5E70000984400200C3C024010B505489E
:104EB00000780A2190FBF1F201FB120008B9FFF71C
:104EC000C3F910BD5A02002030B502460C46012A33
:104ED00004D0022A02D04FF0FF3030BD0A4900232F
:104EE0000DE003EB830000EBC300074D05EB8001F1
:104EF0000879904202D121600020EEE75B1C072B6D
:104F0000EFD34FF0FF30E8E77000002070B50546A2
:104F10000C4605F108000EF068F8207005F1090054
:104F20000EF063F8607005F10A000EF05EF8A070F4
:104F300005F10B000EF059F8E07005F10C000EF0D1
:104F400044F8606005F110000EF03FF8A06000200A
:104F500070BD01460020087048708870C8704860B5
:104F60008860704770B504460D46287804F1080142
:104F70000EF007FF687804F109010EF002FFA8782F
:104F800004F10A010EF0FDFEE87804F10B010EF0C9
:104F9000F8FE04F10C0168680EF0E0FE04F1100167
:104FA000A8680EF0DBFE002070BD002070470000F6
:104FB00001488088704700001802002010B50446A0
:104FC000FBF786FF206003202071402060710020E5
:104FD000E0802072D02060720020A0720120E07278
:104FE000002020734FF4907104F10D00FBF7A5F938
:104FF0000020A4F82E0184F83001C4F8340110BD5B
:105000002DE9F04106460C46002700252146304692
:1050100008F0FEFF054615B12846BDE8F08121469F
:1050200030460AF075FB05460DB12846F5E72146E6
:1050300030460AF0F3FE05460DB12846EDE720465E
:105040000CF0E0FD07462079162806D1002F04DD7C
:10505000607B522801D1172020712079C00984F883
:1050600030012846D9E72DE9F04105460E460024D7
:105070000027311928680EF078FE241D311928798F
:105080000EF087FE641C311968790EF082FE641CF4
:105090003119E8880EF055FEA41C3119287A0EF05B
:1050A00078FE641C3119687A0EF073FE641C3119A5
:1050B000A87A0EF06EFE641C3119E87A0EF069FED3
:1050C000641C3119287B0EF064FE641C28460CF029
:1050D00099FD074630193A4605F10D01FBF714F921
:1050E000E01984B23119B5F82E010EF022FEA01C91
:1050F00084B22046BDE8F0812DE9F04106460C4619
:1051000030480068401C2F49086002E00A200CF07B
:10511000E3FE0A212C4800680FF0FEF90128F5D1C2
:10512000FBF7D6FE20602079172801D116202071C8
:105130000120E07225492046FFF795FF0546022D24
:105140000ADC00231A4619461F4800680EF0E0FFEB
:105150004FF0FF30BDE8F081A91E1C480CF082FD25
:105160000746A81E194A811838460EF0E2FD42F69D
:10517000FF722946154873689847207A01280ED097
:10518000207A02280BD0207A032808D0207A0A2817
:1051900005D0207A122802D0207A1E2803D1294671
:1051A0000A48FEF76FFD00231A46194606480068B4
:1051B0000EF0AEFF06480068401C0549086000205C
:1051C000C8E700003C03002038030020643D0020B5
:1051D0004003002030B587B0044600250D48FBF79A
:1051E000D5F8C5B2142D00DD1425681CC0B28DF8A9
:1051F0000400094800788DF8050006490DF1060005
:10520000FBF7D9F801AA2146044801F0ABFC0020C5
:1052100007B030BD3402002054020020E00200201C
:105220002DE9F04106460024D6F834512846FFF710
:105230005DFA04463848847108F0C6F9002C63D141
:10524000A86808F009FA04468CB1344800780028B0
:1052500008DD304606F0BEFC30480078401E2F497D
:10526000087055E02146304606F084FF50E0A988DA
:1052700088B208F0CFF905F0EFFB012840D1FFF725
:1052800095F8044654B126A10420FEF7ABFCFBF7C9
:10529000C7FE2149C868FFF78BFC04E006F0FAFD61
:1052A000074608F061F92146304606F063FF34BB3B
:1052B0001948007A012821D106F0ECFD1E4908703A
:1052C00008460078012806D140F6B8300CF004FEFC
:1052D000FEF7BAFC11E01848007858B908F092F8C7
:1052E000C4B21CB90020FEF7C3FA06E00220FEF7A4
:1052F000BFFA02E00220FEF7BBFA00E000BF07E0C1
:10530000304606F099FF03E02146304606F032FFB2
:105310000020BDE8F08100001802002030020020CB
:10532000435243333220636865636B206572726F4A
:10533000722121210D0A00002C02002070B50546C3
:105340000024D5F8346108F03FF93046FFF7EAF958
:105350000446304605F0AAFB24B12146284606F053
:1053600009FF0EE07068FFF723FC044624B12146D4
:10537000284606F0FFFE04E0FBF752FE284606F042
:105380005BFF002070BD70B505460E46002428194D
:105390000DF032FE3070641C28190DF00BFE708089
:1053A000A41C28190DF028FE3071641C28190DF07A
:1053B00023FE7071641C204670BD70B505460E4614
:1053C000002428190DF018FE3070641C204670BDB2
:1053D00070B505460E460024291930780EF0D9FC28
:1053E000641C204670BD70B505460E460024281981
:1053F0000DF002FE3070641C28190DF0FDFD707078
:10540000641C204670BD10B504462046FEF748FCDB
:10541000002010BD70B505460E46002428190DF079
:10542000EBFD3070641C28190DF0E6FD7070641CF3
:1054300028190DF0BFFD7080A41C204670BD10B56A
:1054400004462046FEF72CFC4FF0FF3010BD70B52F
:1054500005460E46002428190DF0CEFD3070641C60
:1054600028190DF0C9FD7070641C204670BD2DE92F
:10547000FC410546D5F8340130B92846FEF710FC4A
:105480004FF0FF30BDE8FC81D5F834412078522838
:1054900005D02846FEF704FC4FF0FF30F2E76078B5
:1054A000012802DC6078012805DA2846FEF7F8FBBF
:1054B0004FF0FF30E6E76846FCF7C8F90026002702
:1054C0000FE0F9B26278521ED0B26A46FCF748FA91
:1054D00006462EB12846FEF7E3FB4FF0FF30D1E73A
:1054E0007F1C082FEDDBFCF7B9F906462EB12846E4
:1054F000FEF7D6FB4FF0FF30C4E72846FEF7D7FB98
:105500000020BFE770B505460E46002428190DF0AF
:1055100073FD3070641C28190DF06EFD7070641CF2
:1055200028190DF047FD7080A41C204670BD2DE9A0
:10553000FC410546D5F8340130B92846FEF7B0FBEA
:105540004FF0FF30BDE8FC81D5F834412078522877
:1055500005D02846FEF7A4FB4FF0FF30F2E7607855
:10556000012802DC6078012805DA2846FEF798FB5E
:105570004FF0FF30E6E7002600276846FCF77CFE88
:1055800000BF0FE0F1B26278521ED0B26A46FCF75B
:1055900013FF07462FB12846FEF782FB4FF0FF307E
:1055A000D0E7761C082EEDDBFCF770FE07462FB126
:1055B0002846FEF775FB4FF0FF30C3E7FDF700FE0E
:1055C0002846FEF774FB0020BCE770B505460E4682
:1055D000002428190DF010FD3070641C28190DF0FE
:1055E0000BFD7070641C28190DF0E4FC7080A41C85
:1055F00028190DF001FD3071641C28190DF0FCFC18
:105600007071641C204670BD10B504462046FEF73C
:1056100047FB4FF0FF3010BD70B505460E46002425
:1056200028190DF0C7FC3080A41C28190DF0E4FCEB
:10563000B070641C28190DF0DFFCF070641C281990
:105640000DF0DAFC3071641C28190DF0D5FC707176
:10565000641C28190DF0D0FCB071641C28190DF0E1
:10566000CBFCF071641C28190DF0C6FC3072641C70
:1056700028190DF0C1FC7072641C204670BD0146F3
:10568000002008808870C870087148718871C871DE
:1056900008724872704770B505460E4600242919F5
:1056A00030880EF04EFBA41C2919B0780EF071FB67
:1056B000641C2919F0780EF06CFB641C29193079F0
:1056C0000EF067FB641C291970790EF062FB641CF4
:1056D0002919B0790EF05DFB641C2919F0790EF0E0
:1056E00058FB641C2919307A0EF053FB641C2919ED
:1056F000707A0EF04EFB641C204670BD70B50546F6
:105700000E46002428190DF077FC3070641C28190F
:105710000DF072FC7070641C28190DF06DFCB070F7
:10572000641C204670BD70B505460E46002429193C
:1057300030780EF02EFB641C291970780EF029FBCE
:10574000641C2919B0780EF024FB641C204670BD3F
:1057500070B505460E46002428190DF03CFC30605B
:10576000241D204670BD70B505460E46002429193B
:1057700030680EF0FAFA241D204670BD70B504465C
:10578000212020700120607000206080261D0025EF
:1057900006E018213046FAF7D0FD1836681CC5B26D
:1057A000082DF6DB002070BD2DE9FF4106460D46B1
:1057B0000024A046311928780EF0EBFA641C311948
:1057C00068780EF0E6FA641C311968880EF0B9FAB0
:1057D000A41C002700BF16E01DF8070001280CD00C
:1057E0001DF80720521E02EB42032A1D02EBC301E3
:1057F000301901F0B4FC804601E04FF0000804EBE2
:10580000080004B27F1C688869460CF037F9B8427A
:10581000E2DCA0B204B0BDE8F08170B505460E46EA
:10582000002428190DF0E8FB3070641C28190DF0D5
:10583000E3FB7070641C204670BD014600200870B8
:105840004870704770B505460E4600242919307817
:105850000EF09FFA641C291970780EF09AFA641CF5
:10586000204670BD10B50246002013181C880C801D
:105870009B788B70C01C13181C88A1F803409B7880
:105880004B71C01C13181C68C1F806405C68C1F855
:105890000A401B89CB810A3013181C680C615C68B4
:1058A0004C611C890C839B7A8B760B3010BD10B534
:1058B0000246002013180C881C808C789C70C01C39
:1058C0001318B1F803401C804C799C70C01C13184D
:1058D000D1F806401C60D1F80A405C60CC891C817C
:1058E0000A3013180C691C604C695C600C8B1C81BD
:1058F0008C7E9C720B3010BD0146002008804880D1
:105900008880C880704770B506460D46002431195E
:1059100028880EF016FAA41C288801210CF0C4F87F
:1059200030B13119B5F902000EF0F6F9A01C84B2BD
:10593000288802210CF0B8F830B13119B5F904000B
:105940000EF0EAF9A01C84B2288803210CF0ACF810
:1059500030B13119B5F906000EF0DEF9A01C84B2A1
:10596000288804210CF0A0F828B1311928890EF0FC
:10597000E8F9A01C84B2288805210CF095F828B11C
:10598000311968890EF0DDF9A01C84B2288806213F
:105990000CF08AF828B13119A8890EF0D2F9A01CB0
:1059A00084B2288807210CF07FF828B13119E889E2
:1059B0000EF0C7F9A01C84B2288808210CF074F8F6
:1059C00028B13119288A0EF0BCF9A01C84B22888AD
:1059D00009210CF069F828B13119688A0EF0B1F983
:1059E000A01C84B228880A210CF05EF828B1311975
:1059F000A88A0EF0A6F9A01C84B228880B210CF00E
:105A000053F828B13119E88A0EF09BF9A01C84B232
:105A1000204670BD70B506460C46002570190DF085
:105A2000DAFA20602D1DFFF7C3FA60607019A060DC
:105A3000A088284485B2284670BD70B505460E463C
:105A4000002428190DF0D8FA3070641C28190DF0C4
:105A5000D3FA7070641C28190DF0CEFAB070641C73
:105A600028190DF0C9FAF070641C28190DF0B3FA6A
:105A70007060241D28190DF0AEFAB060241D204678
:105A800070BD70B505460E460024291930780EF019
:105A900080F9641C204670BD70B505460E46002492
:105AA000291970780EF075F9641C28191421FAF779
:105AB00044FC32782819B11CFAF726FC143420462D
:105AC00070BD000010B501200EF024FA01490860F5
:105AD000002010BD3803002070B506460D46002496
