:020000040801F1
:1000000080AF00205D020108F5CC010865C401083D
:10001000EDCC0108454F010823E001080000000075
:100020000000000000000000000000009D01010829
:100030008551010800000000F901010845D40108BC
:1000400077020108770201087702010877020108A8
:100050007702010877020108770201087702010898
:10006000770201087702010877020108994F010819
:10007000A94F0108B94F010877020108770201086A
:10008000C94F0108770201087702010877020108C9
:100090004D4F0108770201087702010887510108D6
:1000A0007702010851D5010877020108770201089B
:1000B00061D501087702010877020108770201087B
:1000C0007702010877020108770201087702010828
:1000D000770201089DDD0108B1DD0108C5DD0108D9
:1000E0007702010877020108770201087702010808
:1000F00077020108770201087702010877020108F8
:1001000077020108770201087702010877020108E7
:10011000C1D60108D5D60108770201087702010887
:1001200077020108D94F0108E94F01087702010859
:1001300077020108770201087702010877020108B7
:1001400077020108770201087702010877020108A7
:10015000770201087702010877020108D9DD01085A
:100160007702010877020108770201087702010887
:1001700077020108770201087702010800000000F9
:100180007702010877020108DFF80CD000F028FDA3
:1001900000480047A53E020880AF00202C4B19689C
:1001A0000868B0E8F04F80F30988BFF36F8F4FF015
:1001B000000080F3118870470000000008480068C4
:1001C000006880F308884FF0000080F3148862B65E
:1001D00061B6BFF34F8FBFF36F8F00DF00BF00BF6B
:1001E00008ED00E0DFF80C00016841F470010160E7
:1001F000704700BF88ED00E0EFF30980BFF36F8F19
:10020000134B1A681EF0100F08BF20ED108A20E96A
:10021000F04F106009B44FF0500080F31188BFF325
:100220004F8FBFF36F8F16F0F1FA4FF0000080F39D
:10023000118809BC19680868B0E8F04F1EF0100F6B
:1002400008BFB0EC108A80F30988BFF36F8F704746
:1002500088050020EFF305807047000006488047BE
:1002600006480047FEE7FEE7FEE7FEE7FEE7FEE79B
:10027000FEE7FEE7FEE7FEE731D501088901010848
:100280002DE9F05F0546002092469B4688460646CB
:10029000814640241BE0284641464746224600F05E
:1002A00084FB53465A46C01A914110D31146184652
:1002B000224600F06BFB2D1A67EB01084F462246E1
:1002C0000120002100F062FB17EB00094E41201EC7
:1002D000A4F10104DFDC484631462A464346BDE826
:1002E000F09F000038B5D0E90221491E01EB410121
:1002F00002EBC1014268C1EB011102EB810102680E
:10030000C1EB011102EB8102D0E9043101EB4101A3
:1003100003EB81013023A1F5527191FBF3F4174DEA
:100320006C4302EBC41291FBF3F403FB1411009233
:100330001A2902DB124B1A4400920C2291FBF2F3B1
:10034000104C6343009C04EBC313009391FBF2F346
:1003500002FB13110C4A08E0491E40F2A324535C2F
:100360006343009C04EBC31300930029F4DC0146B3
:10037000684600F043FB009838BD00003F0C0F00BA
:100380008051010067C20300B28B020840EA0103FA
:100390009B0703D009E008C9121F08C0042AFAD23B
:1003A00003E011F8013B00F8013B521EF9D27047FF
:1003B000D2B201E000F8012B491EFBD270470022A7
:1003C000F6E710B513460A4604461946FFF7F0FF54
:1003D000204610BD10B5044604E00B7800F8013B40
:1003E00003B1491C521EF8D2204610BD421C10F821
:1003F000011B0029FBD1801A70477047002070470D
:10040000592D3532305F4150505F56332E302E30EB
:1004100000000000000000000000000000000000DC
:1004200000000000000000000000000000000000CC
:1004300000000000000000000000000000000000BC
:100440004A756E20313520323032332D30393A330F
:10045000383A3434000000000000000000000000C2
:10046000000000000000000000000000000000008C
:10047000000000000000000000000000000000007C
:1004800010B5002200E0521C835C8C5CA34201D1B9
:10049000002BF8D1D8B2E1B2401A10BD30B50446F5
:1004A0000020034600E05B1C934203D2E05CCD5C7D
:1004B000401BF8D030BD034611F8012B00F8012B8A
:1004C000002AF9D11846704730B50546002003468A
:1004D00000E05B1C934205D2EC5CC85C201A01D1A1
:1004E000002CF6D130BD2DE9FE4F804681EA030095
:1004F000C00F0C46009021F0004123F00045B8EBFE
:100500000200A94105D24046214690461C460B46B2
:10051000024623F00040104347D0270DC7F30A00DE
:10052000C3F30A510290401A019040286BDAC3F3DA
:10053000130040F4801B0098924620B10023D2EBB8
:10054000030A63EB0B0B01985946C0F14002504679
:1005500000F01CFA06460D4650465946019A00F036
:1005600034FA10EB08006141002487EA115284EA52
:10057000E7731A4340D0009A62B3019A012A4FEA06
:10058000075215DC001B61EB02014FF0004202EA4A
:100590000752CDE90042001C41F5801132462B463E
:1005A00000F0B8FA03B0BDE8F08F40462146F9E705
:1005B000001B61EB0201001C41F5801300185B4138
:1005C0002018A2F5001747EB030140EAD570B619D1
:1005D0006D4111E06D084FEA360645EAC0754FEAF5
:1005E0000752001B61EB0201001C41F58011490814
:1005F0004FEA30000019514132462B4603B0BDE8A6
:10060000F04F00F078BA0098012240000023D0EBB0
:10061000020263EBE073009821464FEAE074B8EB06
:10062000000061EB0401E9E783F000435BE781F040
:10063000004158E72DE9FE4F81EA030404F000442D
:1006400021F0004100944FF0000B23F0004350EAEA
:1006500001045ED052EA03045BD0C3F30A54C1F331
:100660000A552C44A4F2F3340194A0FB0254C1F3C4
:10067000130141F48011C3F3130343F4801301FB0E
:10068000024400FB034E840A970A44EA815447EA75
:100690008357A4FB076802958D0A05FB07854FEA7F
:1006A000932C04FB0C542705029D4FEA065847EA99
:1006B0001637B5EB08056EEB070C870E920E47EA6E
:1006C000811742EA8312A7FB0201B6EB0B0164EB30
:1006D00000042B0D43EA0C335E1844EB1C50DA4641
:1006E0005146E7FB0201C5F313044FEA0B3343EA1B
:1006F00014534FEA0432019C43EA0603A4F10C04AC
:100700000294009CCDE900B400F004FA03B0BDE807
:10071000F08F00200146F9E72DE9F04D81EA03044E
:1007200004F0004B21F0004514464FF0000A23F07E
:10073000004150EA050220D054EA01021DD0C5F361
:100740000A570246C5F31303C1F31300C1F30A5657
:1007500040F4801543F48013A7EB0608101BD6461F
:1007600008F2FD3873EB050002D308F1010801E03F
:1007700092185B41B8F1000F03DA00200146BDE892
:10078000F08D00204FF48011064684460EE0171BC2
:1007900073EB050705D3121B63EB050306434CEA15
:1007A000010C49084FEA300092185B4150EA0107FA
:1007B000EDD152EA030012D082EA040083EA050177
:1007C000084305D0101BAB4106D20122002306E0EE
:1007D00000224FF0004302E06FF0010253101AEBC9
:1007E00006004CEB085110EB0A0041EB0B01BDE891
:1007F000F04D00F080B90EB5C10F80EAE0700844FA
:10080000CA07002140F233438DE80E000A460B462A
:1008100000F080F903B000BD0EB540F23341029103
:100820000021CDE900110A460B4600F073F903B030
:1008300000BD70B5C1F30A5201F000450024C1F3B8
:10084000130140F2FF3341F480119A4201DA002093
:1008500070BD40F233439A42A2F2334203DC52426B
:1008600000F0A3F800E090402C43F1D0404270BD6E
:10087000C1F30A5210B5C1F3130140F2FF3341F442
:1008800080119A4201DA002010BD40F233439A42AF
:10089000A2F2334203DC524200F087F810BD9040D0
:1008A00010BD00F0004230F000400AD0C10D01F54B
:1008B0006071C0F3160042EA0151C20840071143BB
:1008C000704700200146704730B5041E71F10004E6
:1008D00004DB4FF00044404264EB0101141E73F14D
:1008E000000405DB1C464FF00043524263EB040357
:1008F0008B4208BF824230BD30B5041E71F1000446
:1009000004DB4FF00044404264EB0101141E73F11C
:10091000000405DB1C464FF00043524263EB040326
:10092000994208BF904230BD01F0004330B421F03D
:10093000004150EA010206D00A0DA2F56072C1F32F
:100940001301002A02DC30BC00207047440F44EA47
:10095000C104C100E01830BC00EBC25000F094B8F4
:1009600030B50B46014600202022012409E021FA7F
:1009700002F59D4205D303FA02F5491B04FA02F57C
:100980002844151EA2F10102F1DC30BD202A04DB4F
:10099000203A00FA02F1002070479140C2F1200392
:1009A00020FA03F3194390407047202A04DB203AD1
:1009B00021FA02F00021704721FA02F3D040C2F17F
:1009C00020029140084319467047202A06DBCB17C6
:1009D000203A41FA02F043EAE07306E041FA02F3FA
:1009E000D040C2F1200291400843194670470000F0
:1009F000014900F003B80000544F002010B5006812
:100A00003C22B0FBF2F302FB1303B0FBF2F00B60ED
:100A1000B0FBF2F302FB1303B0FBF2F018224B60C1
:100A2000B0FBF2F302FB1303B0FBF2F0021D8B608C
:100A30000723B2FBF3F403FB1422800040F2B5530A
:100A400000F66C308A61B0FBF3F2B0FBF3F403FB09
:100A50001400443280084A61C8613B2802D39207DF
:100A600000D0401C0022074C13460A61E25C82421F
:100A700003D8801A5B1C0B61F8E7401CC86008466D
:100A800010BD0000BE8B02080029A8BF7047401CA3
:100A9000490008BF20F00100704710B4B0FA80FC94
:100AA00000FA0CF050EA010404BF10BC704749B1D1
:100AB000CCF1200421FA04F411FA0CF118BF012141
:100AC00021430843A3EB0C01CB1D4FEA00614FEA21
:100AD000102042BF002010BC704700EBC3501044F0
:100AE0000029A4BF10BC7047401C490008BF20F07B
:100AF000010010BC704710B5141E73F1000408DA31
:100B0000401C41F1000192185B411A4301D120F0D1
:100B1000010010BD2DE9F04D92469B4611B1B1FA8E
:100B200081F202E0B0FA80F220329046FFF72EFF09
:100B300004460F4640EA0A0041EA0B0153465A4672
:100B4000084313D0114653EA010019D0C8F14002FE
:100B50005046FFF72AFF05460E4650465946424684
:100B6000FFF714FF084305D0012004E02046394672
:100B7000BDE8F08D0020054346EAE0762C4337437C
:100B80000A986305E40AA0EB08000022FD0A44EA83
:100B900047540A3002D500200146E9E70105101943
:100BA0006941DDE9084500196941BDE8F04DA2E75A
:100BB000C1F30A52C1F3130140F2FF3341F4801133
:100BC0009A4202DA00200146704740F233439A42CB
:100BD000A2F2334202DC5242FFF7E7BEFFF7D6BE75
:100BE000064C074D06E0E06840F0010394E807007A
:100BF00098471034AC42F6D3FFF7CAFA808D02084A
:100C0000C08D020870B58C1810F8015B15F0070351
:100C100001D110F8013B2A1106D110F8012B03E095
:100C200010F8016B01F8016B5B1EF9D12B0705D49D
:100C30000023521E0DD401F8013BFAE710F8013BE6
:100C4000CB1A921C03E013F8015B01F8015B521E02
:100C5000F9D5A142D8D3002070BD70B504460D4629
:100C60000026012C01DA052D02DB4FF0FF3070BDAC
:100C70002946204615F0BEF906463046F7E730B55E
:100C800004460D46012C01DA052D02DB4FF0FF3042
:100C900030BD2946204615F0C9F9F9E770B504467C
:100CA0000D460026012C01DA052D02DB4FF0FF3046
:100CB00070BD2946204615F01DFA06463046F7E776
:100CC00030B504460D46012C01DA052D02DB4FF04C
:100CD000FF3030BD2946204615F0DCF9F9E710B5A4
:100CE0000446204602F0DEF9002010BD70B504462F
:100CF0000D461646012C01DA052D02DB4FF0FF30C0
:100D000070BD32462946204602F0EAF90020F7E796
:100D10007FB504460E4615460094E8B28DF80400EF
:100D20002A4631460DF10500FFF730FB0023102263
:100D300069460248006816F07EFD7FBD90010020E4
:100D400010B500F007F811214FF480700BF0C2FBD2
:100D5000002010BD002003490880FF20887000207B
:100D6000704700007801002086B00024651E002036
:100D7000009001906E460DF10D0700BF002400BFEA
:100D8000C4F1050130194FF47A7210F09DFE04444D
:100D9000052C00DA00E000BF052CF1DB9DF8040013
:100DA0008DF80C00684614F06FFB02909DF80C0063
:100DB00000280ADD9DF80C104FF47A72384610F0C6
:100DC00083FE0446002C00DAD8E702A80BF04EFBA5
:100DD00005461DB9012004490870CFE74FF47A7029
:100DE00013F0F8F9CAE700009401002010B50024C0
:100DF000FFF7B0FF11214FF4E0400BF06BFB4FF415
:100E0000E0400BF07BFF044610BD000070B50546C6
:100E10000C46012D01DA052C02DB4FF0FF3070BDCE
:100E20000D4890F90000B0F1FF3F02D14FF0FF30C4
:100E3000F5E70026204615F057F9FFF78BFF112143
:100E40004FF4C0400BF046FB4FF4C0400BF056FF90
:100E500006463046E3E70000940100202DE9F0410A
:100E600004460D461646012C01DA052D03DB4FF032
:100E7000FF30BDE8F081134890F90000B0F1FF3F6A
:100E800002D14FF0FF30F4E732462946204615F0F4
:100E9000E9F8FFF75FFF11214FF4A0400BF01AFBB8
:100EA0004FF4A0400BF02AFF50B103F04DF9074674
:100EB00000230222194616F00BFE4FF0FF30D8E750
:100EC0000020D6E79401002030B504460D462A469E
:100ED0002146002015F0B8F800222146104615F0F2
:100EE00097F800222146104615F024F92A4621469B
:100EF000002015F0C1F800222146104615F0E6F852
:100F000030BD000003F072FF00BF064800680BF020
:100F100031FB04480068401C02490860642013F05B
:100F200059F9F2E79801002001460848405C00F0BA
:100F3000010038B10548405C00F0FE00034A5054FF
:100F4000002070474FF0FF30FBE700007F010020DA
:100F500001460020087048807047000070B50026E8
:100F600000241BE0002515E00E4901EB441101EBC4
:100F70008500FFF7EDFF0B4800EB441000EB850206
:100F80002946204600F010F806460EB1304670BDE6
:100F9000681CC5B2082DE7DB601CC4B2012CE1DB84
:100FA0000020F4E726060020F0B589B004460D467F
:100FB0001646202101A8FFF702FA012C01DC082DBA
:100FC00003DD4FF0FF3009B0F0BD4FF49C7101EB31
:100FD0000411481901A912F0ADFD07460FB13846BA
:100FE000F1E701A814F05AFA30700DF1050014F081
:100FF00033FA70800020E6E770B5002600241BE07D
:10100000002515E00E4901EB441101EB8500FFF7C7
:101010009FFF0B4800EB441000EB85022946204659
:1010200000F010F806460EB1304670BD681CC5B21F
:10103000082DE7DB601CC4B2012CE1DB0020F4E7E3
:101040002606002070B588B004460D4616462021BD
:101050006846FFF7B4F9012C01DC082D03DD4FF0E1
:10106000FF3008B070BD314668460DF0BDFE4FF44C
:101070009C7101EB04114819694612F095FDF0E7E7
:101080002DE9F04389B004460E4615461F46DDF8AB
:101090004090202101A8FFF792F9012C01DC082ED5
:1010A00004DD4FF0FF3009B0BDE8F083294601A808
:1010B0000DF09AFE01A9384615F00DFE0DF105015F
:1010C000484615F0E0FD4FF49C7101EB04118819BE
:1010D00001A912F069FD8046B8F1000F01D0404629
:1010E000E1E72F70A5F802900020DCE70146002020
:1010F0000870487070470146002008707047000073
:1011000010B500240548FFF7F6FF044800F008F882
:1011100004460CB1204610BD0020FCE7070000206B
:1011200030B589B00446202101A8FFF748F901A98C
:101130000A2012F0FFFC054615B1284609B030BD63
:1011400001A814F0ABF920700020F7E710B50024D7
:101150000548FFF7D0FF044800F008F804460CB13A
:10116000204610BD0020FCE70700002010B588B025
:10117000044620216846FFF722F9214668460DF013
:1011800087FE69460A2012F00FFD08B010BD00B5B9
:10119000024601201070501C01F034FB002000BDFD
:1011A00010B500240548FFF7F2FF044800F008F8E6
:1011B00004460CB1204610BD0020FCE700000020D2
:1011C00030B589B00446202101A8FFF7F8F801A93D
:1011D000092012F0AFFC054615B1284609B030BD14
:1011E00001A814F05BF92070611C0DF1050011F0ED
:1011F00002FC0020F2E7000010B500240548FFF7CC
:10120000C6FF044800F008F804460CB1204610BDA3
:101210000020FCE70000002010B588B00446202123
:101220006846FFF7CCF8214668460DF039FE69465E
:10123000092012F0B9FC08B010BD00000148006898
:1012400070470000F405002010B5002412F04AFC9D
:101250000446224658A1052003F07CFA0CB1204632
:1012600010BD01F055FA044622465AA1052003F0AC
:1012700071FA0CB12046F3E7FFF792FF04462246CD
:101280005AA1052003F066FA0CB12046E8E7FFF703
:1012900037FF044622465CA1052003F05BFA0CB13F
:1012A0002046DDE700F052FF044622465EA10520FD
:1012B00003F050FA0CB12046D2E700F0CBFF044611
:1012C000224660A1052003F045FA0CB12046C7E78D
:1012D00001F058F90446224661A1052003F03AFACC
:1012E0000CB12046BCE7FFF739FE0446224662A156
:1012F000052003F02FFA0CB12046B1E700F0DEFB29
:101300000446224663A1052003F024FA0CB12046CE
:10131000A6E703F0DBFD00F0A9FC0446224665A128
:10132000052003F017FA0CB1204699E703F0CEFD33
:1013300001F004F80446224663A1052003F00AFAEE
:101340000CB120468CE701F087FA0446224663A1DF
:10135000052003F0FFF90CB1204681E701F05CFBAA
:101360000446224664A1052003F0F4F90CB120469E
:1013700076E700F0B5FD0446224664A1052003F09F
:10138000E9F90CB120466BE701F01EF8044622464D
:1013900065A1052003F0DEF90CB1204660E700F0FE
:1013A000C9FA0446224669A1052003F0D3F90CB11D
:1013B000204655E7002053E7656570726F6D5F69E1
:1013C000642072656164207263203D2025640D0AEB
:1013D0000000000073797374656D206C6F61642088
:1013E00072633A2025640D0A000000006465766986
:1013F00063655F656E61626C65206C6F616420720D
:10140000633A2025640D0A006465766963655F634D
:101410006F6E6E656374206C6F61642072633A2036
:1014200025640D0A0000000070726F62655F656ED2
:1014300061626C65206C6F61642072633A20256480
:101440000D0A000070756D705F73746174757320A0
:101450006C6F61642072633A2025640D0A000000FD
:1014600073656E736F72206C6F61642072633A20D3
:1014700025640D0A00000000636F6D70656E736176
:1014800074696F6E206C6F61642072633A2025640A
:101490000D0A0000696E64696361746F725F616C4C
:1014A000657274206C6F61642072633A2025640D4C
:1014B0000A0000006C696D6974206C6F61642072B1
:1014C000633A2025640D0A0072656C6179206C6FA7
:1014D00061642072633A2025640D0A0074696D65A9
:1014E000735F656E61626C65206C6F61642072630E
:1014F0003A2025640D0A000074696D6573206C6FD5
:1015000061642072633A2025640D0A006D616E7576
:10151000616C5F72656C6179206C6F6164207263CD
:101520003A2025640D0A000072656C617920706FA5
:1015300077657220636F6E666967206C6F616420E7
:1015400072633A2025640D0A000000006669726D1E
:101550007761726520696E666F206C6F61642072BE
:10156000633A2025640D0A0010B50024FFF744FEFD
:10157000044622464DA1052003F0ECF80CB12046AC
:1015800010BDFFF7E3FD0446224650A1052003F0FD
:10159000E1F80CB12046F3E700F01EFE04462246B7
:1015A00053A1052003F0D6F80CB12046E8E700F07F
:1015B0008BFE0446224656A1052003F0CBF80CB161
:1015C0002046DDE701F046F80446224658A10520F2
:1015D00003F0C0F80CB12046D2E7FFF70DFD04463A
:1015E00022465AA1052003F0B5F80CB12046C7E702
:1015F00000F0C0FA044622465CA1052003F0AAF8D8
:101600000CB12046BCE703F061FC00F0B9FB0446D6
:1016100022465FA1052003F09DF80CB12046AFE7FC
:1016200003F054FC00F06EFF044622465EA1052044
:1016300003F090F80CB12046A2E701F06BF90446E4
:1016400022465FA1052003F085F80CB1204697E7FC
:1016500001F060FA0446224661A1052003F07AF801
:101660000CB120468CE700F0A1FC0446224662A1A2
:10167000052003F06FF80CB1204681E700F0E0FE92
:101680000446224664A1052003F064F80CB120460C
:1016900076E700F0A5F90446224666A1052003F08E
:1016A00059F80CB120466BE7002069E7646576695C
:1016B00063655F656E61626C65207265636F7665F8
:1016C00072792072633A2025640D0A006465766998
:1016D00063655F636F6E6E656374207265636F76BA
:1016E0006572792072633A2025640D0A00000000BB
:1016F00070726F62655F656E61626C6520726563B2
:101700006F766572792072633A2025640D0A0000B5
:1017100070756D705F737461747573207265636F3B
:10172000766572792072633A2025640D0A00000004
:1017300073656E736F72207265636F766572792060
:1017400072633A2025640D0A00000000636F6D701B
:10175000656E736174696F6E207265636F76657212
:10176000792072633A2025640D0A0000696E64696D
:101770006361746F725F616C657274207265636F10
:10178000766572792072633A2025640D0A000000A4
:101790006C696D6974207265636F76657279207209
:1017A000633A2025640D0A0072656C6179207265C8
:1017B000636F766572792072633A2025640D0A00A2
:1017C00074696D65735F656E61626C6520726563D7
:1017D0006F766572792072633A2025640D0A0000E5
:1017E00074696D6573207265636F766572792072B6
:1017F000633A2025640D0A006D616E75616C5F723D
:10180000656C6179207265636F76657279207263A9
:101810003A2025640D0A000072656C617920706FB2
:1018200077657220636F6E6669672072633A202560
:10183000640D0A006669726D7761726520696E6673
:101840006F207265636F766572792072633A202526
:10185000640D0A0010B5002400200549087100F04D
:10186000F3F804460CB1204610BD0020FCE7000050
:101870006409002010B50024002010490860087198
:1018800000210E4841718171C17101200B4908721C
:1018900001210A48417200218172C1724FF4003166
:1018A000C160611E01610146002000F0CDF80446D0
:1018B0000CB1204610BD0020FCE7000064090020A8
:1018C00010B50024002010490860087100210E485E
:1018D00041718171C17101200B49087201210A48CF
:1018E000417200218172C1724FF40031C160611EEA
:1018F00001610146012000F0A7F804460CB1204622
:1019000010BD0020FCE700007809002010B5044657
:10191000002020600649087100210548417181714D
:10192000C17104F108000DF01CFC002010BD000086
:101930007809002010B500240B48FFF7E7FF0B489B
:10194000FFF7E4FF0849002000F012F804460CB14C
:10195000204610BD0549012000F00AF804460CB1EC
:101960002046F6E70020F4E764090020780900200B
:10197000F0B589B005460C460026202101A8FEF7E7
:101980001EFD002715B940F2FE7701E040F2FF7717
:1019900001A9384612F0CEF8064616B1304609B015
:1019A000F0BD01A813F06AFD206002A813F076FDD7
:1019B00020710DF1090013F071FD60710DF10A0045
:1019C00013F06CFDA0710DF10B0013F067FDE071D9
:1019D00004F1080101A80DF0A1FB0020DFE70000E1
:1019E00010B5002400201649086008710021144831
:1019F00041718171C171491E01614FF40031C160B3
:101A000001200F49087201210D48417200218172A5
:101A1000C172142201460B48FEF7B8FC09490020A8
:101A200000F012F804460CB1204610BD0449012014
:101A300000F00AF804460CB12046F6E70020F4E76F
:101A4000780900206409002070B588B005460C466E
:101A500020216846FEF7B3FC002615B940F2FE7659
:101A600001E040F2FF766946206815F021F92079FF
:101A700001A915F030F960790DF1050115F02BF988
:101A8000A0790DF1060115F026F9E0790DF10701B5
:101A900015F021F904F1080168460DF06BFB694669
:101AA000304612F081F808B070BD01460020087081
:101AB000487048808880C8807047000070B5002654
:101AC00000241BE0002515E00E4901EB841101EB19
:101AD000C500FFF7EAFF0B4800EB841000EBC502DE
:101AE0002946204600F010F806460EB1304670BD7B
:101AF000681CC5B2082DE7DB601CC4B2012CE1DB19
:101B00000020F4E746060020F0B589B005460E46F1
:101B10001446202101A8FEF752FC012D01DC082EFD
:101B200003DD4FF0FF3009B0F0BD4FF4E07101EB81
:101B30000511881901A911F0FDFF07460FB13846BC
:101B4000F1E701A813F0AAFC20700DF1050013F0D5
:101B5000A5FC60700DF1060013F07EFC608002A809
:101B600013F07AFCA0800DF10A0013F075FCE08000
:101B70000020D8E770B5002600241BE0002515E002
:101B80000E4901EB841101EBC500FFF78EFF0B48F6
:101B900000EB841000EBC5022946204600F010F847
:101BA00006460EB1304670BD681CC5B2082DE7DB95
:101BB000601CC4B2012CE1DB0020F4E746060020E3
:101BC00070B588B004460D46164620216846FEF7DB
:101BD000F6FB012C01DC082D03DD4FF0FF3008B0CF
:101BE00070BD314668460DF06FFD4FF4E07101EBBA
:101BF00004114819694611F0D7FFF0E710B50F48F6
:101C000000F073FD0A2008F0F1FA03F05FF90DF01F
:101C1000D4FA03F05BF910F0B5F903F057F9FFF7C8
:101C200013FB044603F052F9224605A1042002F0FA
:101C300091FD0CB102F0C0FD002010BDF4050020A4
:101C4000636F6E66696720696E69742072633A20FB
:101C500025640D0A0000000001460020087048704D
:101C60008870888088710881488170472DE9F0412B
:101C70000027002433E000252DE0002627E004EBB8
:101C80004401194A02EBC11105EB450201EB0211B7
:101C900006EB460201EB8200FFF7DEFF04EB440097
:101CA000114901EBC01005EB450100EB011006EBFB
:101CB000460100EB810332462946204600F016F823
:101CC000074617B13846BDE8F081701CC6B2042E35
:101CD000D5DB681CC5B2082DCFDB601CC4B2012C5B
:101CE000C9DB0020EFE70000860600202DE9F04167
:101CF00088B006460D4617461C4620216846FEF76A
:101D00005EFB012E03DC082D01DC042F04DD4FF007
:101D1000FF3008B0BDE8F0814FF4307202EB86115D
:101D200001EB8501394488B2694611F003FF804612
:101D3000B8F1000F01D04046EBE7684613F0AEFB68
:101D400020700DF1010013F0A9FB60700DF102008D
:101D500013F0A4FBA0700DF1030013F07DFBA08035
:101D60000DF1050013F09AFBA0710DF1060013F0C0
:101D700073FB208102A813F06FFB60810020C8E78D
:101D80002DE9F0410027002433E000252DE0002656
:101D900027E004EB4401194A02EBC11105EB4502AF
:101DA00001EB021106EB460201EB8200FFF754FF44
:101DB00004EB4400114901EBC01005EB450100EBB9
:101DC000011006EB460100EB81033246294620460E
:101DD00000F016F8074617B13846BDE8F081701CD0
:101DE000C6B2042ED5DB681CC5B2082DCFDB601C43
:101DF000C4B2012CC9DB0020EFE7000086060020FA
:101E0000F0B589B005460C4616461F46202101A8AC
:101E1000FEF7D5FA012D03DC082C01DC042E03DDCE
:101E20004FF0FF3009B0F0BD394601A80DF0C4FDF8
:101E30004FF4307202EB851101EB8401314488B21A
:101E400001A911F0B1FEEDE72DE9F04788B0064693
:101E50000C4617461D46DDE9109A20216846FEF71C
:101E6000AEFA012E03DC082C01DC042F04DD4FF058
:101E7000FF3008B0BDE8F087294668460DF09CFDAC
:101E80006946484614F027FF0DF10101504614F051
:101E900022FF4FF4307202EB861101EB84013944CA
:101EA00088B2694611F080FE8046B8F1000F01D07B
:101EB0004046DEE785F8009085F801A00020D8E7CD
:101EC00000B502460020107050709070D01C00F0D9
:101ED00099FC02F1090000F095FC002000BD000013
:101EE00070B50026002423E000251DE0C4EB04119A
:101EF00001EB8101104A1144C5EB05128818FFF768
:101F0000DFFFC4EB041000EB80000B490844C5EB75
:101F1000051142182946204600F010F806460EB179
:101F2000304670BD681CC5B2052DDFDB601CC4B235
:101F3000012CD9DB0020F4E716090020F0B589B0A8
:101F400005460E461446202101A8FEF738FA012D59
:101F500001DC052E03DD4FF0FF3009B0F0BD4FF47A
:101F6000C56101EB0511881901A911F0E3FD0746D0
:101F70000FB13846F1E701A813F090FA20700DF187
:101F8000050013F08BFA60700DF1060013F086FA6D
:101F9000A070E11C0DF1070010F02DFD04F1090106
:101FA0000DF10D0010F027FD0020D6E770B50026DA
:101FB000002423E000251DE0C4EB041101EB8101A6
:101FC000104A1144C5EB05128818FFF779FFC4EBDE
:101FD000041000EB80000B490844C5EB05114218C2
:101FE0002946204600F010F806460EB1304670BD76
:101FF000681CC5B2052DDFDB601CC4B2012CD9DB27
:102000000020F4E71609002070B588B004460D469C
:10201000164620216846FEF7D2F9012C01DC052D79
:1020200003DD4FF0FF3008B070BD314668460DF05B
:10203000E4FC4FF4C56101EB04114819694611F045
:10204000B3FDF0E72DE9F04188B004460D46164691
:102050001F4620216846FEF7B2F9012C01DC052D50
:1020600004DD4FF0FF3008B0BDE8F081314668462E
:102070000DF0C3FC0DF10101384614F02CFE4FF4B5
:10208000C56101EB04114819694611F08DFD8046C8
:10209000B8F1000F01D04046E5E777700020E2E795
:1020A0002DE9F04788B005460E4614461F46DDE987
:1020B000109A20216846FEF782F9012D01DC052ED9
:1020C00004DD4FF0FF3008B0BDE8F08721466846D8
:1020D0000DF093FC6946384614F0FDFD0DF1010149
:1020E000484614F0F8FD0DF10201504614F0F3FDDE
:1020F00012A90DF1030010F09BFC14A90DF10900C9
:1021000010F096FC4FF4C56101EB05118819694682
:1021100011F04AFD8046B8F1000F01D04046D2E7E9
:10212000277084F8019084F802A012A9E01C10F036
:1021300055FC14A904F1090010F050FC0020C2E77E
:1021400001460020087048708870704770B50025FF
:10215000002412E004EB44010A4A8818FFF7F0FF5C
:1021600004EB4400074A8118204600F00DF80546AC
:102170000DB1284670BD601CC4B2012CEADB002002
:10218000F8E700000800002070B588B005460C464E
:1021900020216846FEF713F9012D03DD4FF0FF30D3
:1021A00008B070BD05F12000694611F0C3FC064679
:1021B0000EB13046F4E7684613F070F920700DF167
:1021C000010013F06BF960700DF1020013F066F975
:1021D000A0700020E4E7000070B50025002412E0A4
:1021E00004EB44010A4A8818FFF7AAFF04EB4400F5
:1021F000074A8118204600F00DF805460DB1284623
:1022000070BD601CC4B2012CEADB0020F8E70000BE
:102210000800002030B589B004460D46202101A8F1
:10222000FEF7CDF8012C03DD4FF0FF3009B030BDD3
:10223000294601A80FF077FB04F1200001A911F055
:10224000B3FCF3E710B5044610212046FEF7B7F8BB
:10225000002010BD70B50025002410E00A4901EBF4
:102260000410FFF7EFFF084800EB0411204600F0D0
:102270000DF805460DB1284670BD601CC4B2012C96
:10228000ECDB0020F8E700000406002070B588B001
:1022900004460E4620216846FEF791F8012C03DD26
:1022A0004FF0FF3008B070BD04F12800694611F00E
:1022B00041FC05460DB12846F4E710226946304638
:1022C000FEF764F80020EDE770B50025002410E06B
:1022D0000A4901EB0410FFF7B5FF084800EB0411B1
:1022E000204600F00DF805460DB1284670BD601C73
:1022F000C4B2012CECDB0020F8E70000040600204B
:1023000030B589B004460D46202101A8FEF757F8E4
:10231000012C03DD4FF0FF3009B030BD294601A884
:102320000FF042FB04F1280001A911F03DFCF3E796
:1023300001460020087048708870704770B500250D
:10234000002412E004EB44010A4A8818FFF7F0FF6A
:1023500004EB4400074A8118204600F0ACF805461B
:102360000DB1284670BD601CC4B2012CEADB002010
:10237000F8E700000B00002070B505460C462078F9
:1023800001280AD02146284600F009F821462846AF
:1023900000F074F84FF0FF3070BD00BFFCE702465C
:1023A00001200870042A04D0032048701E20887081
:1023B00003E0012048700A2088700020C87008716E
:1023C000487188717047000070B500250026002410
:1023D00011E0C4EBC4000A4946183146204600F01B
:1023E00011F8054631462046FFF7C6FF0DB12846D5
:1023F00070BD601CC4B2052CEBDB0020F8E70000C8
:102400008C09002070B588B004460E46202168462D
:10241000FDF7D5FF052C03DD4FF0FF3008B070BD90
:1024200004F5D660694611F085FB05460DB12846D6
:10243000F4E7314668460FF0AFFD0020EEE70000FC
:1024400070B500250026002411E0C4EBC4000A4941
:10245000461831462046FFF7A2FF3146204600F0DD
:102460000DF805460DB1284670BD601CC4B2052CA0
:10247000EBDB0020F8E700008C09002070B588B085
:1024800004460E4620216846FDF799FF052C03DD22
:102490004FF0FF3008B070BD314668460FF09DFD2B
:1024A00004F5D660694611F07FFB05460DB128465C
:1024B000F0E70020EEE770B588B005460C46202115
:1024C0006846FDF77CFF012D03DD4FF0FF3008B0BB
:1024D00070BD05F5BB60694611F02CFB06460EB1D8
:1024E0003046F4E7684612F0D9FF20700DF1010084
:1024F00012F0D4FF60700DF1020012F0CFFFA07057
:102500000020E4E770B50025002412E004EB44014C
:102510000A4A8818FFF70CFF04EB4400074A8118A9
:10252000204600F00DF805460DB1284670BD601C30
:10253000C4B2012CEADB0020F8E700000B00002009
:1025400030B589B004460D46202101A8FDF737FFBC
:10255000012C03DD4FF0FF3009B030BD294601A842
:102560000FF05CFD04F5BB6001A911F01DFBF3E762
:1025700001460020087048708870C8700871487162
:102580007047000070B50026002423E000251DE000
:1025900004EBC401114A02EB410105EB450201EBDA
:1025A0004200FFF7E5FF04EBC4000C4901EB4000DB
:1025B00005EB450100EB41022946204600F010F8EA
:1025C00006460EB1304670BD681CC5B2032DDFDB78
:1025D000601CC4B2012CD9DB0020F4E714060020F3
:1025E000F0B589B005460E461446202101A8FDF736
:1025F000E6FE012D01DC032E03DD4FF0FF3009B0B4
:10260000F0BD382101EB0511881901A911F092FAEA
:1026100007460FB13846F2E701A812F03FFF2070DD
:102620000DF1050012F03AFF60700DF1060012F096
:1026300035FFA0700DF1070012F030FFE07002A826
:1026400012F02CFF20710DF1090012F027FF6071CC
:102650000020D4E770B50026002423E000251DE00B
:1026600004EBC401114A02EB410105EB450201EB09
:102670004200FFF77DFF04EBC4000C4901EB400072
:1026800005EB450100EB41022946204600F010F819
:1026900006460EB1304670BD681CC5B2032DDFDBA7
:1026A000601CC4B2012CD9DB0020F4E71406002022
:1026B00070B588B004460D46164620216846FDF7E1
:1026C0007EFE012C01DC032D03DD4FF0FF3008B04E
:1026D00070BD314668460FF07FFF382101EB0411D1
:1026E0004819694611F060FAF1E7014601200860D7
:1026F000002048600872A1F80900C87201204872E1
:1027000000228A72CA7205200873002070470000F8
:1027100010B500240548FFF7E8FF044800F008F86A
:1027200004460CB1204610BD0020FCE7F405002053
:1027300030B589B00446202101A8FDF740FE01A96B
:10274000082011F0F7F9054615B1284609B030BD4B
:1027500001A812F093FE2060029860609DF80C00C2
:102760002072BDF80D00A4F809009DF80F00E0727A
:102770000020EBE770B588B004460D46202168467E
:10278000FDF71DFE2146684610F016F969462846F9
:1027900014F08EFA6946082011F006FA064616B1C2
:1027A000304608B070BD25600020FAE7F0B589B06A
:1027B00004460D461646202101A8FDF700FE2146DD
:1027C00001A810F0F9F82868029028798DF80C001B
:1027D0003088ADF80D00B0788DF80F0001A9082001
:1027E00011F0E2F9074617B1384609B0F0BD286884
:1027F0006060287920723088A4F80900B078E0720F
:102800000020F2E701460020087048708870C87008
:1028100008714871704700B502461046FEF766FC25
:10282000901CFEF763FC101DFEF760FC901DFEF788
:102830005DFC02F10800FEF759FC02F10A00FEF708
:1028400055FC02F10C00FEF751FC02F10E00FEF700
:102850004DFC002000BD000070B50025002410E0F4
:102860000A4901EB0410FFF7D6FF084800EB0411FA
:10287000204600F00DF805460DB1284670BD601CDD
:10288000C4B2012CECDB0020F8E7000006080020B1
:1028900070B588B005460C4620216846FDF78FFDCF
:1028A000012D03DD4FF0FF3008B070BD05F5BC60B1
:1028B000694611F03FF906460EB13046F4E721466D
:1028C00068460CF0A2FAA11C0DF102000CF09DFA72
:1028D000211D01A80CF099FAA11D0DF106000CF0C4
:1028E00094FA04F1080102A80CF08FFA04F10A012D
:1028F0000DF10A000CF089FA04F10C0103A80CF0A8
:1029000084FA04F10E010DF10E000CF07EFA0020A5
:10291000CAE7000070B50025002410E00A4901EB69
:102920000410FFF778FF084800EB0411204600F080
:102930000DF805460DB1284670BD601CC4B2012CCF
:10294000ECDB0020F8E700000608002030B589B075
:1029500004460D46202101A8FDF731FD012C03DDC1
:102960004FF0FF3009B030BD294601A810F07CF8C7
:1029700004F5BC6001A911F017F9F3E7FFB589B0C0
:1029800004460F461546202101A8FDF718FD012C2D
:1029900003DD4FF0FF300DB0F0BD394601A810F057
:1029A00063F801AA02EB45000CA90CF03BFA04F510
:1029B000BC6001A911F0F8F806460EB13046EAE70E
:1029C00007EB45000CA90CF01BFA0020E3E700B56B
:1029D000024600201070508010715071D08010811C
:1029E000907202F10B0000F00EF802F1100000F0FE
:1029F0000AF802F1150000F006F802F11A0000F0E2
:102A000002F8002000BD0146002008704870887060
:102A1000C87008717047000070B5002600241BE0E4
:102A2000002515E00E4901EB042101EB4510FFF7ED
:102A3000CEFF0B4800EB042000EB45122946204650
:102A400000F010F806460EB1304670BD681CC5B2E5
:102A5000082DE7DB601CC4B2012CE1DB0020F4E7A9
:102A600016080020F0B589B005460E461446202110
:102A700001A8FDF7A4FC012D01DC082E03DD4FF0B9
:102A8000FF3009B0F0BD4FF4BD6101EBC5018819FD
:102A900001A911F04FF807460FB13846F1E701A838
:102AA00012F0FCFC20700DF1050012F0D5FC6080E6
:102AB0000DF1070012F0F2FC207102A812F0EEFCFA
:102AC00060710DF1090012F0C7FCE0800DF10B0000
:102AD00012F0C2FC20810DF10D0012F0DFFCA0729B
:102AE00004F10B010DF10E000FF0EAFF04F11001EB
:102AF0000DF113000FF0E4FF04F1150106A80FF02B
:102B0000DFFF04F11A010DF11D000FF0D9FF0020C5
:102B1000B7E7000070B5002600241BE0002515E093
:102B20000E4901EB042101EB4510FFF750FF0B4864
:102B300000EB042000EB45122946204600F010F877
:102B400006460EB1304670BD681CC5B2082DE7DBE5
:102B5000601CC4B2012CE1DB0020F4E71608002061
:102B600070B588B004460D46164620216846FDF72C
:102B700026FC012C01DC082D03DD4FF0FF3008B0EE
:102B800070BD314668460FF0CCFF4FF4BD6101EBDC
:102B9000C4014819694611F007F8F0E710B5094873
:102BA00006F0CCFB04464FF0FF300749C8609FEDAC
:102BB000070A084680ED010A9FED040A80ED020A2B
:102BC000002010BD980200208C11002000000000A1
:102BD0000146002008802148C068E0B94FF4404019
:102BE00008801E4890ED010AF2EE040A20EE200A49
:102BF000BDEEC00A10EE100A00B24880174890EDF2
:102C0000020AF2EE040A20EE200ABDEEC00A10EE1F
:102C1000100A00B28880088840F4E05008800F480D
:102C2000008A08810D48408A48810C48808A888142
:102C3000088840F4787008800848C08AC88107482E
:102C4000008B08820548408B48820448808B88822C
:102C50000248C08BC8820020704700008C11002001
:102C600010B512F03FFB12F00BFB12F019FB002025
:102C700010BD000070B5074C25462B46224606A124
:102C8000002001F067FD0C4A0CA1002001F062FD5C
:102C900070BD0000000401083347206F6E6C696E40
:102CA0006520646576696365203C25733E20617408
:102CB00020253038780D0A0040040108636F6D70DC
:102CC000696C6572206174203C25733E0D0A00001A
:102CD00010B5CEB000241348006800B302E00A200B
:102CE00011F078FA0A210F48006814F0BFFB0128A0
:102CF000F5D1684602F0AAFB684603F041FB0446A2
:102D000000231A4619460748006814F0ABF9054835
:102D1000006813F077FB00200249086000BF2046DE
:102D20004EB010BD680100209EB00024742101A89F
:102D3000FDF745FB01200FF0F3FC02F0BBF800BFEC
:102D400001A80BF053F801A908480BF063F80446FA
:102D500014B901A80BF000F901A9054800780CF09E
:102D6000A5FB4FF4FA7011F035FAE9E7680200208C
:102D70006D01002010B5002018490880012048800E
:102D800000208880C880088148818881C8810882A5
:102D90004882401E486100208861C8610884C88458
:102DA000888481F8280081F8290081F82A0081F8B8
:102DB0002B008884012081F82C00002081F82D0050
:102DC00081F82E000886488681F854019021034836
:102DD0003430FDF7F4FA002010BD0000780F002019
:102DE00001460B48406988B94FF47840488008484C
:102DF0000078087106488078487105480079887124
:102E000003488079C8710248007A08720020704730
:102E1000780F002010B5034C2146002001F09AFCE9
:102E200010BD0000CC8B020810B54021054807F00A
:102E3000CFFB012802D10CF071FF01E00CF074FF10
:102E400010BD00000000024010B501200949887043
:102E5000C8700020486008480078012805D001208B
:102E6000054908700846FEF781F90120014908610B
:102E700010BD0000C00900200700002008B5002494
:102E8000002000900025C82011F0A4F901F03AFDBF
:102E900040F2DC5011F09EF910F0BCFFFFF77EFE0F
:102EA000642011F097F9FFF7DBFE00BF64004021BA
:102EB000154807F08DFB044304F07F40B0F17C4FD0
:102EC0000FD16946204611F055FA05464DB99DF8D7
:102ED00000000E494870084642780DA1042001F018
:102EE00039FCFFF7A1FF10F0D9FB12F03FFE12F002
:102EF000BDFD10F007FB01F0EFFAFFF7E9FEFA2045
:102F000011F068F9D2E7000000040240C009002077
:102F10004353513A2025640D0A00000010B586B0D5
:102F20000446FFF79DFE642011F054F9204602F09C
:102F30008DFA684602F0CAFE6846FFF749FE6A4607
:102F40002146024804F03DFD06B010BD44020020B9
:102F5000CEB0002401F03AFC00BF684602F076FAD9
:102F60006946094802F094FA04464CB9684603F0F1
:102F700053FFFF300028F0D1684601F049FCECE730
:102F8000642011F027F9E8E74402002010B500237F
:102F90000022114C00BF1BE0002215E0C3EB031020
:102FA0000D4901EBC00002EB420100EBC1042078A7
:102FB000617A884206D010460CF0E2F910B94FF061
:102FC000FF3010BD501CC2B2052AE7DB581CC3B24B
:102FD000012BE1DB0020F4E7F010002001464889D6
:102FE0008A89104038B988890A8A104018B9088A35
:102FF0004A89104010B14FF0FF307047488A0A8A62
:10300000104010B14FF0FF30F7E7488A0A8A1044A9
:10301000CA89904202D04FF0FF30EEE7088B4A8B0E
:10302000104010B14FF0FF30E7E7488BCA8B1040DB
:1030300038B9C88B0A8C104018B9088C4A8C1040DB
:1030400010B14FF0FF30D8E7088B4A8B1043CA8B82
:1030500010430A8C10434A8C1043CA8A904202D013
:103060004FF0FF30C9E70020C7E7000070B500242B
:10307000002511E00CE0C4EB0411094A02EBC10188
:1030800005EB450201EBC2000BF090F8681CC5B2DD
:10309000052DF0DB601CC4B2012CEBDB002070BD01
:1030A000F010002030B502460023002112E000207D
:1030B0000CE0C1EBC10404EB8404084D2C44C0EBCC
:1030C000C00563199C791454441CE0B20528F0DB58
:1030D000481CC1B20129EADB002030BD8C09002068
:1030E00030B503460C46C3EBC30000EB80000A4D2D
:1030F0002844C4EBC40541194878012800D100E0F8
:103100000320107088785070C87890700879D0705B
:1031100048791071002030BD8C0900202DE9F04164
:1031200000250026A846002700BF55E000264FE0F6
:10313000C5EB05102B4901EBC00006EB460100EB87
:10314000C1040020E07220736073A073E073314605
:103150002846FDF7A3FD0746012F0AD1A07A0228D1
:1031600005D10120E07420A1042001F0F3FA012030
:10317000A0724FB9A07A012804D1E07421A10420E3
:1031800001F0E8FA0220A07231462846FDF798FDCA
:103190000746082F18D2DFE807F00405080B170EC2
:1031A000111612E00120E0720FE0012060730CE0C4
:1031B0000120A07309E00120E07306E018A10420BB
:1031C00001F0C8FA01E000E000BF00BF701CC6B209
:1031D000052EADDB681CC5B2012DA7DB0020BDE8C4
:1031E000F0810000F010002072656C61795F6F75EE
:1031F000747075745F737461747573204F4E0D0A2B
:103200000000000072656C61795F6F757470757491
:103210005F737461747573204F46460D0A00000099
:103220006C6F616420636F6E666C6963742077698C
:1032300074682070686173650D0A00002DE9F0471D
:1032400086B080460C469146B8F1010F02DCB8F119
:10325000000F04D14FF0FF3006B0BDE8F087FFF754
:103260005DFF204603F050FF84F800804FF6FF70AA
:10327000208105AAA11D601D231D8DE80700E21C09
:10328000A11C601C01F0F2FA00260020C9F8000021
:10329000824600279FE0A8F10100C0EB00105449CE
:1032A00001EBC00007EB470100EBC1054FF4004004
:1032B00040FA07F62946384610F042F829463846C3
:1032C0000FF0D6FF294638460FF0ECFFE87C0128C6
:1032D00001D1C9F800000020E8746878012802D004
:1032E0006878022802D160893043608128790128FA
:1032F00002D02879022802D1A0893043A0816879C0
:10330000012802D1E0893043E081A879012802D068
:10331000A879022802D1208A30432082E879012846
:1033200002D0E879022802D1608A30436082287A8C
:10333000012802D1A08A3043A082687A012802D1F4
:10334000E08A3043E082A87A012802D1208B304302
:103350002083C7EBC700274900EB010A002104F1D5
:103360001A008DE85300E87A0B460A460AF005F881
:10337000002104F11C008DE85300287B01230A463C
:1033800009F0FBFF04F12400811F01AA51C2009142
:103390002A7C9AF80310687B022309F0EEFF04F1FF
:1033A0002600811F01AA51C200916A7C9AF804107C
:1033B000A87B032309F0E1FF04F12800811F01AA83
:1033C00051C20091AA7C9AF80510E87B052309F008
:1033D000D4FF781CC7B2052FFFF65DAF2046FFF77C
:1033E000FDFD10B10020C9F80000002034E7000006
:1033F000F01000208C09002030B587B00024002593
:103400000020049004AA0DF1190006A9831ECDE93D
:1034100001020091C21E011F05A801F027FA07F062
:10342000E5F819490968401A40F6B831884217D3BF
:103430009DF819009DF818109DF817209DF816307A
:10344000CDE90032CDE902109DF815309DF8142029
:103450000EA1042001F07EF907F0C8F80A490860BF
:1034600000240CE0002506E005AA294620460AF0C3
:10347000DFFE681CC5B2052DF6DB601CC4B2012C52
:10348000F0DB002007B030BDB40100206E6F773A4A
:10349000203230253032642D253032642D253032F3
:1034A0006420253032643A253032643A2530326463
:1034B0000D0A000070B500260F480078C8B100243E
:1034C00010E000250AE029462046FDF79FFC06464D
:1034D00016B14FF0FF3070BD681CC5B2052DF2DB90
:1034E000601CC4B2012CECDBFDF780FC002002491B
:1034F00008700020EFE700009D01002010B5DAB051
:103500002C214FA8FCF75BFF00204E904EAA4FA93C
:103510000120FFF793FE044614B120465AB010BDB7
:103520001048807801281BD14E9838B907F05EF812
:103530000D490968401A0D49884211D9684601F0C1
:1035400085FF07F053F8084908604FAA6946084804
:1035500004F0FDFA4E9810B16846FFF7DFFC00BF9B
:103560000020DBE7C0090020B0010020E093040048
:10357000440200202DE9F041002600250024002708
:103580002048007801283BD100BF32E000242CE025
:1035900005EB85001C4908440219214628460FF016
:1035A00037F80646F6B91948005D401C174908551A
:1035B0000846005D052802DB0520085513E0781C4D
:1035C000C7B205EB850010490844025D2146284634
:1035D000FDF744FC06462EB123462A460CA10420E2
:1035E00001F0B8F800BF601CC4B2052CD0DB681C29
:1035F000C5B2012DCADB1FB14FF0FF30BDE8F0812D
:103600000020FBE794010020B80100209E0100206B
:1036100072656D6F7465206F707265617465203CB2
:1036200025642D25643E20726573756C7420756E5B
:103630006B6F6E770D0A000040F6B83010F0CAFDCF
:10364000FFF738FF42F2283010F0C4FD00BFFFF74B
:1036500031FFFFF7D1FE00BFFFF78CFF20B140F62E
:10366000B83010F0B7FD03E04FF47A7010F0B2FDFF
:10367000FFF7C2FEFFF78AFC0028EDD1FFF73EFFFF
:10368000FCF7BCFEE3E7000001460D4890F82E0071
:10369000012805D1087048700020094A82F82E00E0
:1036A000074890F85401012807D102200870012032
:1036B00048700020024A82F8540100207047000040
:1036C000780F002010B50BF053FA28B94FF47A7137
:1036D000064800F0BBF807E00020054981F82E00FD
:1036E0000886488681F82D0010BD000011290208C7
:1036F000780F002030B503460D4C04EB831404EB27
:10370000C100002454710478012C02D14478012CAA
:1037100000D030BD14884588AC4201DD01245471CD
:1037200014888588AC4201DA0224547100BFF0E7A6
:103730004606002010B501F087F80024FFF71AFBB9
:1037400000200C49488400BF03E0E0B210F016FBF3
:10375000641C082CF9DB002407E004EB8401064A12
:1037600002EBC10012F050FA641C082CF5D30020C3
:1037700010BD0000780F0020180E00202DE9F04148
:10378000064600240025002758E007EB870000EBE1
:10379000C7002D4901EB8004781C00EB4001301D6F
:1037A00000EBC10594F82400002845D0A06900284A
:1037B00042D0708822794FF4004111410843708053
:1037C0000322284621690BF053FB0322E81CE16821
:1037D0000BF04EFBA069FCF709FE00F0FF08424623
:1037E000A81DA1690BF044FB082205F110006169D6
:1037F0000BF03EFB207901281ED1351D708840F466
:10380000004070800322284621690BF031FB03221F
:10381000E81CE1680BF02CFBA069FCF7E7FD00F069
:10382000FF084246A81DA1690BF022FB082205F102
:10383000100061690BF01CFB781CC7B2022FA4D3E7
:103840000020BDE8F0810000700000202DE9F84F55
:10385000064688464FF00009CA46344C0025AB4660
:1038600033A1052000F076FF002754E007EB870026
:1038700000EBC7002D4901EB8004256A94F8240071
:10388000002847D0002D45D02868002842D0207954
:10389000216B0876206B4462216B20462A68904792
:1038A0008146206B4A4627A1C369042000F052FFDD
:1038B000206BC06910B90020208519E0002000901D
:1038C000207969460BF066FD28B9002024499DF84F
:1038D000002041F82200208D401C2085208D0A28E0
:1038E00005DB002020850BF1010000F0FF0B00BF7D
:1038F0006EB1206A58B120790BF067FD8246BAF1AB
:10390000070F02D1208D012801D0206BB04740461F
:1039100010F060FC7F1C022FA8D312A1052000F03C
:1039200019FF0FF02BF80020BDE8F88F7000002081
:103930007265616420656163682073746172740DDF
:103940000A0000000D0A53656E736F727320726572
:10395000616420726320256420732025640D0A00B1
:10396000580F002072656164206561636820656E90
:10397000640D0A002DE9F04186B006460C46174654
:10398000012E00DC26B94FF0FF3006B0BDE8F08113
:103990000020386080460390204604F0FEFB26702D
:1039A0000020E08105AAA11D601D231D8DE80700F0
:1039B000E21CA11C601C00F059FF002020816081E6
:1039C000002542E0E8B204A900F0FAFA8046B8F116
:1039D000000F39D10498C06968B3E0894FF4004101
:1039E00029410843E08103AA284604990BF078F89E
:1039F00010BBBDF80C1005EB450204F1100020F8D7
:103A00001210002105EB450200EB42000171049801
:103A1000008981B205EB450204F1100000EB420081
:103A2000418005EB450304F1100101EB4302701ED8
:103A30002946FFF75FFE07E0E02105EB450204F1B0
:103A4000100000EB420001716D1C082DBADB002054
:103A50009BE700000120014908707047F800002032
:103A60002DE9F04100250024002656480078002862
:103A70007ED0544890F90000B0F1FF3F04D1601EA1
:103A8000514A1060506008E04E480078012804D187
:103A9000012100204C4AC2E9001000204949087069
:103AA0004AA1052000F056FE012481E004EB440009
:103AB0004C4901EB4005601E00EB80004A4901EBD8
:103AC000C001601E00EB800202EBC000474A02EB1F
:103AD000800001632878012837D10121601E00EBA6
:103AE000800202EBC000414A02EB800080F8241003
:103AF0003F49601E00EB800202EBC0003B4A42F8E7
:103B000020102A79E978631E03EB830707EBC303D0
:103B1000364F07EB8303187910F0F2F8611E01EBC2
:103B2000810202EBC1013A4602EB81010881601E6D
:103B300000EB800101EBC000114601EB800002891F
:103B40002CA1052000F006FE31E0611EC8B212F083
:103B500091F8601E00EB800101EBC000234901EBEE
:103B600080000079012807D110F008F9002000E05A
:103B700025E010F003F91AE0601E00EB800101EB74
:103B8000C0001A4901EB80000079022802D110F030
:103B9000F5F80CE0601E00EB800101EBC00013495A
:103BA00001EB80000079072801D110F0E7F8641CD0
:103BB000032CFFF67BAF17A1052000F0CBFDBDE87D
:103BC000F0810000F800002000010020726566729C
:103BD0006573682073746174757320737461727493
:103BE0000D0A000014060020180E002070000020AE
:103BF000F401002073656E736F7220636F6E6669E7
:103C000067206D6F64656C5F6964203D2025640DDD
:103C10000A000000726566726573682073746174CF
:103C2000757320656E640D0A0000000030B52DED3F
:103C3000068BDFB09FED5F0BB0EE408AF0EE608A3E
:103C400000205E9010A801F001FC5EAA69460120E8
:103C5000FFF790FE05465948807801287ED15848E4
:103C6000C08C012809D05E9838B906F0BFFC5549D0
:103C70000968401A5449884270D906F0B7FC514986
:103C8000086000204E49C8840846408C032803DBA6
:103C90000846008C0A287DDABDF810000A2190FB46
:103CA000F1F42046FCF7A7FD41EC1A0B9FED470B02
:103CB00053EC102BFCF717FC41EC190B53EC192BB0
:103CC0009FED440B51EC100BFCF726FD41EC180B5B
:103CD000BDF81600FCF7A0FD41EC190B53EC182BB6
:103CE000FCF71AFD41EC180B51EC180BFCF7C0FD6A
:103CF00081B233483430394A127820F812103748EC
:103D00000078401C3549087008460078902828DD66
:103D10000020087090212A48343010F01DF93049F5
:103D20000880084600880A2814DA2E4C94F82400EB
:103D300078B19DF81A0060B90120214981F8540139
:103D4000084690F8542128A1032000F003FD11F04B
:103D500047FF00BF90211A48343000E025E0FCF70F
:103D60002EFB51EC180BFCF783FD84B2224624A1F4
:103D7000032000F0EFFC9DF81A2028A1032000F09A
:103D8000E9FC0AF0F5FE28B99DF81A0010B90C48B4
:103D9000018E00E004E0ADF81210418EADF818106D
:103DA0006A4610A9234803F0A1FF00205FB0BDECD4
:103DB000068B30BD0000000000000000C00900209C
:103DC000780F002010010020E09304009A9999993F
:103DD00099993F400000000000407D401401002000
:103DE00016010020700000206169725F616C6574CB
:103DF0005F7374617475733D2564200D0A000000C3
:103E000073617475726162696C6974795F76616CF3
:103E100075653D2564200D0A00000000444F2070A8
:103E2000726F62655F7374617475733D25303258CB
:103E30000D0A00004402002038B504469FED0C0A2C
:103E40008DED000A2079012810D10A4D287801282B
:103E500004D169886A46032012F038FD20790022D7
:103E60009DED000A032100F0EDF838BD0020FCE7CD
:103E7000000000003206002008B5FFF75BFC3E485A
:103E800009F063F94FF47A7010F0A4F900BFFFF75E
:103E9000E7FD0EF069F93948406900903748438CD6
:103EA000028C37A1042000F055FC3449324809F057
:103EB000F3F84FF47A7010F08DF93048408C0328F5
:103EC00003DB2E48008C0A2847DA2C48808C012816
:103ED00043D02A48408C032819DA2848008C0A2845
:103EE00015DB00224FF48071304806F079FB41F277
:103EF000883010F06FF9012211022C4806F070FB97
:103F0000FEF738FF1D48408C401C1C4948841B4864
:103F1000C069012800D0BAE71848C08C012809D12F
:103F2000FFF784FE06F062FB214908600120134977
:103F300081F82D00114890F82D00012809D106F0D4
:103F400055FB1B490968401A1A49884201D9FFF7F5
:103F5000B9FB0A48408810B199E7FFF767FE164899
:103F6000FFF76AFF4FF47A711448FFF76FFC4FF4C4
:103F70007A7010F02FF98AE7F4010020780F002002
:103F800061697220626C6F773A206572723A2025FF
:103F9000642C207273743A2025642C20737461742D
:103FA00075733A2025640D0A0000000000080240E5
:103FB0000C010020E0930400700000201129020889
:103FC0000246082A02DB4FF0FF307047C2EBC20006
:103FD000024B03EB001008600020F6E7D809002030
:103FE0002DE9F84381460D4616461F4600200090F5
:103FF000694628460BF070F88046B8F1000F02D0F1
:104000004046BDE8F8830098046A00980068A0B1B3
:104010009CB1009890F8240078B1206B68B1012021
:10402000074988843A463146236B0098984708B977
:104030000020E6E74FF0FF30E3E74FF0FF30E0E726
:10404000780F00202DE9F0412DED028B82B08046E3
:104050000E46B0EE408A17461C4850F8260038B18C
:1040600037B94FF0FF3002B0BDEC028BBDE8F081F4
:104070000020019001A940460BF02EF804460CB137
:104080002046F0E70198056A01980068D0B1CDB1EB
:10409000019890F82400A8B1A86A98B1B0EE480A37
:1040A0003146AA6A0198904708B9002001E04FF014
:1040B000FF30044624B906F099FA044941F8260075
:1040C0002046D0E74FF0FF30CDE70000580F00202A
:1040D000002400200649087006F088FA044600BF54
:1040E0000AF004FF20460BF045FC0EF07DFBF7E7DD
:1040F0009401002010B58AB024220A4901A8FCF7D7
:1041000045F901AA0021084810F0CAF804462246E1
:1041100006A1042000F01EFB0A2006F067F80AB092
:1041200010BD0000AC840208B5430108555044415D
:1041300054455F46494E4953482068616E646C653A
:104140002025780D0A000000014800687047000033
:104150002400002000B5C9B010F058F824225849B6
:1041600040A8FCF713F940AA0021564810F098F82F
:1041700055490860084655A10268042000F0EAFA93
:104180000A2006F033F824224D49243137A8FCF7E1
:10419000FDF837AA0021534810F082F85249086010
:1041A000084652A10268042000F0D4FA0A2006F062
:1041B0001DF82422424948312EA8FCF7E7F82EAA20
:1041C00000214F4810F06CF84E49086008464EA197
:1041D0000268042000F0BEFA0A2006F007F8242244
:1041E00037496C3125A8FCF7D1F825AA00214B48A6
:1041F00010F056F84A49086008464AA102680420AF
:1042000000F0A8FA0A2005F0F1FF24222C49903191
:104210001CA8FCF7BBF81CAA0021474810F040F886
:1042200046490860084646A10268042000F092FA58
:104230000A2005F0DBFF24222149B43113A8FCF742
:10424000A5F813AA0021434810F02AF84249086053
:10425000084642A10268042000F07CFA0A2005F01A
:10426000C5FF24221649D8310AA8FCF78FF80AAAFC
:1042700000213F4810F014F83E49086008463EA16E
:104280000268042000F066FA0A2005F0AFFF24223D
:104290000B49FC3101A8FCF779F801AA00213B4841
:1042A0000FF0FEFF3A49086008463AA10268042070
:1042B00000F050FA0A2005F099FF002049B000BD37
:1042C0008C830208512F01081C00002050524F54CB
:1042D0004F434F4C2068616E646C652025780D0A51
:1042E00000000000793E01082000002053454E5395
:1042F0004F52532068616E646C652025780D0A006A
:104300007D2E0108180000204E4554574F524B2077
:1043100068616E646C652025780D0A00D140010843
:10432000240000205354415455532068616E646C3E
:10433000652025780D0A0000393601082800002084
:1043400052454C41592068616E646C652025780D9A
:104350000A000000050F01083000002043414E5FB5
:1043600074782068616E646C652025780D0A000001
:10437000690D01083400002043414E5F72782068C7
:10438000616E646C652025780D0A0000292D0108F6
:104390002C000020475052532068616E646C6520E9
:1043A00025780D0A000000000FF050FF00BFFEE767
:1043B0007047000008B5002400BF1B488078012822
:1043C0002DD14FF47A700FF005FF4FF49C700FF071
:1043D0008DFD04461CB3204601F038F80020009003
:1043E00002208DF80000114800788DF801006A461F
:1043F00021460F4803F00CFD40F6B8300FF0EAFEFE
:10440000204602F0BFFC64200FF0E4FE20460FF0CF
:1044100011FC0FF03FFF054612F07AF800BF4FF491
:104420007A700FF0D7FEC8E7C009002044010020D1
:104430004402002070B5244C244D607A032803D137
:10444000A07A08B9E07A50B1607A012803D1A07A45
:1044500008B9E07A18B1FDF70DFA002070BD207997
:10446000012807D102201A490870FDF7F3F9FFF778
:1044700041FE26E02168E068814211D114222946DC
:104480002046FCF70BF838B9012011490870FDF7F8
:1044900017FAFFF72FFE14E003200D49087010E013
:1044A000142229460B48FBF7F9FF18B903200849E5
:1044B000087006E02968E868814202D003200449B8
:1044C00008700020CAE70000640900207809002075
:1044D000440100201C85020810B5D0B000242248F9
:1044E000007801283CD106F081F81F494968401A3C
:1044F0001D4949781D4A52F82110884230D91C487C
:10450000807801282CD14FF49C7102A8FBF757FF4B
:1045100000200090019002A800F098FF1548008844
:10452000ADF80E0010484078052806DB0E2102A8E1
:104530000DF0C6FF0EF00CFC11E00F480068009073
:104540000D48808801906A4602A90C4803F041FC9E
:104550000446BDF80E00074908800EF0EBFB00BFD3
:10456000204650B010BD0000280100203085020810
:10457000C009002046010020300100204402002034
:1045800005480649086006484860064888600648AD
:10459000C86000207047000038000020B0090020EB
:1045A00040000020470000204B0000207047000022
:1045B0002DE9F84304460D4616460027B84610E09C
:1045C0002B46224601210948009604F073FF074656
:1045D00017B93846BDE8F883052005F007FE08F155
:1045E0000108B8F1030FEBDB3846F3E78402002043
:1045F0002DE9F04104460D46002600270EE02B462B
:1046000022460121074804F0ACFF064616B93046A1
:10461000BDE8F081052005F0E9FD7F1C032FEEDBEE
:104620003046F5E7840200202DE9FC4104460D46A2
:1046300016460027B84613E040F6B8302B4622460F
:104640000121CDE90060094804F0E1FF074617B9F0
:104650003846BDE8FC81052005F0C8FD08F10108D9
:10466000B8F1030FE8DB3846F3E7000084020020CE
:1046700030B5024600200BE0012383400B402BB1F4
:10468000136845000324AC40A3431360431CD8B215
:104690001028F1DB30BD30B5024600200FE00123C9
:1046A00083400B404BB1136845000324AC40A34347
:1046B00045000124AC4023431360431CD8B21028AA
:1046C000EDDB30BD10B505F0D3FF08F0D5FE00F0EE
:1046D00021FC00F0FBFB08F029F908F0DBF808F0FA
:1046E000B1FA08F05BFA08F091FA08F0C7FA08F09E
:1046F00071FA08F0DFFA08F019FA00F01BFD044621
:104700000CB100F059F8024806F0DCFF002010BDA3
:104710002C3D00200020704710B50848007B05287C
:1047200001DD052001E00548007B0446044850F8FF
:10473000242004A1002000F00DF810BDF405002095
:10474000CC0100204C6F67206C6576656C3A2025A3
:10475000730D0A000FB438B504460848007BA04228
:1047600002DA38BC5DF814FB06A8009000990598A1
:1047700009F0B4FC0020009000BFF2E7F40500202F
:104780002DE9F04105460E4617460848007BA84231
:1047900001DABDE8F081002404E0315D04A009F0F5
:1047A0008DFC641CBC42F8D300BFF2E7F405002086
:1047B000253032782000000010B5012080F31388E6
:1047C00000BF06F045F8002010BD000010B5012024
:1047D00012F04AFB05490860012012F045FB04492C
:1047E000086001F05FFB002010BD00003C020020CB
:1047F0004002002070B504460D46044842F6FF72A0
:10480000294643682046984770BD000054020020A6
:1048100010B50446D121204600F008F810BD10B5AF
:104820000446D021204600F001F810BD70B50446C2
:104830000D466572002020732146024800F0A4FE58
:1048400070BD00004402002010B5064806494860CB
:104850000DF000F9044808F0BFFC08F087FA0020CA
:1048600010BD0000E4010020F40100202DE9F04714
:1048700086B004460D4616461F46DDE90F9ADDF860
:10488000388000226946164806F0A6FC20B14FF099
:10489000FF3006B0BDE8F087002205A9104806F0F9
:1048A00075FC10B14FF0FF30F3E79DF81700207052
:1048B0009DF8150028709DF8160030709DF81400C2
:1048C0008AF800009DF8000038709DF8010088F813
:1048D00000009DF8020089F800000020D9E70000E0
:1048E0000C3D00201FB5044603AA601D211DE31CDA
:1048F000CDE901020091A21C611C2046FFF7B6FF22
:1049000004B010BD10B50AF0F7FE044654B90948CA
:104910000068C0F3400028B100F05EF904460CB90D
:10492000204610BD04A10420FFF714FF00F0F2F8A8
:10493000F7E7000070380240525443207573652039
:104940004C5345204552524F520D0A0030B58DB0A0
:1049500000200B900C90202103A8FBF730FD03A949
:104960001F200FF0E7F8044614B120460DB030BD0B
:104970009DF80C00A52807D19DF80D005A2803D1F9
:104980009DF80E00142802DA4FF0FF30EEE79DF894
:104990000E008DF82C009DF80F008DF82D009DF86D
:1049A00010008DF82E009DF811008DF82F009DF855
:1049B00012008DF830009DF813008DF831009DF83D
:1049C00031009DF83010CDE900109DF82F309DF892
:1049D0002E209DF82D109DF82C0000F05BF8044669
:1049E0000CB12046C2E703A10420FFF7B3FE00206C
:1049F000BCE700004253505F5254435F6C6F6164E8
:104A00005F66726F6D5F6261636B7570204F4B0004
:104A100030B589B004462078142803DA4FF0FF300F
:104A200009B030BD202101A8FBF7C9FCA5208DF8F5
:104A300004005A208DF8050020788DF80600607873
:104A40008DF80700A0788DF80800E0788DF809004F
:104A500020798DF80A0060798DF80B0001A91F20DC
:104A60000FF0A2F805460DB12846D9E702A10420AF
:104A7000FFF770FE0020D3E74253505F5254435F6C
:104A8000736176655F746F5F6261636B7570204FF1
:104A90004B0000002DE9F04786B004460D4616464F
:104AA0001F46DDE90E9A8DF817408DF815508DF8E8
:104AB00016603246294620460EF092FC8046B8F138
:104AC000000F01D14FF007088DF81480002205A9CE
:104AD0000F4806F029FC20B14FF0FF3006B0BDE8CA
:104AE000F0878DF800708DF801908DF802A00020FD
:104AF0008DF803000390049000226946044806F0F4
:104B000095FC10B14FF0FF30E8E70020E6E7000029
:104B10000C3D00201FB523A10420FFF71BFE05F06C
:104B2000B9FE00BF2348006820F001002149086059
:104B30000846006820F00400086000BF32200FF033
:104B400049FB002000900190029003900220009009
:104B500019480390684605F0A3FE28B100F018FB41
:104B60004FF0FF3004B010BD144815490860002014
:104B700048607C211248816040F69F71C16000212D
:104B800001614161816106F057FB20B100F000FB3B
:104B90004FF0FF30E6E70BA10420FFF7DBFD00201C
:104BA000E0E7000052544320757365204853450DDB
:104BB0000A00000070380240000310000028004086
:104BC0000C3D002052544320757365204853452006
:104BD0004F4B0D0A000000001FB51FA10420FFF776
:104BE000B9FD00BF2048006840F001001E49086080
:104BF00000BF32200FF0EEFA0020009001900290EA
:104C0000039002200090C0010390684605F048FE22
:104C100028B100F0BDFA4FF0FF3004B010BD1348CA
:104C200013490860002048607F2111488160FF21FE
:104C3000C160002101614161816106F0FDFA20B18E
:104C400000F0A6FA4FF0FF30E7E70AA10420FFF7D3
:104C500081FD0020E1E70000525443207573652078
:104C60004C53450D0A0000007038024000280040F7
:104C70000C3D002052544320757365204C53452051
:104C80004F4B0D0A0000000038B50446206800684C
:104C9000C0F3001010B320680068C0F3C000E8B98A
:104CA00020680068C0F38000C0B920680068C0F3C5
:104CB000400098B92068006800F0010070B900BF9A
:104CC00000200090206800680090206840680090F4
:104CD00000BF00BF0021204607F062FB00BF00209C
:104CE000009020680068009020684068009000BF35
:104CF00000BF38BD10B500220121C80212F0A7FC88
:104D000027490860274828490860002048604FF478
:104D10008053002225480EF05FF80022012148024E
:104D200012F095FC224908602248234908600020BF
:104D300048604FF48063002220480EF04DF80022B6
:104D40000121480212F083FC1D4908601D481E49DC
:104D50000860002048604FF4806300221B480EF07A
:104D60003BF800220121080212F071FC184908608A
:104D7000184819490860002048604FF40073002269
:104D800016480EF029F816481649086000204860B9
:104D90004FF48053002214480EF01EF810BD00009E
:104DA00004020020C0110020FC010020EC3D002086
:104DB00010020020C0210020080200202C3E00200C
:104DC0001C020020C0250020140200206C3E0020A0
:104DD00028020020C0290020200200206C3D002075
:104DE000C02B00202C020020AC3E002010B501207A
:104DF00012F03AF801490860002010BD340200208A
:104E0000F0B587B005460E46144602E00A200FF0C2
:104E1000E1F90A211D48006812F028FB0128F5D1AC
:104E2000182101A8FBF7CBFA01A9284611F047FF8A
:104E30008DF80840002005E0325C411D01AB5A545A
:104E4000411CC8B2A042F7DB23462A4610A100202D
:104E5000FFF780FC224631460020FFF791FC13A1AA
:104E60000020FFF777FC621D4FF6FF7301A9104881
:104E700007F0DAF9074600231A4619460348006886
:104E800012F0F0F8384607B0F0BD00003402002000
:104E90003C53656E643E3A0D0A6964203D2025301E
:104EA00038782C20646C63203D2025640D0A0000B6
:104EB0006C3D002010B5012011F0D6FF02490860BA
:104EC00009F01CF8002010BD6402002010B50E4847
:104ED00005F0BAFB0D480068401C0C4908600868E2
:104EE00000EBD0714910A0EB4101084A1160104657
:104EF0000068002801DD012000E0002002460421B6
:104F0000034805F06DFB10BD003D00203802002075
:104F10000010024010B507F0F5FD04210748FFF727
:104F2000BAFB07480068002801DD012000E00020EE
:104F300002460421014805F053FB10BD0010024059
:104F400038020020FFF738FC00BFFEE710B502482A
:104F500004F00DFE10BD00006C41002030B502468B
:104F60000B46FF20002113E0555C684008240BE04D
:104F700000F0800525B1312585EA4005E8B201E061
:104F80004506280E651EECB2002CF1DC4D1CE9B282
:104F90009942E9DB30BD000010B5024804F046FF3D
:104FA00010BD0000CC40002010B5024804F03EFFC8
:104FB00010BD00000C40002010B5024804F036FF80
:104FC00010BD0000EC3E002010B5024804F02EFF9A
:104FD00010BD00004C3F002010B5024804F026FF31
:104FE00010BD00006C40002010B5024804F01EFF08
:104FF00010BD0000AC3F002001460878103818238F
:10500000B0FBF3F20848805CC865032A05D908683C
:105010006FF30900001D886503E008686FF309005D
:105020008865886D70470000928B02080146002059
:105030008A6A8B69CBB932B1012A0DD0022A03D01A
:10504000032A10D10EE000BFCB6A03F08073B3F1E6
:10505000807F00D1012007E0CB6AB3F1C07F00D18F
:10506000012001E000E000BF34E08B69B3F5005F90
:105070001AD132B1012A07D0022A03D0032A11D152
:105080000AE000BF01200EE0CB6A03F08073B3F1A9
:10509000807F00D1012006E0CB6AB3F1C07F00D150
:1050A000012000E000BF15E032B1012A05D0022A3C
:1050B00004D0032A0CD103E000BF00BF012008E0A8
:1050C000CB6A03F08073B3F1807F00D1012000E050
:1050D00000BF00BF704730B50468246824F4802402
:1050E00005682C60046863608468402C04D10468FF
:1050F000A2600468E16003E00468A1600468E26003
:1051000030BD000010B5084B5968084B1B68084CAF
:10511000B3FBF4F303FB00F200BF034B5B685B1AC5
:105120009342FAD310BD0000001000E08405002077
:1051300040420F001148006800F0807090B90F489D
:10514000006840F080700D49086000200C494860FC
:105150000846006820F0010008600846006840F03A
:105160000100086000BF00BF00BF0548406808B1EB
:10517000002070474FF0FF30FBE70000FCED00E03F
:10518000001000E0704710B5402005F013F910BD85
:1051900072B6FFF711FB00BFFEE7000010B500225A
:1051A00001B909E0012901D10A0205E0022901D172
:1051B0000A0201E04FF440720E4B1B6823F4407367
:1051C0000C4C236023461B681343236023461B6853
:1051D00023F0F803236023461B68022444EAC0043A
:1051E0002343044C236023461B6843F4803323602D
:1051F00010BD0000103C02401C48006800F4007024
:10520000B0B11A48006820F400701849086000BF67
:105210000846006840F4006008600846006820F412
:105220000060086000BF0846006840F40070086035
:105230000E48006800F48060B0B10C48006820F4AB
:1052400080600A49086000BF0846006840F480504A
:1052500008600846006820F48050086000BF0846D7
:10526000006840F48060086070470000003C024025
:105270000A4A126822F44072084B1A601A461268F1
:1052800042F004021A601A4612684FF4803343EA6F
:1052900000231A43014B1A6070470000103C024083
:1052A000074A126822F44072054B1A601A461268C7
:1052B0001A601A46126842F001021A6001707047C3
:1052C000103C024010B50D49096821F440710B4CA7
:1052D00021602146096841F4407121602146096836
:1052E00041F001012160026000BF00BF00BFBFF3B9
:1052F0006F8F00BF00BF00BF436010BD103C024075
:10530000084A126822F44072064B1A601A46126864
:1053100042F480721A601A46126842F001021A6062
:1053200001807047103C0240084A126822F4407223
:10533000064B1A601A46126842F400721A601A4646
:10534000126842F001021A6001607047103C02408E
:105350002348006800F0100040B12248C06940F0C6
:1053600010002049C86110201D4908601C480068D1
:1053700000F0200040B11B48C06940F00800194906
:10538000C8612020164908601548006800F04000F8
:1053900040B11448C06940F004001249C86140207F
:1053A0000F4908600E48006800F0800040B10D48C9
:1053B000C06940F002000B49C861802008490860BC
:1053C0000748006800F0020040B10648C06940F09C
:1053D00020000449C86102200149086070470000AC
:1053E0000C3C02405442002070B5044600250020C9
:1053F0001449C86105F0FAF8054609E0601C38B1A7
:1054000024B105F0F3F8401BA04201D9032070BD80
:105410000D48006800F480300028EFD10A48006889
:1054200000F0010010B1012007490860064800683B
:1054300000F0F20018B1FFF78BFF0120E7E7002032
:10544000E5E70000544200200C3C024010B5044641
:10545000FBF7F4FE206003202071402060710020E3
:10546000E0802072D02060720020A0720120E072E3
:10547000002020734FF4907104F10D00FAF79FFFA4
:105480000020A4F82E0184F83001C4F8340110BDC6
:105490002DE9F04106460C460027002521463046FE
:1054A00009F03AFD054615B12846BDE8F0812146D0
:1054B00030460BF04AF805460DB12846F5E721467F
:1054C00030460BF04FFB05460DB12846EDE7204670
:1054D0000EF0D8FB07462079162806D1002F04DDF0
:1054E000607B522801D1172020712079C00984F8EF
:1054F00030012846D9E72DE9F04105460E46002443
:1055000000273119286811F0DAFB241D3119287998
:1055100011F0E9FB641C3119687911F0E4FB641C9B
:105520003119E88811F0B7FBA41C3119287A11F061
:10553000DAFB641C3119687A11F0D5FB641C31194F
:10554000A87A11F0D0FB641C3119E87A11F0CBFB7A
:10555000641C3119287B11F0C6FB641C28460EF030
:1055600091FB074630193A4605F10D01FAF70EFF97
:10557000E01984B23119B5F82E0111F084FBA01C9A
:1055800084B22046BDE8F0812DE9F04106460C4684
:10559000FBF754FE20602079172801D116202071D6
:1055A0000120E07219492046FFF7A5FF0546022DAC
:1055B00003DC4FF0FF30BDE8F081A91E13480EF068
:1055C00091FB0746A81E114A8118384611F05BFB73
:1055D00042F6FF7229460D4873689847207A0128E1
:1055E0000ED0207A02280BD0207A032808D0207A07
:1055F0000A2805D0207A122802D0207A1E2803D14A
:1056000029460248FFF7F6F80020D4E7C03B002007
:1056100070B505460E46002428190FF046FF30707D
:10562000641C28190FF01FFF7080A41C28190FF0AC
:105630003CFF3071641C28190FF037FF7071641C37
:10564000204670BD70B505460E46002428190FF09F
:105650002CFF3070641C204670BD70B505460E46A8
:1056600000242919307811F03EFB641C204670BDDF
:1056700070B505460E46002428190FF016FF30704D
:10568000641C28190FF011FF7070641C204670BD57
:1056900010B504462046FFF7BBF8002010BD70B5DA
:1056A00005460E46002428190FF0FFFE3070641CDA
:1056B00028190FF0FAFE7070641C28190FF0D3FE41
:1056C0007080A41C204670BD70B50546D5F8340125
:1056D00028B92846FFF79CF84FF0FF3070BDD5F889
:1056E00034412078522805D02846FFF791F84FF032
:1056F000FF30F3E76078012802DC6078012805DAE2
:105700002846FFF785F84FF0FF30E7E720460EF018
:10571000C9F906462EB12846FFF77AF84FF0FF3058
:10572000DCE72846FFF77BF80020D7E770B5054691
:105730000E46002428190FF0B8FE3070641C28199A
:105740000FF0B3FE7070641C204670BD2DE9FC4163
:105750000546D5F8340130B92846FFF759F84FF01F
:10576000FF30BDE8FC81D5F834412078522805D0BF
:105770002846FFF74DF84FF0FF30F2E76078012838
:1057800002DC6078012805DA2846FFF741F84FF07F
:10579000FF30E6E76846FCF788F9002600270FE0AF
:1057A000F9B26278521ED0B26A46FCF709FA064690
:1057B0002EB12846FFF72CF84FF0FF30D1E77F1CC1
:1057C000082FEDDBFCF77AF906462EB12846FFF7E5
:1057D0001FF84FF0FF30C4E72846FFF720F80020FD
:1057E000BFE770B505460E46002428190FF05DFE90
:1057F0003070641C28190FF058FE7070641C281952
:105800000FF031FE7080A41C204670BD2DE9FC41D4
:105810000546D5F8340130B92846FEF7F9FF4FF0B8
:10582000FF30BDE8FC81D5F834412078522805D0FE
:105830002846FEF7EDFF4FF0FF30F2E760780128D1
:1058400002DC6078012805DA2846FEF7E1FF4FF018
:10585000FF30E6E7002600276846FCF789FE00BF18
:105860000FE0F1B26278521ED0B26A46FCF720FF18
:1058700007462FB12846FEF7CBFF4FF0FF30D0E7A9
:10588000761C032EEDDBFCF77DFE07462FB1284684
:10589000FEF7BEFF4FF0FF30C3E7FEF7DBF8284608
:1058A000FEF7BDFF0020BCE770B505460E4600249C
:1058B00028190FF0FAFD3070641C28190FF0F5FD5F
:1058C0007070641C28190FF0CEFD7080A41C28197C
:1058D0000FF0EBFD3071641C28190FF0E6FD7071BC
:1058E000641C204670BD00002DE9FC4707464FF0C0
:1058F0000009D7F8340130B93846FEF789FF4FF078
:10590000FF30BDE8FC87D7F834412078522805D015
:105910003846FEF77DFF4FF0FF30F2E76078012850
:1059200002DC6078012805DA3846FEF771FF4FF097
:10593000FF30E6E7B9F1000F05D03846FEF768FF03
:105940004FF0FF30DDE760880DF095FE0546082D2D
:1059500001DC012D05DA3846FEF75AFF4FF0FF3023
:10596000CFE74FF08008002636E0802040FA06F8A6
:10597000607900EA080040452DD100200090019098
:1059800094F801C0ACF1010C0CEB4C0CDFF858A002
:105990000AEBCC1AA5F1010C0CEB4C0C0AEB0C1C1D
:1059A00006EB460A0CEB8A03F2B2A5F1010C0CF0EF
:1059B000FF0194F801C0ACF1010C0CF0FF00FCF702
:1059C00043FA8146B9F1000F05D03846FEF720FFB3
:1059D0004FF0FF3095E7761C042EC6DB3846FEF705
:1059E0001EFF00208DE700008606002070B50546EA
:1059F0000E46002428190FF036FD3080A41C28190B
:105A00000FF053FDB070641C28190FF04EFDF070BC
:105A1000641C28190FF049FD3071641C28190FF01F
:105A200044FD7071641C28190FF03FFDB071641CB7
:105A300028190FF03AFDF071641C28190FF035FD9C
:105A40003072641C28190FF030FD7072641C2046FF
:105A500070BD0146002008808870C87008714871C8
:105A60008871C87108724872704770B505460E4655
:105A700000242919308811F00EF9A41C2919B078D6
:105A800011F031F9641C2919F07811F02CF9641C1B
:105A90002919307911F027F9641C2919707911F04E
:105AA00022F9641C2919B07911F01DF9641C291917
:105AB000F07911F018F9641C2919307A11F013F9F2
:105AC000641C2919707A11F00EF9641C204670BD0F
:105AD00070B505460E46002428190FF0E6FC30701C
