:020000040800F2
:10000000080A00209D010008A1340008973200086A
:1000100099340008470E0008C53B000800000000A6
:10002000000000000000000000000000AF01000818
:10003000C90F000800000000B3010008B501000866
:10004000B7010008B7010008B7010008B7010008B0
:10005000B7010008B7010008B7010008CD0F00087C
:10006000B7010008B7010008B70100084F0E0008EB
:10007000510E0008530E0008B7010008B701000830
:10008000550E0008B7010008B7010008B7010008C5
:10009000B7010008B7010008B7010008B701000860
:1000A000B701000885350008B7010008B70100084E
:1000B00095350008B7010008B7010008B70100082E
:1000C000B7010008B7010008B7010008B701000830
:1000D000B7010008AF3B0008B13B0008C13B000876
:1000E000CB0F0008B7010008B7010008B7010008EE
:1000F000B7010008B7010008B7010008B701000800
:10010000B7010008B7010008B7010008B7010008EF
:10011000F3360008F5360008B7010008B7010008FB
:10012000B7010008650E0008670E0008B701000857
:10013000B7010008B7010008B7010008B7010008BF
:10014000B7010008B7010008B7010008B7010008AF
:10015000B7010008B7010008B7010008C33B000859
:10016000B7010008B7010008B7010008B70100088F
:10017000B7010008B7010008B7010008000000003F
:10018000B7010008B7010008DFF80CD000F0BEFA94
:10019000004800476D4E0008080A002006488047C6
:1001A00006480047FEE7FEE7FEE7FEE7FEE7FEE75C
:1001B000FEE7FEE7FEE7FEE7693500088901000873
:1001C0002DE9F05F0546002092469B46884606468C
:1001D000814640241BE0284641464746224600F01F
:1001E00082F853465A46C01A914110D31146184618
:1001F000224600F069F82D1A67EB01084F462246A7
:100200000120002100F060F817EB00094E41201E8C
:10021000A4F10104DFDC484631462A464346BDE8E6
:10022000F09F40EA01039B0703D009E008C9121FB1
:1002300008C0042AFAD203E011F8013B00F8013BA0
:10024000521EF9D27047D2B201E000F8012B491ECC
:10025000FBD270470022F6E710B513460A46044663
:100260001946FFF7F0FF204610BD30B505462A4677
:100270000B4612F8010B13F8014B08B1A042F8D05D
:100280001CB1002802D06D1CF1E7284630BD421C8D
:1002900010F8011B0029FBD1801A704730B50B46BE
:1002A000014600202022012409E021FA02F59D42A6
:1002B00005D303FA02F5491B04FA02F52844151E7A
:1002C000A2F10102F1DC30BD202A04DB203A00FA61
:1002D00002F1002070479140C2F1200320FA03F39D
:1002E000194390407047202A04DB203A21FA02F09B
:1002F0000021704721FA02F3D040C2F12002914060
:100300000843194670472DE9FE4F81EA030404F0C3
:10031000004421F0004100944FF0000B23F0004313
:1003200050EA01045ED052EA03045BD0C3F30A54DE
:10033000C1F30A552C44A4F2F3340194A0FB0254F7
:10034000C1F3130141F48011C3F3130343F4801389
:1003500001FB024400FB034E840A970A44EA8154DD
:1003600047EA8357A4FB076802958D0A05FB0785BA
:100370004FEA932C04FB0C542705029D4FEA0658C4
:1003800047EA1637B5EB08056EEB070C870E920EA1
:1003900047EA811742EA8312A7FB0201B6EB0B0181
:1003A00064EB00042B0D43EA0C335E1844EB1C5045
:1003B000DA465146E7FB0201C5F313044FEA0B335B
:1003C00043EA14534FEA0432019C43EA0603A4F1C2
:1003D0000C040294009CCDE900B400F0CAF903B00B
:1003E000BDE8F08F00200146F9E70020704710B506
:1003F000012080F3138800BF01F06EFE002010BDC5
:10040000532D3233305F4D5F424F4F545F56332E82
:10041000302E30000000000000000000000000004E
:1004200000000000000000000000000000000000CC
:1004300000000000000000000000000000000000BC
:1004400041707220323420323032342D31323A3021
:10045000333A3536000000000000000000000000C4
:10046000000000000000000000000000000000008C
:10047000000000000000000000000000000000007C
:100480002DE9FE4F804681EA0300C00F0C46009024
:1004900021F0004123F00045B8EB0200A94105D24C
:1004A0004046214690461C460B46024623F000403B
:1004B000104347D0270DC7F30A00C3F30A51029037
:1004C000401A019040286BDAC3F3130040F4801BFC
:1004D0000098924620B10023D2EB030A63EB0B0B8A
:1004E00001985946C0F140025046FFF7EDFE06461E
:1004F0000D4650465946019A00F01AF910EB0800D3
:100500006141002487EA115284EAE7731A4340D01C
:10051000009A62B3019A012A4FEA075215DC001BC8
:1005200061EB02014FF0004202EA0752CDE90042BE
:10053000001C41F5801132462B4600F01AF903B039
:10054000BDE8F08F40462146F9E7001B61EB020150
:10055000001C41F5801300185B412018A2F500171C
:1005600047EB030140EAD570B6196D4111E06D0803
:100570004FEA360645EAC0754FEA0752001B61EBA9
:100580000201001C41F5801149084FEA30000019B2
:10059000514132462B4603B0BDE8F04F00F0DAB8C7
:1005A0000098012240000023D0EB020263EBE073CD
:1005B000009821464FEAE074B8EB000061EB0401BB
:1005C000E9E783F000435BE781F0004158E72DE95C
:1005D000F04D81EA030404F0004B21F0004514467D
:1005E0004FF0000A23F0004150EA050220D054EAFF
:1005F00001021DD0C5F30A570246C5F31303C1F328
:100600001300C1F30A5640F4801543F48013A7EB9E
:100610000608101BD64608F2FD3873EB050002D31E
:1006200008F1010801E092185B41B8F1000F03DA0C
:1006300000200146BDE8F08D00204FF480110646F1
:1006400084460EE0171B73EB050705D3121B63EB03
:10065000050306434CEA010C49084FEA30009218A2
:100660005B4150EA0107EDD152EA030012D082EA61
:10067000040083EA0501084305D0101BAB4106D2F4
:100680000122002306E000224FF0004302E06FF059
:10069000010253101AEB06004CEB085110EB0A0054
:1006A00041EB0B01BDE8F04D00F054B8C1F30A5224
:1006B000C1F3130140F2FF3341F480119A4202DA90
:1006C00000200146704740F233439A42A2F233427F
:1006D00002DC5242FFF707BEFFF7F6BD30B5041E3D
:1006E00071F1000404DB4FF00044404264EB01016F
:1006F000141E73F1000405DB1C464FF00043524208
:1007000063EB0403994208BF904230BD064C074D8D
:1007100006E0E06840F0010394E8070098471034D1
:10072000AC42F6D3FFF734FD7C5800089C58000813
:10073000202A06DBCB17203A41FA02F043EAE073A5
:1007400006E041FA02F3D040C2F120029140084392
:100750001946704710B5141E73F1000408DA401CE6
:1007600041F1000192185B411A4301D120F00100D0
:1007700010BD2DE9F04D92469B4611B1B1FA81F2C0
:1007800002E0B0FA80F220329046FFF79DFD044669
:100790000F4640EA0A0041EA0B0153465A46084315
:1007A00013D0114653EA010019D0C8F14002504657
:1007B000FFF799FD05460E46504659464246FFF75B
:1007C00083FD084305D0012004E020463946BDE8FA
:1007D000F08D0020054346EAE0762C4337430A9823
:1007E0006305E40AA0EB08000022FD0A44EA47542E
:1007F0000A3002D500200146E9E7010510196941D8
:10080000DDE9084500196941BDE8F04DA2E770B582
:100810008C1810F8015B15F0070301D110F8013BAB
:100820002A1106D110F8012B03E010F8016B01F832
:10083000016B5B1EF9D12B0705D40023521E0DD48A
:1008400001F8013BFAE710F8013BCB1A921C03E0D8
:1008500013F8015B01F8015B521EF9D5A142D8D310
:10086000002070BD70B500250E4C00202060207166
:1008700060710021A171E071012020720321617279
:100880000021A172E1724104E160811E21612146D3
:10089000002000F0CCF805460DB1284670BD0020C0
:1008A000FCE70000C805002010B50024012006491F
:1008B00008710220C871002000F0B9F804460CB19C
:1008C000204610BD0020FCE7C805002070B50025BB
:1008D0000D4C00202060207160710021A171E07139
:1008E00001202072032161720021A172E172410492
:1008F000E160811E2161214600F099F805460DB1A5
:10090000284670BD0020FCE7DC0500200146086891
:1009100028B1C87918B10869B0F1FF3F02D14FF092
:10092000FF3070470020FCE710B50446002020602F
:100930000749087148710021054881710020044968
:10094000C87104F1080003F0B8FC002010BD0000DD
:10095000DC05002010B500240B48FFF7E5FF0B482D
:10096000FFF7E2FF0849002000F02AF804460CB126
:10097000204610BD0549012000F022F804460CB1C4
:100980002046F6E70020F4E7C8050020DC0500203B
:1009900010B50024142208490848FFF742FC022041
:1009A00006490871002000F042F804460CB12046C8
:1009B00010BD0020FCE70000DC050020C805002079
:1009C000F0B589B005460C460026202101A8FFF7A6
:1009D00041FC002715B940F2FE7701E040F2FF77B5
:1009E00001A9384604F0B2F9064616B1304609B0FE
:1009F000F0BD01A804F04CFA206002A804F04EFA01
:100A000020710DF1090004F049FA60710DF10A003E
:100A100004F044FAA0710DF10B0004F03FFAE0710C
:100A200004F1080101A803F025FC0020DFE770B500
:100A300088B005460C4620216846FFF70BFC0026CF
:100A400015B940F2FE7601E040F2FF766946206873
:100A500004F0ACFA207901A904F0AFFA60790DF145
:100A6000050104F0AAFAA0790DF1060104F0A5FA37
:100A7000E0790DF1070104F0A0FA04F108016846DD
:100A800003F024FC6946304604F09AF908B070BDC2
:100A900038B5054C25462346044A05A1002000959B
:100AA00000F07EF938BD0000000400084004000892
:100AB0003C25733E20626F6F742066696C65203C34
:100AC00025733E20617420253038780D0A0000001F
:100AD00000BF0024FFF789FC00F04EF900F0B1F9E7
:100AE00000F0AEF9FFF7D4FF00F076F80446114AA3
:100AF00011A1052000F054F974B900F035F804464E
:100B00003CB10C2C05D00B2C03D0012C01D0022CB5
:100B100002D10B4803F022FD0BE0204600F080F8E4
:100B2000084A09A1052000F03BF94FF4FA6000F0F3
:100B3000F1FFF2E70004000825730D0A0000000031
:100B400000000108100000202573000010B500F01F
:100B500051F900F075F902A1042000F021F910BD4F
:100B6000666565640D0A000070B50024002504F078
:100B70005FF903F029F905464DB1114A11A105208D
:100B800000F00EF9642000F0C5FF204670BD03F0B0
:100B900065FA044654B90C4A0AA1052000F000F990
:100BA0000A2000F0B7FF03F09DF804462CB9074A6D
:100BB00007A1052000F0F4F800E000BF2046E5E7BB
:100BC0009B000020257300004400002069000020E5
:100BD00025730D0A0000000070B5002403F004F92D
:100BE0000446012C05D103F0A7FA054600F018F8D9
:100BF00012E0022C0DD1002504F073F8054635B93A
:100C00004FF47A7000F086FF044803F0A7FC0E2032
:100C100070BD0CB90E20FBE70020F9E700000108C9
:100C200070B5054600240F26ADB1012407E00A483F
:100C300010F83400A84200D103E0601CC4B2B442F2
:100C4000F5DB00BF044800EBC400224603A1436863
:100C5000052000F0A5F870BDEC4F00085B4552522E
:100C60004F523A25645D3A25730000002DE9F843A0
:100C700004460D4616460027B84610E02B4622468D
:100C800001210948009600F0FBFA074617B93846DB
:100C9000BDE8F883052000F03DFF08F10108B8F138
:100CA000030FEBDB3846F3E7080100202DE9FC4198
:100CB00004460D4616460027B84613E040F6B83005
:100CC0002B4622460121CDE90060094800F02FFBA8
:100CD000074617B93846BDE8FC81052000F01AFF29
:100CE00008F10108B8F1030FE8DB3846F3E700002C
:100CF0000801002030B5024600200BE001238340AC
:100D00000B402BB1136845000324AC40A343136090
:100D1000431CD8B21028F1DB30BD30B502460020AC
:100D20000FE0012383400B404BB1136845000324BF
:100D3000AC40A34345000124AC4023431360431C53
:100D4000D8B21028EDDB30BD10B502F0C5FA02F0C4
:100D5000A7FA02F04DFB02F083FB00F00DF9044608
:100D60000CB1FFF744FB00F05DF8024801F038FEDB
:100D7000002010BD3001002010B50524034850F8B4
:100D8000242003A1002000F00BF810BD1401002066
:100D90004C6F67206C6576656C3A2025730D0A00F0
:100DA0000FB438B50446052C02DD38BC5DF814FBE1
:100DB00006A800900099059802F060FF00200090BE
:100DC00000BFF2E72DE9F04105460E461746052D16
:100DD00001DDBDE8F081002404E0315D03A002F0F4
:100DE0003DFF641CBC42F8D300BFF2E725303278E7
:100DF0002000000010B5094802784FF480710848BF
:100E000001F062F805480078401C04490870084663
:100E1000007800F00100087010BD00002C010020D7
:100E20000004024000BF41F2883004490968C862EA
:100E300001460248C16000BF704700003001002039
:100E4000704770477047FFF7D2FA00BFFEE7704760
:100E50007047704710B5024800F0C6FC10BD000096
:100E60003004002070477047014608781038182376
:100E7000B0FBF3F20848805CC865032A05D908680E
:100E80006FF30900001D886503E008686FF309002F
:100E90008865886D70470000CA4F00080146002031
:100EA0008A6A8B69CBB932B1012A0DD0022A03D0EC
:100EB000032A10D10EE000BFCB6A03F08073B3F1B8
:100EC000807F00D1012007E0CB6AB3F1C07F00D161
:100ED000012001E000E000BF34E08B69B3F5005F62
:100EE0001AD132B1012A07D0022A03D0032A11D124
:100EF0000AE000BF01200EE0CB6A03F08073B3F17B
:100F0000807F00D1012006E0CB6AB3F1C07F00D121
:100F1000012000E000BF15E032B1012A05D0022A0D
:100F200004D0032A0CD103E000BF00BF012008E079
:100F3000CB6A03F08073B3F1807F00D1012000E021
:100F400000BF00BF7047000010B5084B5968084B40
:100F50001B68084CB3FBF4F303FB00F200BF034B28
:100F60005B685B1A9342FAD310BD0000001000E0EA
:100F70000C00002040420F001148006800F0807013
:100F800090B90F48006840F080700D49086000205B
:100F90000C4948600846006820F0010008600846D7
:100FA000006840F00100086000BF00BF00BF0548B6
:100FB000406808B1002070474FF0FF30FBE70000A9
:100FC000FCED00E0001000E070477047704770478C
:100FD00010B5002201B909E0012901D10A0205E09A
:100FE000022901D10A0201E04FF440720E4B1B6846
:100FF00023F440730C4C236023461B681343236087
:1010000023461B6823F0F803236023461B68022451
:1010100044EAC0042343044C236023461B6843F482
:101020008033236010BD0000103C02401C48006863
:1010300000F40070B0B11A48006820F4007018493C
:10104000086000BF0846006840F400600860084679
:10105000006820F40060086000BF0846006840F4A3
:10106000007008600E48006800F48060B0B10C4861
:10107000006820F480600A49086000BF08460068E4
:1010800040F4805008600846006820F480500860F2
:1010900000BF0846006840F48060086070470000A8
:1010A000003C02400A4A126822F44072084B1A605F
:1010B0001A46126842F004021A601A4612684FF487
:1010C000803343EA00231A43014B1A607047000043
:1010D000103C0240074A126822F44072054B1A6025
:1010E0001A4612681A601A46126842F001021A6023
:1010F00001707047103C024010B50D49096821F499
:1011000040710B4C21602146096841F44071216017
:101110002146096841F001012160026000BF00BF63
:1011200000BFBFF36F8F00BF00BF00BF436010BDA3
:10113000103C0240084A126822F44072064B1A60C2
:101140001A46126842F480721A601A46126842F017
:1011500001021A6001807047103C0240084A126880
:1011600022F44072064B1A601A46126842F400726A
:101170001A601A46126842F001021A600160704754
:10118000103C02402348006800F0100040B12248A3
:10119000C06940F010002049C86110201D49086056
:1011A0001C48006800F0200040B11B48C06940F0B6
:1011B00008001949C86120201649086015480068D0
:1011C00000F0400040B11448C06940F004001249EA
:1011D000C86140200F4908600E48006800F0800098
:1011E00040B10D48C06940F002000B49C861802041
:1011F000084908600748006800F0020040B106484E
:10120000C06940F020000449C8610220014908601B
:10121000704700000C3C02409805002070B5044661
:10122000002500201449C86100F054FE054609E07D
:10123000601C38B124B100F04DFE401BA04201D922
:10124000032070BD0D48006800F480300028EFD105
:101250000A48006800F0010010B101200749086049
:101260000648006800F0F20018B1FFF78BFF01207C
:10127000E7E70020E5E70000980500200C3C02406D
:101280002DE9F04704460F4690469946DDF820A028
:101290000025206800F04EF907F00702A02343EA7A
:1012A0004201206800F00DF9206800F081F9054640
:1012B0002DB1206800F05DF92846BDE8F087414671
:1012C000204602F083FC054625B1206800F051F964
:1012D0002846F2E7206800F02DF907F00702A02366
:1012E00043EA4202511C206800F0EBF8206800F04D
:1012F0005FF9054625B1206800F03BF92846DCE798
:1013000000260DE0AAF10102B24201D0012200E064
:1013100000221146206800F093F809F80600761CB8
:101320005645EFD3206800F024F90020C5E72DE9E9
:10133000F05F04460F4690469946DDE90AAB00256A
:10134000206800F0F7F807F00702A02343EA420103
:10135000206800F0B6F8206800F02AF905462DB1A3
:10136000206800F006F92846BDE8F09F4146204677
:1013700002F02CFC054625B1206800F0FAF828465A
:10138000F2E700260FE019F80610206800F099F83F
:10139000206800F00DF9054625B1206800F0E9F855
:1013A0002846E1E7761C5645EDD3206800F0E1F8C9
:1013B0005A463946204602F01BFED5E710B50446D2
:1013C00021892068FFF7A9FC61890022606800F08C
:1013D0007BFD21890022206800F076FD0220FFF7C6
:1013E000B3FD61890122606800F06EFD0220FFF705
:1013F000ABFD61890022606800F066FD10BD10B58C
:10140000044621892068FFF788FC61890022606812
:1014100000F05AFD21890122206800F055FD0220CC
:10142000FFF792FD61890122606800F04DFD022006
:10143000FFF78AFD61890022606800F045FD10BD5C
:101440002DE9F04104460E4600252189012220683D
:1014500000F03AFD21892068FFF74CFC00271DE0D1
:1014600061890022606800F02FFD0220FFF76CFD0B
:1014700061890122606800F027FD0220FFF764FD0A
:101480006806050E2189206800F016FD08B1681C69
:10149000C5B20220FFF758FD781CC7B2082FDFDB6A
:1014A00061890022606800F00FFD012E03D1204603
:1014B000FFF784FF02E02046FFF7A1FF2846BDE8C2
:1014C000F08170B504460D4621892068FFF725FCA0
:1014D0000220FFF739FD002624E0618900226068C0
:1014E00000F0F2FC05F08003002B01DD012300E099
:1014F0000023002B01DD012300E000231A4621898F
:10150000206800F0E1FC6806050E0220FFF71CFDD4
:1015100061890122606800F0D7FC0220FFF714FD0A
:10152000701CC6B2082ED8DB61890022606800F00A
:10153000CBFC70BD10B5044621892068FFF7EDFB98
:1015400021890122206800F0BFFC0420FFF7FCFC89
:1015500061890122606800F0B7FC0420FFF7F4FC09
:1015600021890022206800F0AFFC0420FFF7ECFC8A
:1015700010BD10B5044621892068FFF7CEFB2189F4
:101580000022206800F0A0FC0420FFF7DDFC618948
:101590000122606800F098FC0420FFF7D5FC218947
:1015A0000122206800F090FC0420FFF7CDFC10BD64
:1015B00070B50446002521890122206800F084FCD2
:1015C00021892068FFF796FB0220FFF7BDFC6189A7
:1015D0000122606800F078FC0220FFF7B5FC06E00D
:1015E000681CC5B2FA2D02DD4FF0FF3070BD2189B5
:1015F000206800F061FC0028F2D161890022606857
:1016000000F062FC0020F1E7014600202C4A9142E4
:1016100003D2B1F1006F00D350E02A4A914204D2C4
:10162000274A914201D3012048E0274A914204D23F
:10163000244A914201D3022040E0244A914204D23C
:10164000214A914201D3032038E0214A914204D239
:101650001E4A914201D3042030E01E4A914204D236
:101660001B4A914201D3052028E01B4A914204D233
:10167000184A914201D3062020E0184A914204D230
:10168000154A914201D3072018E0154A914204D22D
:10169000124A914201D3082010E0124A914204D22A
:1016A0000F4A914201D3092008E00F4A914204D227
:1016B0000C4A914201D30A2000E00B207047000041
:1016C000004000080080000800C000080000010879
:1016D00000000208000004080000060800000808D6
:1016E00000000A0800000C0800000E080146002057
:1016F00029B1012903D0022901D0032902D14FF4D5
:10170000804005E0042901D1880301E04FF4003056
:10171000704770B50446A56D00F0DCFB064694F8F2
:101720003500022808D08020606500BF002084F8C2
:10173000340000BF012070BD2068006820F0160052
:10174000216808602068406920F0800021684861B5
:10175000206C08B9A06C28B12068006820F008004F
:10176000216808602068006820F001002168086096
:1017700010E000F0AFFB801B05280BD9202060652E
:10178000032084F8350000BF002084F8340000BF37
:101790000320D0E72068006800F001000028E8D1AD
:1017A00094F85C103F208840A860012084F8350040
:1017B00000BF002084F8340000BF00BFBBE7014633
:1017C00091F83500022803D0802048650120704739
:1017D000052081F835000868006820F001000A68DB
:1017E00010600020F3E70000F8B5044600200090E8
:1017F0008C4800684FF41651B0FBF1F7A56D2E68C8
:1018000094F85C1008208840304098B12068006847
:1018100000F0040070B12068006820F00400216826
:10182000086094F85C1008208840A860606D40F063
:101830000100606594F85C1001208840304068B178
:101840002068406900F0800040B194F85C100120ED
:101850008840A860606D40F00200606594F85C10FC
:1018600004208840304068B12068006800F0020021
:1018700040B194F85C1004208840A860606D40F08E
:101880000400606594F85C1010208840304078B304
:101890002068006800F0080050B394F85C10102035
:1018A0008840A8602068006800F4802080B120682B
:1018B000006800F4002028B9206CC8B12046216CD3
:1018C000884715E0A06C98B12046A16C88470FE0CE
:1018D0002068006800F4807028B92068006820F053
:1018E000080021680860206C10B12046216C8847F0
:1018F00094F85C10202088403040002865D0206893
:10190000006800F0100000285FD094F85C102020E0
:101910008840A86094F83500052828D12068006820
:1019200020F01600216808602068406920F08000DF
:1019300021684861206C08B9A06C28B12068006853
:1019400020F008002168086094F85C103F2088406F
:10195000A860012084F8350000BF002084F834001E
:1019600000BF206D10B12046216D8847F8BD20686A
:10197000006800F4802080B12068006800F4002036
:1019800028B9606C10B12046616C88471DE0E06B9F
:10199000D8B12046E16B884717E02068006800F462
:1019A000807068B92068006820F010002168086025
:1019B000012084F8350000BF002084F8340000BF07
:1019C000E06B10B12046E16B8847606D38B3606D05
:1019D00000F00100F0B1052084F8350020680068AF
:1019E00020F001002168086000BF0098401C0090B2
:1019F000B84200D905E02068006800F00100002826
:101A0000F3D100BF012084F8350000BF002084F826
:101A1000340000BFE06C10B12046E16C884700BF85
:101A2000A4E700000C0000202DE9F0410446002549
:101A300000F050FA074614B90120BDE8F081606A51
:101A400000B100BF022084F8350000BF002084F8F8
:101A5000340000BF2068006820F0010021680860A1
:101A60000AE000F037FAC01B052805D92020606580
:101A7000032084F83500E0E72068006800F00100EA
:101A80000028EED12068056821480540D4E901010D
:101A90000843E16808432169084361690843A16973
:101AA0000843E1690843216A08430543606A042842
:101AB00003D1D4E90B010843054320680560206881
:101AC000456925F00705606A0543606A04280DD161
:101AD000A06A0543E06A48B12046FFF7DFF928B164
:101AE00040206065012084F83500A6E72068456144
:101AF0002046FFF7B9F9064694F85C103F2088406D
:101B0000B06000206065012084F83500002094E773
:101B10003F8010F070B5044600F0DCF9064625461B
:101B2000681C10B104480078054400BF00F0D2F9E9
:101B3000801BA842FAD370BD080000202DE9F041B7
:101B400004460E460127002500BF2548007E0128D7
:101B500002D10220BDE8F08101202149087600BFB2
:101B60004CF25030FFF75AFB0746002F31D1401E90
:101B70003060206801280FD1207C6168FFF792FA5D
:101B80004CF25030FFF74AFB07461648006820F039
:101B90000400144908601AE0A56812E0217C284678
:101BA000FFF716FA4CF25030FFF738FB07460D48A6
:101BB000006820F0FA000B4908600FB1356005E0BD
:101BC0006D1CD4E902100844A842E7D800BFFFF713
:101BD0002DFA00BF00200249087600BF3846B9E759
:101BE00098050020103C02400348006840F0004087
:101BF0000149086000207047103C02402DE9F04187
:101C000006460F4614461D464FF0010800BF1F4808
:101C1000007E012802D10220BDE8F08101201B498D
:101C2000087600BF4CF25030FFF7F8FA8046B8F162
:101C3000000F23D126B9E1B23846FFF74BFA12E084
:101C4000012E04D1A1B23846FFF774FA0BE0022E40
:101C500004D121463846FFF781FA04E022462B469C
:101C60003846FFF749FA4CF25030FFF7D7FA804672
:101C70000748006820F001000549086000BF002007
:101C80000249087600BF4046C6E7000098050020DC
:101C9000103C024000200949096801F0004159B197
:101CA0000749064A0C3A1160064911600349096860
:101CB00001F0004101B1012070470000103C0240DA
:101CC00023016745AB89EFCDF8B502460B460025E9
:101CD000002400200021D5E0012606FA01F51E6847
:101CE00006EA0504AC4274D11E7906F00306012E03
:101CF00004D01E7906F00306022E13D190684F001F
:101D00000326BE40B0434F00DE68BE4030439060C3
:101D1000506801268E40B0431E79C6F300168E40EF
:101D2000304350601E7906F00306032E09D0D068B8
:101D30004F000326BE40B0434F009E68BE40304374
:101D4000D0601E7906F00306022E13D1CF0802F1EF
:101D5000200656F827004E07F70E0F26BE40B04368
:101D60004F07FF0E1E69BE403043CF0802F1200628
:101D700046F8270010684F000326BE40B0431E7986
:101D800006F003064F00BE40304310605E6806F464
:101D90004036002E75D000BF002600963B4E3668B8
:101DA00046F48046394F3E603E46366806F480462B
:101DB000009600BF00BF364E8F0856F827008E07EA
:101DC000370F0F26BE40B043324EB24202D100263A
:101DD00024E056E0304EB24201D101261EE02F4EE3
:101DE000B24201D1022619E02D4EB24201D10326A2
:101DF00014E02C4EB24201D104260FE02A4EB2422A
:101E000001D105260AE0294EB24201D1062605E09D
:101E1000274EB24201D1072600E008268F073F0F68
:101E2000BE4030431A4E8F0846F82700214E3068D6
:101E3000A0435E6806F4803606B120431D4E306034
:101E4000361D3068A0435E6806F4003606B12043B4
:101E5000184E361D3060361D3068A0435E6806F4AB
:101E6000801606B12043134E08363060361D3068A8
:101E7000A0435E6806F4001606B120430D4E0C36F2
:101E80003060491C1029FFF427AFF8BD44380240E8
:101E900008380140000002400004024000080240EF
:101EA000000C0240001002400014024000180240E2
:101EB000001C0240003C0140024613690B400BB17C
:101EC000012000E0002070470AB1816101E00B04AD
:101ED00083617047014800687047000000000020DF
:101EE00003480068034909780844014908607047BD
:101EF000000000200800002010B50D48006840F4E4
:101F000000700B4908600846006840F48060086073
:101F10000846006840F480700860032000F0C8F8AC
:101F20000F2000F007F800F04BF8002010BD000073
:101F3000003C024070B588B004460025002600220F
:101F40002146192000F076F8192000F063F800BF50
:101F5000002001901648006840F001001449086014
:101F60000846006800F00100019000BF00BF02A910
:101F700003A800F095F900F0CBF945000D48B5FB3A
:101F8000F0F0461E0C480D49086040F2E7310B485E
:101F9000C160466000210161816000F0CBFC20B986
:101FA000064800F01DFD08B070BD0120FBE70000F1
:101FB0004438024040420F0000000140500500201C
:101FC00008B500BF002000901148006840F4804030
:101FD0000F4908600846006800F48040009000BF88
:101FE00000BF00BF00200090081F006840F0805034
:101FF000091F08600846006800F08050009000BF8C
:1020000000BF00220F21901E00F014F808BD000050
:102010004438024001460846002809DB00F01F034F
:1020200001229A4043099B0003F1E023C3F80021F9
:1020300000BF70472DE9F05F80460D461646002729
:1020400001F024FE074639462A46334601F00700D0
:10205000C0F1070ABAF1040F02D94FF0040A01E0F7
:10206000C0F1070AD14600F1040ABAF1070F02D203
:102070004FF0000A01E0A0F1030AD4464FF0010A34
:102080000AFA09FAAAF1010A0AEA020A0AFA0CFA99
:102090004FF0010B0BFA0CFBABF1010B0BEA030B3E
:1020A0004AEA0B042146404601F0F8FDBDE8F09FE6
:1020B00000BF00F00702064B19684FF6FF031940F6
:1020C000044B0B4343EA0221014B196000BF7047E8
:1020D0000CED00E00000FA0500BF00BF00BF00BF2C
:1020E00000BFBFF34F8F00BF00BF00BF09480068AB
:1020F00000F4E06008490843001D0649086000BF7D
:1021000000BF00BFBFF34F8F00BF00BF00BF00BFC5
:1021100000BFFDE70CED00E00000FA0570B50446D5
:102120000D460CB9012070BD5848006800F007004A
:10213000A84209D255490D700846006800F0070012
:10214000A84201D00120EEE7207800F0020002282A
:102150001DD1207800F00400042805D14C48006807
:1021600040F4E0504A490860207800F00800082850
:1021700005D14748006840F460404549086044483C
:10218000006820F0F000A168084341490860207809
:1021900000F00100A8B36068012807D13C48083866
:1021A0000068C0F34040B8B90120BCE7606802286D
:1021B00002D06068032807D1354808380068C0F3AA
:1021C000406048B90120AEE7314808380068C0F3E4
:1021D000400008B90120A6E72D48006820F0030060
:1021E000616808432A490860FFF774FE064609E063
:1021F000FFF770FE801B41F28831884202D903202C
:1022000091E707E02248006800F00C006168B0EB3D
:10221000810FEDD11D48006800F00700A84209D9E0
:102220001A490D700846006800F00700A84201D066
:10223000012078E7207800F00400042807D1144832
:10224000006820F4E050E1680843114908602078F4
:1022500000F00800082808D10D48006820F460400C
:10226000216940EAC1000A49086000F061F80849A4
:102270000968C1F30311074A515CC8400649086068
:1022800006480068FFF756FE00204CE7003C02407D
:1022900008380240D24F00080C0000200400002043
:1022A0000F2202600D4A126802F0030242600B4ADC
:1022B000126802F0F0028260084A126802F4E052EA
:1022C000C260064A126802F46042D2080261044AFF
:1022D000126802F007020A607047000008380240E6
:1022E000003C024001480068704700000C000020DC
:1022F00000B5FFF7F7FF04490968C1F38221034ADB
:10230000515CC84000BD000008380240E24F0008A0
:1023100000B5FFF7E7FF04490968C1F34231034AFA
:10232000515CC84000BD000008380240E24F000880
:102330002DE9F047002400250026A1462548006825
:1023400000F00C0020B1042805D008283AD105E09F
:10235000DFF8849039E0DFF8849036E01D48001FF4
:10236000006800F03F041B48001F006800F4800074
:1023700078B11A481749091F0968C1F38811A0FBF1
:1023800001700146224600233846FDF719FF054635
:102390000EE011480F49091F0968C1F38811A0FB1D
:1023A00001700146224600233846FDF709FF054625
:1023B0000848001F0068C0F30140401C4600B5FB00
:1023C000F6F902E0DFF8109000BF00BF4846BDE814
:1023D000F0870000083802400024F40000127A0060
:1023E000F8B504460CB90120F8BD207800F00100D2
:1023F000002874D0F948006800F00C0004280DD0C3
:10240000F648006800F00C00082813D1F348001FBC
:10241000006800F48000B0F5800F0BD1EF48083859
:102420000068C0F34040002859D06068002856D1A9
:102430000120D9E700BF6068B0F5803F08D1E748C8
:102440000838006840F48030E449083908601EE02C
:102450006068B0F5A02F0DD1E0480838006840F45E
:102460008020DE49083908600846006840F4803062
:1024700008600CE0D9480838006820F48030D7495B
:10248000083908600846006820F48020086000BF12
:10249000606890B1FFF71EFD054606E0FFF71AFDE4
:1024A000401B642801D903209EE7CC480838006807
:1024B000C0F340400028F1D011E0FFF70BFD0546C6
:1024C00006E0FFF707FD401B642801D903208BE7D6
:1024D000C24808380068C0F340400028F1D1207895
:1024E00000F0020002285FD1BC48006800F00C0038
:1024F00058B1BA48006800F00C0008281CD1B74851
:10250000001F006800F48000B0B9B44808380068C3
:10251000C0F3400020B1E068012801D0012063E74A
:10252000AE480838006820F0F800216940EAC10090
:10253000AA490839086037E0E06800B30120A849DB
:102540000860FFF7C7FC054606E0FFF7C3FC401B29
:10255000022801D9032047E7A04808380068C0F3E3
:1025600040000028F1D09D480838006820F0F800AD
:10257000216940EAC10099490839086014E0002047
:1025800097490860FFF7A6FC054606E0FFF7A2FCA6
:10259000401B022801D9032026E79048083800682C
:1025A000C0F340000028F1D1207800F0080008288E
:1025B0002CD16069A8B101208A490860FFF78AFC24
:1025C000054606E0FFF786FC401B022801D90320E0
:1025D0000AE782486C300068C0F340000028F1D060
:1025E00014E000207F490860FFF774FC054606E010
:1025F000FFF770FC401B022801D90320F4E677485E
:102600006C300068C0F340000028F1D1207800F061
:102610000400042870D1002770483830006800F0AA
:10262000805090B900BF002000906C48383000689E
:1026300040F080506949383108600846006800F071
:102640008050009000BF00BF01276748006800F479
:102650008070B0B96448006840F4807062490860D6
:10266000FFF738FC054606E0FFF734FC401B022864
:1026700001D90320B8E65C48006800F480700028A7
:10268000F2D000BFA068012808D154486830006823
:1026900040F001005149683108601DE0A06805283C
:1026A0000DD14E486830006840F004004B49683155
:1026B00008600846006840F0010008600CE04748E8
:1026C0006830006820F0010044496831086008461D
:1026D000006820F00400086000BFA068A8B1FFF700
:1026E000F9FB054609E0FFF7F5FB401B41F2883195
:1026F000884202D9032077E626E03848683000682F
:10270000C0F340000028EED013E0FFF7E3FB0546DE
:1027100008E0FFF7DFFB401B41F28831884201D916
:10272000032061E62D4868300068C0F340000028AF
:10273000EFD1012F07D129483830006820F08050B0
:1027400026493831086000BFA069002845D02348D9
:10275000006800F00C0008285DD0A069022845D16F
:1027600000201F490866FFF7B5FB054606E0FFF7A6
:10277000B1FB401B022801D9032035E61748083871
:102780000068C0F340600028F1D1D4E90701084394
:10279000616A40EA81110122A06AC2EB500041EA5D
:1027A00000412C20005D41EA00600C49091F0860CF
:1027B00001200B490866FFF78DFB054606E0FFF791
:1027C00089FB401B022801D903200DE60348083885
:1027D0000068C0F340600028F1D049E008380240AA
:1027E00000004742800E474200700040002021490F
:1027F0000866FFF76FFB054606E0FFF76BFB401B23
:10280000022801D90320EFE51B480068C0F34060AF
:102810000028F2D12CE0A069012800D1E4E5164897
:10282000001D0668A069012820D006F48001E06937
:1028300081421BD106F03F01206A814216D147F642
:10284000C0703040616AB0EB811F0FD106F4403197
:102850000122A06AC2EB5000B1EB004F06D106F096
:1028600070612C20005DB1EB006F01D00120BBE551
:102870000020B9E500004742003802407047704729
:1028800030B502460B4600BF92F83C00012801D14A
:10289000022030BD012082F83C0000BF022082F8F7
:1028A0003D00106844681068816824F0700418685E
:1028B000044310684460184D1068A8421BD010688B
:1028C000B0F1804F17D0154D1068A84213D0144DA9
:1028D0001068A8420FD0134D1068A8420BD0124DBB
:1028E0001068A84207D0114D1068A84203D0104DBF
:1028F0001068A84205D121F0800158680143106892
:102900008160012082F83D0000BF002082F83C0079
:1029100000BF00BFBDE70000000001400004004010
:1029200000080040000C004000040140004001404D
:102930000018004010B504460CB9012010BD94F8F1
:102940003D0028B9002084F83C00204600F026F81D
:10295000022084F83D00211D206800F023FE0120A4
:1029600084F8460000BF84F83E0001213F20015555
:10297000402001554120015500BF00BF012084F8CF
:10298000420043200155442001554520015500BF18
:10299000012084F83D000020D0E7000038B504464F
:1029A0002068B0F1804F17D100BF002000900B4885
:1029B000006840F00100094908600846006800F01E
:1029C0000100009000BF00BF00220B211C20FFF778
:1029D00031FB1C20FFF71EFB38BD000040380240D1
:1029E000014691F83D00012801D0012070470220E6
:1029F00081F83D000868C06840F001000B68D860AD
:102A00001A4B086898421BD00868B0F1804F17D065
:102A1000174B0868984213D0164B086898420FD09D
:102A2000154B086898420BD0144B0868984207D0A1
:102A3000134B0868984203D0124B086898420CD197
:102A40000868806800F00702062A0CD00868006851
:102A500040F001000B68186005E00868006840F06D
:102A600001000B6818600020C0E700000000014072
:102A70000004004000080040000C00400004014039
:102A800000400140001800402DE9F04104460D4689
:102A9000002700BF94F83C00012802D10220BDE8C5
:102AA000F081012084F83C0000BF022084F83D0042
:102AB0002068866826F0770626F47F4620688660C0
:102AC0002868502833D00CDC202850D004DC0028A3
:102AD0004BD0102851D149E0302849D040284CD162
:102AE00039E060282DD0702807D0B0F5805F03D082
:102AF000B0F5005F41D10DE041E0D5E902136A680D
:102B0000206800F0BBFD2068866846F077062068E4
:102B1000866034E0D5E902136A68206800F0AEFDF3
:102B20002068806840F480402168886027E0EA6877
:102B30006968206800F0B6FD5021206800F0A9FD0A
:102B40001DE0EA686968206800F0BFFD6021206828
:102B500000F09FFD13E0EA686968206800F0A2FDBC
:102B60004021206800F095FD09E000BF00BF00BFD4
:102B70002968206800F08DFD01E0012700BF00BF3B
:102B8000012084F83D0000BF002084F83C0000BF15
:102B9000384684E7704710B5044620680069C0F3E2
:102BA0004000D8B12068C068C0F34000B0B16FF0F9
:102BB000020021680861012020772068806900F008
:102BC000030018B12046FFF7E5FF05E0204600F0BE
:102BD000ADF8204600F0ABF80020207720680069AF
:102BE000C0F38000D8B12068C068C0F38000B0B1E5
:102BF0006FF0040021680861022020772068806956
:102C000000F4407018B12046FFF7C4FF05E02046ED
:102C100000F08CF8204600F08AF800202077206829
:102C20000069C0F3C000D8B12068C068C0F3C0001C
:102C3000B0B16FF008002168086104202077206897
:102C4000C06900F0030018B12046FFF7A3FF05E0BC
:102C5000204600F06BF8204600F069F8002020774D
:102C600020680069C0F30010D8B12068C068C0F3C4
:102C70000010B0B16FF010002168086108202077C3
:102C80002068C06900F4407018B12046FFF782FF49
:102C900005E0204600F04AF8204600F048F8002001
:102CA00020772068006900F0010058B12068C068F2
:102CB00000F0010030B16FF001002168086120468A
:102CC00000F036F820680069C0F3C01058B12068E1
:102CD000C068C0F3C01030B16FF080002168086197
:102CE0002046FFF7CBFD20680069C0F3801058B183
:102CF0002068C068C0F3801030B16FF040002168D8
:102D00000861204600F026F820680069C0F34010F2
:102D100058B12068C068C0F3401030B16FF0200097
:102D2000216808612046FFF7AAFD10BD7047704773
:102D300010B5044606492068884201D1FFF7D0F853
:102D40002068B0F1804F01D1FDF700FF10BD0000F9
:102D50000000014070477047704700002DE9F84FB0
:102D60000446206805682068C668206847694FF0F7
:102D70000009CA4605F00F09B9F1000F0AD105F0A4
:102D8000200038B106F0200020B1204600F003FDFD
:102D9000BDE8F88FB9F1000F7CD007F0010018B939
:102DA00006F49070002875D005F0010030B106F4EB
:102DB000807018B1206C40F00100206405F0040020
:102DC00030B107F0010018B1206C40F0020020641F
:102DD00005F0020030B107F0010018B1206C40F09E
:102DE0000400206405F0080048B106F0200010B986
:102DF00007F0010018B1206C40F008002064206C3E
:102E0000002846D005F0200028B106F0200010B1BF
:102E1000204600F0C0FC20684069C0F3801A206C96
:102E200000F0080010B9BAF1000F2DD0204600F0D4
:102E30006CFC2068406900F04000402820D100BFB1
:102E400000BF2168143151E8001F21F040002168C3
:102E5000143141E80002002AF3D100BFA06B50B149
:102E60007548A16B0865A06BFEF7A9FC88B1A06B43
:102E7000016D88470DE02046FFF76EFF09E009E08D
:102E80002046FFF769FF04E02046FFF765FF0020BA
:102E900020647DE7206B012876D105F01000002822
:102EA00072D006F010000028FAD000BF0020009079
:102EB00020680068009020684068009000BF00BF54
:102EC0002068406900F0400040285ED1A06B006897
:102ED00040681FFA80F8B8F1000F54D0A08D40452B
:102EE00051DDA4F82E80A06BC069B0F5807F43D07F
:102EF00000BF00BF21680C3151E8001F21F4807031
:102F000021680C3141E80002002AF3D100BF00BF64
:102F100000BF2168143151E8001F21F00100216831
:102F2000143141E80002002AF3D100BF00BF00BF06
:102F30002168143151E8001F21F04000216814314C
:102F400041E80002002AF3D100BF202084F83E00AF
:102F50000020206300BF00BF21680C3151E8001F32
:102F600021F0100021680C3141E80002002AF3D161
:102F700000BFA06BFEF7CDFBA08DE28D801A81B261
:102F80002046FFF7E8FE03E740E0A08DE18D401A00
:102F90001FFA80F8E08DC0B3B8F1000F35D000BF44
:102FA00000BF21680C3151E8001F21F490702168A6
:102FB0000C3141E80002002AF3D100BF00BF00BF7E
:102FC0002168143151E8001F21F0010021681431FB
:102FD00041E80002002AF3D100BF202084F83E001F
:102FE0000020206300BF00BF21680C3151E8001FA2
:102FF00021F0100021680C3141E80002002AF3D1D1
:1030000000BF41462046FFF7A6FEC1E605F080005E
:1030100030B106F0800018B1204600F04FFDB7E651
:1030200005F0400030B106F0400018B1204600F035
:10303000A2FBADE600BFABE6F736000810B50446CC
:103040000CB9012010BDA06900B100E000BF94F8E8
:103050003D0028B9002084F83C00204600F028F804
:10306000242084F83D002068C06820F400502168C6
:10307000C860204600F00CFC2068006920F49040F5
:10308000216808612068406920F02A0021684861B1
:103090002068C06840F400502168C86000202064A7
:1030A000202084F83D0084F83E000020CAE700009C
:1030B00010B586B00446142101A8FDF7CBF83749B6
:1030C0002068884268D036492068884264D03549F3
:1030D0002068884260D034492068884257D100BFB8
:1030E000002000903148006840F400302F4908600B
:1030F0000846006800F40030009000BF00BF00BF29
:103100000020009029481038006840F0010027494D
:10311000103908600846006800F00100009000BF08
:1031200000BF0C2001900220029001200390049027
:103130000720059001A91E48FEF7C6FD1D481E493F
:1031400008604FF00060486000211B488160C1604A
:103150004FF4806101610021416181614FF4807110
:10316000C161002101624162FEF75EFC08B1FDF71A
:103170002EFF00BF1048A063846300BF0122072117
:103180002620FEF757FF2620FEF744FF04E00B49F8
:103190002068884200D000BF06B010BD004C00403F
:1031A0000050004000100140004400404038024000
:1031B00000000240886002403004002000480040C7
:1031C00070472DE9F84F04460E46174699464FF0D2
:1031D000000A94F83D0020285AD106B117B9012001
:1031E000BDE8F88F00BF94F83C00012801D102200F
:1031F000F6E7012084F83C0000BF00202064212075
:1032000084F83D00FEF766FE8246A784E784A06846
:10321000B0F5805F04D1206910B90025B04602E006
:1032200035464FF0000800BF002084F83C0000BF86
:103230001BE05346002280212046CDF8009000F08C
:103240006DFC08B10320CBE745B9B8F80000C0F326
:1032500008002168486008F1020803E02878216826
:1032600048606D1CE08C401EE084E08C0028E0D1BA
:103270005346002240212046CDF8009000F04EFC3D
:1032800008B10320ACE7202084F83D000020A7E728
:103290000220A5E77047FDF7AAF800BFFEE700008F
:1032A00008B500BF002000900A48006840F40010F4
:1032B000084908600846006800F40010009000BF4C
:1032C00000BF002205211020FEF7B4FE1020FEF7FB
:1032D000A1FE08BD3038024000B587B0142102A815
:1032E000FCF7B8FF00BF002001903D48006840F0A7
:1032F00010003B4908600846006800F0100001908B
:1033000000BF00BF00BF002001900846006840F0E9
:10331000040008600846006800F00400019000BF47
:1033200000BF00BF002001900846006840F0800008
:1033300008600846006800F08000019000BF00BFF0
:1033400000BF002001900846006840F001000860BE
:103350000846006800F00100019000BF00BF00BFF8
:10336000002001900846006840F00200086008460E
:10337000006800F00200019000BF00BF00BF002005
:1033800001900846006840F00800086008460068A0
:1033900000F00800019000BF00BF881502900120D6
:1033A000039000200490059002A90E48FEF78CFCC3
:1033B0004FF4C0500290012003900490059002A9A0
:1033C0000948FEF781FC04200290012003900020B0
:1033D0000490059002A90548FEF776FC07B000BDF1
:1033E0003038024000040240000002400010024059
:1033F00000B587B0002003900490059006900190DE
:1034000002904FF080401549086042F2CF004860BA
:1034100000211248816042F21071C16000210161F7
:1034200080218161FFF786FA08B1FDF7D0FD4FF4E6
:103430008050039003A90948FFF726FB08B1FDF768
:10344000C6FD00200190029001A90448FFF718FA78
:1034500008B1FDF7BCFD07B000BD00003001002041
:1034600010B50B480B4908604FF4E130486000216B
:1034700008488160C16001610C21416100218161C6
:10348000C161FFF7DBFD08B1FDF7A1FD10BD000034
:103490000044004044020020FCF7A9FF00BFFEE703
:1034A000FCF7A5FF00BFFEE7014608687047000073
:1034B00000B593B0302107A8FCF7CCFE142102A878
:1034C000FCF7C8FE00BF002001902548006840F0CE
:1034D0008050234908600846006800F08050019041
:1034E00000BF00BF00BF002001901E48006840F4EC
:1034F00080401C4908600846006800F48040019044
:1035000000BF00BF0120079000040890012009902F
:103510000C9002200D9041050E9104210F91A821DD
:103520001091022111910421129107A8FEF758FF72
:1035300008B1FDF74CFD0F200290022003900020FF
:1035400004904FF4A05005904FF480500690052150
:1035500002A8FEF7E3FD08B1FDF739FD13B000BD89
:1035600040380240007000400548006840F4700098
:10357000034908604FF000600149803908607047D6
:1035800088ED00E010B50248FFF705FB10BD000014
:103590005005002010B50248FFF7FDFA10BD0000ED
:1035A0003001002010B50268294B98420ED0B0F1CE
:1035B000804F0BD0274B984208D0274B984205D01C
:1035C000264B984202D0264B984203D122F070023B
:1035D0004B681A431E4B984220D0B0F1804F1DD04B
:1035E0001C4B98421AD01C4B984217D01B4B984248
:1035F00014D01B4B984211D01A4B98420ED01A4B44
:1036000098420BD0194B984208D0194B984205D0DC
:10361000184B984202D0184B984203D122F44072C2
:10362000CB681A4322F080034C6943EA040202602B
:103630008B68C3620B688362054B984202D0084BCB
:10364000984201D10B6903630123436110BD00005F
:10365000000001400004004000080040000C004051
:103660000004014000400140004401400048014086
:1036700000180040001C00400020004030B50C46FF
:10368000816821F47F4142EA032525432943816073
:1036900030BD0A46816821F0700142F007031943EA
:1036A0008160704730B50B461446026A056A25F002
:1036B00001050562816921F0F00141EA041122F05F
:1036C0000A021A438161026230BD30B50B461446CE
:1036D000056A25F0100505628169026A21F47041CE
:1036E00041EA043122F0A00242EA0312816102623F
:1036F00030BD7047704770B50546AC6B0020E08563
:10370000E0842046FFF728FB70BD00BF00BF0268C1
:103710000C3252E8002F22F4907102680C3242E819
:103720000013002BF3D100BF00BF00BF02681432AA
:1037300052E8002F22F001010268143242E800131F
:10374000002BF3D100BF016B01290ED100BF00BFD8
:1037500002680C3252E8002F22F0100102680C328D
:1037600042E80013002BF3D100BF202180F83E1067
:1037700000210163704710B504462068C06820F03E
:1037800040002168C860202084F83D002046FFF7F3
:1037900081FD002010BDF8B5044694F83E002228B3
:1037A00073D1A068B0F5805F0CD1206950B90025B5
:1037B000A66A20684068C0F308003080A06A801CB8
:1037C000A06215E0A56A0026A068B0F5805F03D06E
:1037D000A06828B9206918B920684068287004E0FA
:1037E0002068406800F07F002870A06A401CA0623A
:1037F000E08D401E80B2E085002844D12068C0687A
:1038000020F020002168C8602068C06820F4807023
:103810002168C8602068406920F001002168486183
:10382000202084F83E00206B012826D10020206350
:1038300000BF00BF21680C3151E8001F21F01000CB
:1038400021680C3141E80002002AF3D100BF206852
:10385000006800F0100010280AD100BF002000907E
:1038600020680068009020684068009000BF00BF9A
:10387000A18D2046FFF76FFA02E02046FFF7A0FC7B
:103880000020F8BD01E00020FBE70220F9E700007E
:103890002DE9F84F04462068006920F44050E168A3
:1038A0000843216808612169A068084361690843E9
:1038B000E169084300902068C06849F20C618843C0
:1038C000009908432168C8602068406920F440706E
:1038D000A16908432168486176492068884203D07D
:1038E00075492068884203D1FEF712FD814602E047
:1038F000FEF7FEFC8146E069B0F5004F6CD1022076
:103900006168A0FB015003461920A9FB0070014625
:103910002A463846FCF754FC6421B0FBF1F04FEA2C
:10392000001A02206168A0FB01510B461920A9FB77
:1039300000712A463846FCF743FC83460220616842
:10394000A0FB015003461920A9FB00712A46384606
:10395000FCF736FC6421B0FBF1F000EBC00101EB99
:103960000010ABEB8000322101EBC0006421B0FB02
:10397000F1F000F0F8000AEB400A02206168A0FBB9
:10398000015003461920A9FB007001462A4638461B
:10399000FCF716FC834602206168A0FB0150034639
:1039A0001920A9FB00712A463846FCF709FC64215E
:1039B000B0FBF1F000EBC00101EB0010ABEB8000BD
:1039C000322101EBC0006421B0FBF1F000F00700F0
:1039D0005044216888606AE004206168A0FB0150BF
:1039E00003461920A9FB007001462A463846FCF719
:1039F000E7FB824604206168A0FB015003461920C2
:103A0000A9FB007001462A463846FCF7D9FB642121
:103A1000B0FBF1F000EBC00101EB0010AAEB80005D
:103A2000322101EB00106421B0FBF1F000F0F00A4C
:103A300004206168A0FB017003461920A9FB005116
:103A40003A462846FCF7BCFB6421B0FBF1F00AEBD8
:103A5000001A04206168A0FB01510B461920A9FB44
:103A600000712A463846FCF7ABFB834604206168A8
:103A7000A0FB015003461920A9FB007001462A460D
:103A80003846FCF79DFB6421B0FBF1F000EBC00170
:103A900001EB0010ABEB8000322101EB0010642140
:103AA000B0FBF1F000F00F00504421688860BDE8E1
:103AB000F88F00000010014000140140014691F809
:103AC0003D00212828D18868B0F5805F0BD10869B6
:103AD00048B90A6A1088C0F308000B685860086A81
:103AE000801C086205E00B6A581C086218780B6895
:103AF0005860C88C401E80B2C88458B90868C06835
:103B000020F080000B68D8600868C06840F0400072
:103B10000B68D860002070470220FCE72DE9F041D7
:103B200004460D4617469846069E34E0701C88B33E
:103B30002EB1FEF7CFF9A0EB0800B0422BD900BFA1
:103B400000BF21680C3151E8001F21F4D0702168BA
:103B50000C3141E80002002AF3D100BF00BF00BFD2
:103B60002168143151E8001F21F00100216814314F
:103B700041E80002002AF3D100BF202084F83D0074
:103B800084F83E0000BF002084F83C0000BF032002
:103B9000BDE8F081FFE7206800682840A84201D115
:103BA000012000E00020B842C0D00020F0E77047BC
:103BB00010B50248FFF7D2F810BD00004402002003
:103BC00070477047FCF713FC00BFFEE72DE9F0419A
:103BD00005460C4600262879012815D12746E2170C
:103BE00004EB12621212A4EB0222D1B22868FDF794
:103BF00068FC2868FDF7DCFC06466EB32868FDF714
:103C0000B8FC3046BDE8F0812746E21704EB1262AB
:103C1000C2F307212868FDF754FC2868FDF7C8FCAB
:103C2000064626B12868FDF7A4FC3046EAE7274699
:103C3000E21704EB12621212A4EB0222D1B228683E
:103C4000FDF73FFC2868FDF7B3FC064626B128685F
:103C5000FDF78FFC3046D5E70020D3E70FB4054BC6
:103C600010B503A9044A029800F0A4FC10BC5DF84A
:103C700014FB0000354E000810010020014B024AE1
:103C800000F098BC354E0008100100200248006882
:103C9000C0F30220704700000CED00E010B50028D2
:103CA00004DB0A07130E054A135406E00A07140E34
:103CB000034A00F00F031B1FD45410BD00E400E0C2
:103CC00018ED00E002E008C8121F08C1002AFAD16E
:103CD00070477047002001E001C1121F002AFBD18C
:103CE000704700007CB50020019033480569C46826
:103CF00001A800F0DFF800284ED1204600F058FA65
:103D000001902A4621462D4800F060F901909DF867
:103D1000040000B3B4F5003F06D82A4621462848DF
:103D200000F054F9019009E0A4F50033254A4FF45E
:103D300000312348009500F0E3F901909DF804005C
:103D400050B9204600F034FA01902A4621461B481B
:103D500000F03CF9019011E000F0DCFAFCF7B6FD50
:103D600000F0BFFF20B9FCF79FFD0A20019001E0A1
:103D70000D2001904FF47A70FDF7CCFE9DF8040001
:103D800090B900F0C7FAFCF703FEFCF79FFD4FF473
:103D90007A70FDF7BFFE07E09DF80400012803D10B
:103DA00000F0B8FAFCF792FD9DF80400FCF738FF2C
:103DB0009DF804007CBD0000DC0500200000010827
:103DC000000004080080000810B50024FCF7C2FDC4
:103DD00004461CB1FCF746FDFCF778FD0CB120460B
:103DE00010BD0020FCE7000010B592B000240020B8
:103DF0001190402101A8FCF72DFA012211A91D48BC
:103E000001F094F8102201A91B4801F08FF81198D5
:103E1000B0F1FF3F0BD01948016801A8FCF725FA63
:103E200028B144F0010416A10520FCF7B9FF0020D9
:103E30001190402101A8FCF70DFA012211A91548A3
:103E400001F074F8102201A9134801F06FF81198DD
:103E5000B0F1FF3F0BD00948016801A8FCF705FA53
:103E600028B144F002040DA10520FCF799FF20467B
:103E700012B010BD000001080004010864500008E1
:103E80004150502066696C652065786973740D0A2D
:103E90000000000000000608000406084661637484
:103EA0006F72792066696C652065786973740D0A94
:103EB000000000002DE9F04788B004464FF00109EA
:103EC000DFF8D0A020216846FCF7C4F900270026BF
:103ED00031A10520FCF764FF002020703148016803
:103EE000C068814202D00B2020704FE02E4801694B
:103EF0002C480069814202D10C20207046E04FF02E
:103F00000708002508226946504601F00FF86A4666
:103F100026A10420FCF744FF00BF1FE0254850F80D
:103F2000350000B91CE0234951F83500FCF7AFF922
:103F3000C7B200260AE01DF806001E4951F83510E8
:103F4000895D884200D003E0701CC6B2BE42F2DB3D
:103F500000BFBE4200D103E0681CC5B24545DDDBB1
:103F600000BFA8F10100A84202DC012020700CE093
:103F7000BE420AD13DB90020207081460EA1052025
:103F8000FCF70EFF01E00220207000BF484608B099
:103F9000BDE8F08700040408504E5F434F44453AA3
:103FA00000000000DC050020C805002025730D0A74
:103FB000000000006450000866696E64206E65773A
:103FC000206170702066696C650D0A002DE9F04172
:103FD00005460E46144600273146284600F0A0FE4E
:103FE0000746A74202D00420BDE8F0810020FBE78D
:103FF0002DE9F04104460D4616460027FDF76AFFFD
:10400000804600BFFDF766FFA0EB0800B04206D96E
:104010002068FDF7AEFA4FF0FF30BDE8F0811420C4
:10402000FCF792FF2068FDF785FA05F00702A02350
:1040300043EA4202511C2068FDF743FA2068FDF76D
:10404000B7FA074600212068FDF7FAF92068FDF766
:1040500090FA002FD6D10020DFE7000038B5002508
:10406000244C2046FCF752FC08B10C2038BD2168D6
:10407000E068814201D00B2522E000202168B1F5E3
:10408000203F01D903251AE02168B1F5003F0AD984
:104090002168A1F50031184A88180168B1F1FF3F85
:1040A0000DD00A250BE0216841B1144A2168881817
:1040B0000168B1F1FF3F02D00A2500E0032500BFEF
:1040C000B5B92068B0F5003F0CD920690090206890
:1040D000A0F50033084A4FF40031084800F010F80A
:1040E000054605E0054822692168FFF76FFF054690
:1040F0002846BBE7DC05002000800008000004081B
:104100002DE9F0470746884614461D46DDF8209005
:1041100000264146384600F003FE0646F243294693
:10412000204600F0E7FD06464E4502D00420BDE8DB
:10413000F0870020FBE7000010B5002408A105204F
:10414000FCF72EFE4FF400320D490E4800F017F92F
:1041500004460DA10520FCF723FE204610BD0000FB
:10416000537461727420636F707920415050312014
:10417000746F20466163746F72792E2E2E0D0A00C3
:10418000000006080000010853746F702C636F7004
:1041900079204150503120746F20466163746F72F2
:1041A000792066696E6973682121210D0A0000007B
:1041B00070B504460025B4F5003F06D822460B49E9
:1041C0000B4800F0DCF805460DE04FF400320749DB
:1041D000074800F0D4F80546A4F500320549064822
:1041E00000F0BAF80546284670BD0000000001083E
:1041F00000000408000003080080000810B5002437
:1042000008A10520FCF7CCFD4FF400320D490E4803
:1042100000F0B5F804460DA10520FCF7C1FD2046CD
:1042200010BD0000537461727420636F7079204672
:104230006163746F727920746F20415050312E2E5B
:104240002E0D0A00000001080000060853746F706C
:104250002C636F707920466163746F727920746F7C
:1042600020415050312066696E6973682121210D0B
:104270000A00000070B505460C4605F1080000F084
:104280000DFE207005F1090000F008FE607005F1D8
:104290000A0000F003FEA07005F10B0000F0FEFD27
:1042A000E07005F10C0000F0F3FD606005F1100016
:1042B00000F0EEFDA060002070BD014600200870F7
:1042C00048708870C87048608860704770B5044650
:1042D0000D46287804F1080100F06FFE687804F1BB
:1042E000090100F06AFEA87804F10A0100F065FEF9
:1042F000E87804F10B0100F060FE04F10C0168683D
:1043000000F054FE04F11001A86800F04FFE0020F8
:1043100070BD000010B508A10420FCF741FD4FF46A
:1043200000310B4800F0C2FD4FF40041094800F095
:10433000BDFD002010BD0000457261736520446F13
:10434000776E6C6F616420536563746F720D0A0041
:1043500000000408008000082DE9F04104460D46E5
:10436000164627464FF0000832463946284600F0E8
:10437000F1FD08B14FF008084046BDE8F0812DE995
:10438000F04104460D46164627464FF000083146D8
:10439000284600F08BFD40B932463946284600F0E9
:1043A000D9FD20B14FF0080801E04FF00708404662
:1043B000BDE8F0812DE9FF5F82B00021DDE9043026
:1043C000020DDDF840B0034318D044F61050A2F2BD
:1043D000FF3242431514119801281FD0A5EB0B00A2
:1043E000401C5FEA000A4FF000064E4FDFF838919C
:1043F000B046504615D5CAF1000413E011980124C7
:104400004AA3012801D16FEA0B010298119AC0E971
:104410000031C0E9024206B0BDE8F09FCBF10000D8
:10442000DFE704460021404A491842EB0450CDE939
:10443000001012E0E00707D032463B4640464946AE
:10444000FBF761FF8046894632463B4610461946D7
:10445000FBF759FF06460F466410002CEAD1DDE950
:104460000401DDE90023BAF1000F06DAFBF74BFF88
:1044700042464B46FBF747FF05E0FCF7A8F84246EB
:104480004B46FCF7A4F804460E460022284BFCF7E6
:1044900025F903D84FF0FF30014607E00022254BF5
:1044A00020463146FBF7ECFFFCF700F9102409E049
:1044B000002C0ADB0A220023FBF782FE039B30322A
:1044C0001A55641E50EA0102F2D1641C039AC4F129
:1044D00011031444119A012A03D0012208430DD17B
:1044E0000AE0084304D000204FF0110B119072E74E
:1044F000A3EB0B056D1E0DE05B4504DD4FF00002E4
:1045000005F1010504E003DA4FF00002A5F1010511
:10451000002AECD002981199C0E90231C0E90045A7
:1045200079E70000000014400000F03F3000000078
:104530000000F0430000E03FF0B50446104607E0FD
:10454000C5B214F8016B6E4033F8166086EA20207D
:104550000E1EA1F10101F3D1F0BD000010B504461B
:1045600022460AA10520FCF71BFC1420FDF7D2FA15
:10457000FCF768FC60680E490860206880F30888D2
:1045800000BF08460068804710BD000052656164A6
:1045900079204A756D7020746F204170702C4170C5
:1045A00070416464726573733A25780D0A000000E7
:1045B000400000202DE9FF4F95B09B4689460646F6
:1045C00000250FE2252877D100242746F84A01214B
:1045D000059400E0044316F8013F203B01FA03F084
:1045E0001042F7D130782A2811D06FF02F0330789D
:1045F000A0F13002092A16D8059A44F0020402EB11
:10460000820203EB42021044761C0590EFE759F852
:10461000042B0592002A03DA504244F4005405901A
:1046200044F00204761C30782E2816D116F8010FBB
:1046300044F004042A280DD06FF02F023078A0F146
:104640003003092B09D807EB870302EB4303C71894
:10465000761CF3E759F8047B761C30786C280FD071
:1046600006DC4C2817D068280DD06A2814D104E045
:10467000742810D07A280FD10DE044F400140AE019
:1046800044F4801401E044F440147278824202D170
:1046900004F58014761C761C307866280BD013DC69
:1046A000582877D009DC002875D04528F6D0462850
:1046B000F4D047281AD19DE118E0632835D064284A
:1046C00079D0652812D195E1702873D008DC67286D
:1046D000F1D069286FD06E280DD06F2806D1B5E0D3
:1046E00073282CD0752875D0782874D05A4617991D
:1046F00090476D1C75E1C4F30250022809D00328CD
:104700000DD0D9F8001004280DD00D6009F104096E
:1047100067E1D9F80010EA17C1E90052F6E7D9F8C5
:1047200000100D80F2E70D70F0E719F8041B8DF80A
:10473000001000208DF80100EA46012003E059F83E
:1047400004AB4FF0FF3061074FF0000102D40DE0E1
:1047500008F101018846B9420FDA8045F8DB1AF802
:1047600008100029F4D108E008F1010188468142CF
:10477000FADB1AF808100029F6D105985B46A0EB81
:10478000080721463846179A00F094FA284400EBAF
:10479000080507E04DE029E10DE01AF8010B5A4643
:1047A00017999047B8F10108F7D25B462146384681
:1047B000179A13E142E00A220092C4F302524FF02A
:1047C000000A022A08D059F804CB032A4FEAEC71F8
:1047D0000AD00DE029E02AE009F1070121F00702E3
:1047E000F2E802C1914609E00FFA8CFC4FEAEC7145
:1047F000042A03D14FFA8CFC4FEAEC71002907DA46
:104800000A460021DCF1000C61EB02012D2202E0DE
:10481000220504D52B228DF80420012203E0E207B3
:1048200001D02022F7E7904659E00A2102E0102249
:104830000DE010214FF0000A00910BE010224FF024
:10484000000A44F004040827009203E008224FF015
:10485000000A0092C4F30252022A05D059F804CB90
:104860000021032A08D009E009F1070121F007021D
:10487000F2E802C1914605E01FFA8CFC042A01D13E
:104880000CF0FF0C4FF00008220728D5702806D046
:10489000009B83F0100353EA0A0305D00EE0402288
:1048A0008DF80420012208E05CEA010206D03022E3
:1048B0008DF804208DF8050002229046009B83F0BD
:1048C000080353EA0A030AD15CEA010201D1620734
:1048D00005D530228DF804204FF001087F1E58289E
:1048E00004D034A003900EA802900DE036A0F9E7A2
:1048F00053466046009AFBF763FC84460398825C4B
:104900000298401E029002705CEA0100F0D1029809
:1049100006A9081A00F1200A600702D524F48034A1
:1049200000E00127574502DDA7EB0A0000E0002068
:1049300000EB0A01009005984144401A0590E003FD
:1049400006D45B462146179A059800F0B3F9054452
:10495000002706E001A85A46C05D179990476D1CD4
:104960007F1C4745F6DBE0030CD55B462146179AD2
:10497000059800F09FF9054404E030205A46179945
:1049800090476D1C0099481E00900029F5DC08E056
:10499000029802995A460078491C0291179990474B
:1049A0006D1CBAF10001AAF1010AF1DC65E1000019
:1049B00009280100303132333435363738396162F5
:1049C00063646566000000003031323334353637B9
:1049D00038394142434445460000000000F058F990
:1049E0000544761C307800287FF4ECAD19B02846D9
:1049F000BDE8F08F620700D4062709F1070222F014
:104A0000070CFCE80223E14603F000485FEA080CCB
:104A100002D00FF2702C0DE05FEA045C02D50FF2B9
:104A2000682C07E05FEAC47C02D00FF2602C01E042
:104A3000AFF2700C4FF0FF3823F00043CDF850C0B8
:104A400065280CD006DC452809D046281DD047280B
:104A50003DD13DE0662818D067287ED138E000219E
:104A6000112F01DB112000E0781CCDE9000106A91F
:104A70000EA8FFF79FFCDDE90F010E9A03910021BC
:104A8000009207F1010A04914DE04FF000400097B9
:104A9000CDE9011006A90EA8FFF78CFCDDE90F0295
:104AA00003920E9B11990022DDF80CA00093049252
:104AB00011B9791C00EB010AB7EB0A0004D4C0F16C
:104AC000FF3007F1010A0490AAEB0700019044E0CF
:104AD000012F00DA01270021112F01DD112000E054
:104AE0003846CDE9000106A90EA8FFF763FCDDE911
:104AF0000F010E9A0391002104910092BA462107FA
:104B00000CD40399514500DA8A46BAF1010F05DD4C
:104B1000009AAAF10101515C302908D0B84202DAAA
:104B200010F1040F06DA0121CDE9011015E0AAF118
:104B30000101E9E7002805DC049901440491AAEB8E
:104B4000000102E0411C514500DD8A460499401AEB
:104B5000401C01904FF000400290200704D40198BF
:104B6000504501DBCDF8048000208DF84F000298FD
:104B70000DF14F07B0F1004F25D02B200E90029879
:104B80004FF0020800280CDA404202902D200E90CF
:104B900007E00A210298FBF781FB3031029007F809
:104BA000011DB8F10001A8F10108F2DC029800280B
:104BB000EFD1791E0E980870307800F0200040F098
:104BC000450007F8020D12A8C01B00F10708149851
:104BD000007800B1012000EB0A01019801EBE071BF
:104BE00005984144401A401E0590E00306D45B46F8
:104BF0002146179A059800F05DF80544149800784E
:104C000018B15A46179990476D1CE00324D55B46AE
:104C10002146179A059800F04DF805441CE00498C9
:104C2000002807DBDDE90301884203DD0098405CD2
:104C3000179901E0179930205A469047049805F1DA
:104C40000105401C04900198401E019004D12E20C3
:104C50005A46179990476D1CBAF10001AAF1010A52
:104C6000DDDC05E017F8010B5A46179990476D1CDB
:104C7000B8F10001A8F10108F4DC5B462146179A5F
:104C80000598ABE62D0000002B000000200000007E
:104C90002DE9F041044600251E461746880404D439
:104CA00005E039462020B0476D1C641EF9D5284622
:104CB000BDE8F0812DE9F041044600251E469046EE
:104CC000C80301D5302700E02027880404D505E07B
:104CD00041463846B0476D1C641EF9D52846BDE8EC
:104CE000F08110B50024FFF789FA0446FBF7BAFDFE
:104CF000204610BD70B503460C4615462A460021D5
:104D000008E0585C5040C0B2044E56F8200080EADB
:104D10001222491CA142F4D3D04370BD9C5200081A
:104D200030B503460C464FF0FF32002108E0585CD6
:104D30005040C0B2044D55F8200080EA1222491CB0
:104D4000A142F4D3D04330BD9C52000870B5044654
:104D50000D4604F5006214A10520FCF721F84FF67A
:104D6000FF7101EA441020222946FBF77FFF10B1B2
:104D70004FF0FF3070BD202229460520FCF722F8B5
:104D80000EA10520FCF70CF81E21284600F060F863
:104D9000064605F11E0000F074F8B04201D1002073
:104DA000E8E74FF0FF30E5E7656570726F6D2072E0
:104DB0006561643A20257520706167650D0A000001
:104DC00070B504460D4604F5006212A10520FBF7FC
:104DD000E7FF1E21284600F03BF8064605F11E01BC
:104DE000304600F0DBF8202229460520FBF7EAFFD9
:104DF0000EA10520FBF7D4FF4FF6FF7101EA441026
:104E000020222946FBF752FF08B9002070BD4FF061
:104E1000FF30FBE7656570726F6D207772697465AE
:104E20003A20257520706167650D0A000D0A0000A3
:104E30007047000013B50C464FF6FF730122694618
:104E40000248FEF7BEF900981CBD00004402002095
:104E500070B504460D46044B4FF6FF7229462046B6
:104E6000FFF76AFB70BD00009C50000810B5FDF70D
:104E700043F8FEF71DFBFBF767FFFBF729FE002059
:104E800010BD08B5014608880090BDF8000008BDB7
:104E900008B5014608680090009808BD08B50146AD
:104EA000087800909DF8000008BD00002DE9F84347
:104EB00005460C4600260027B0460020009005EB72
:104EC0000409FCF7E7FE2846FCF79EFB0746B846B8
:104ED0000AE04046FCF70AFC064608F10108B44225
:104EE00000D203E0A41B3544002CF2D100BF002007
:104EF0000C4908600220086108468760A8EB07009B
:104F0000C860F3200849086069460648FCF716FEA9
:104F100018B14FF0FF30BDE8F883FCF765FE0020C4
:104F2000F9E70000F00500200C3C02402DE9F041BB
:104F300007460D461646002400BF07E03846FEF738
:104F4000B3FA45F824003F1D601C84B2B442F5DB7F
:104F5000BDE8F0812DE9F04104460D46164604EB0C
:104F60000608FCF797FEF3200B4908600DE02F6858
:104F70003A46002321460220FCF740FE18B14FF0CC
:104F8000FF30BDE8F081241D2D1D4445EFD3FCF713
:104F90002BFE0020F5E700000C3C024008B502465D
:104FA0000092BDF800000880002008BD08B5024648
:104FB000009200980860002008BD08B502460092E3
:104FC0009DF800000870002008BD000610160006BD
:104FD0001016000000000000000001020304060794
:104FE00008090000000001020304000000000000A6
:104FF00008570008020000004057000801000000A8
:10500000285700080300000084570008040000002F
:105010001457000805000000B05700080600000003
:1050200098570008070000005457000808000000C7
:105030006C57000809000000D05600080C00000062
:10504000CC5700080A000000EC5600080B000000D6
:10505000B45600080E000000E4570008FF000000EE
:105060009C56000804580008000000002C58000856
:105070000200000010580008020000003C58000820
:1050800002000000F8570008020000001C58000849
:105090000200000000000000010000000000C1C08C
:1050A00081C1400101C3C003800241C201C6C006E4
:1050B000800741C70005C1C581C4400401CCC00CB4
:1050C000800D41CD000FC1CF81CE400E000AC1CA74
:1050D00081CB400B01C9C009800841C801D8C01864
:1050E000801941D9001BC1DB81DA401A001EC1DEE4
:1050F00081DF401F01DDC01D801C41DC0014C1D4D4
:1051000081D5401501D7C017801641D601D2C012F3
:10511000801341D30011C1D181D0401001F0C030C3
:10512000803141F10033C1F381F240320036C1F6E3
:1051300081F7403701F5C035803441F4003CC1FCB3
:1051400081FD403D01FFC03F803E41FE01FAC03A73
:10515000803B41FB0039C1F981F840380028C1E8A3
:1051600081E9402901EBC02B802A41EA01EEC02EE3
:10517000802F41EF002DC1ED81EC402C01E4C024D3
:10518000802541E50027C1E781E640260022C1E2F3
:1051900081E3402301E1C021802041E001A0C06003
:1051A000806141A10063C1A381A240620066C1A6E3
:1051B00081A7406701A5C065806441A4006CC1ACB3
:1051C00081AD406D01AFC06F806E41AE01AAC06A73
:1051D000806B41AB0069C1A981A840680078C1B863
:1051E00081B9407901BBC07B807A41BA01BEC07EE3
:1051F000807F41BF007DC1BD81BC407C01B4C074D3
:10520000807541B50077C1B781B640760072C1B2F2
:1052100081B3407301B1C071807041B00050C19042
:10522000819140510193C053805241920196C056E2
:10523000805741970055C19581944054019CC05CB2
:10524000805D419D005FC19F819E405E005AC19A72
:10525000819B405B0199C059805841980188C048A2
:1052600080494189004BC18B818A404A004EC18EE2
:10527000818F404F018DC04D804C418C0044C184D2
:10528000818540450187C047804641860182C042F2
:10529000804341830041C181818040400000000083
:1052A000963007772C610EEEBA51099919C46D0733
:1052B0008FF46A7035A563E9A395649E3288DB0E8E
:1052C000A4B8DC791EE9D5E088D9D2972B4CB60971
:1052D000BD7CB17E072DB8E7911DBF906410B71D4E
:1052E000F220B06A4871B9F3DE41BE847DD4DA1A87
:1052F000EBE4DD6D51B5D4F4C785D38356986C13B8
:10530000C0A86B647AF962FDECC9658A4F5C011430
:10531000D96C0663633D0FFAF50D088DC8206E3B0E
:105320005E10694CE44160D5727167A2D1E4033C20
:1053300047D4044BFD850DD26BB50AA5FAA8B53547
:105340006C98B242D6C9BBDB40F9BCACE36CD83236
:10535000755CDF45CF0DD6DC593DD1ABAC30D926DD
:105360003A00DE518051D7C81661D0BFB5F4B421E0
:1053700023C4B3569995BACF0FA5BDB89EB80228DD
:105380000888055FB2D90CC624E90BB1877C6F2F62
:10539000114C6858AB1D61C13D2D66B69041DC765D
:1053A0000671DB01BC20D2982A10D5EF8985B17136
:1053B0001FB5B606A5E4BF9F33D4B8E8A2C90778E5
:1053C00034F9000F8EA8099618980EE1BB0D6A7F7C
:1053D0002D3D6D08976C6491015C63E6F4516B6B35
:1053E00062616C1CD83065854E0062F2ED95066CEA
:1053F0007BA5011BC1F4088257C40FF5C6D9B0655F
:1054000050E9B712EAB8BE8B7C88B9FCDF1DDD62BB
:10541000492DDA15F37CD38C654CD4FB5861B24D21
:10542000CE51B53A7400BCA3E230BBD441A5DF4AEB
:10543000D795D83D6DC4D1A4FBF4D6D36AE96943AE
:10544000FCD96E34468867ADD0B860DA732D044459
:10545000E51D03335F4C0AAAC97C0DDD3C71055084
:10546000AA41022710100BBE86200CC925B568572B
:10547000B3856F2009D466B99FE461CE0EF9DE5E74
:1054800098C9D9292298D0B0B4A8D7C7173DB35925
:10549000810DB42E3B5CBDB7AD6CBAC02083B8EDB6
:1054A000B6B3BF9A0CE2B6039AD2B1743947D5EAC3
:1054B000AF77D29D1526DB048316DC73120B63E3F2
:1054C000843B64943E6A6D0DA85A6A7A0BCF0EE451
:1054D0009DFF099327AE000AB19E077D44930FF00C
:1054E000D2A3088768F2011EFEC206695D5762F703
:1054F000CB67658071366C19E7066B6E761BD4FE40
:10550000E02BD3895A7ADA10CC4ADD676FDFB9F91C
:10551000F9EFBE8E43BEB717D58EB060E8A3D6D6DE
:105520007E93D1A1C4C2D83852F2DF4FF167BBD10C
:105530006757BCA6DD06B53F4B36B248DA2B0DD80F
:105540004C1B0AAFF64A0336607A0441C3EF60DFB2
:1055500055DF67A8EF8E6E3179BE69468CB361CB9B
:105560001A8366BCA0D26F2536E2685295770CCCC0
:1055700003470BBBB91602222F260555BE3BBAC501
:10558000280BBDB2925AB42B046AB35CA7FFD7C2F2
:1055900031CFD0B58B9ED92C1DAEDE5BB0C2649BE3
:1055A00026F263EC9CA36A750A936D02A906099C16
:1055B0003F360EEB8567077213570005824ABF9589
:1055C000147AB8E2AE2BB17B381BB60C9B8ED2920C
:1055D0000DBED5E5B7EFDC7C21DFDB0BD4D2D38663
:1055E00042E2D4F1F8B3DD686E83DA1FCD16BE81D6
:1055F0005B26B9F6E177B06F7747B718E65A0888A7
:10560000706A0FFFCA3B06665C0B0111FF9E658F37
:1056100069AE62F8D3FF6B6145CF6C1678E20AA0E1
:10562000EED20DD75483044EC2B30339612667A767
:10563000F71660D04D476949DB776E3E4A6AD1AEB6
:10564000DC5AD6D9660BDF40F03BD83753AEBCA945
:10565000C59EBBDE7FCFB247E9FFB5301CF2BDBDB2
:105660008AC2BACA3093B353A6A3B4240536D0BABB
:105670009306D7CD2957DE54BF67D9232E7A66B358
:10568000B84A61C4021B685D942B6F2A37BE0BB405
:10569000A18E0CC31BDF055A8DEF022D757064615E
:1056A000746520666C6F7720697320656E640D0ADF
:1056B00000000000646F776E6C6F61642064617439
:1056C00061206E6F742066696E6973680D0A000050
:1056D00072657472792073656E64206D61782062E2
:1056E0007574206661696C0D0A000000646F776E46
:1056F0006C6F6164206461746120636865636B2012
:105700006572726F720D0A006E6F206572726F7231
:105710000D0A000066696C6520637263206973205E
:105720006572726F720D0A0066696C65207479701B
:1057300065206973206572726F720D0A00000000A7
:1057400062696E2074797065206973206572726F6A
:10575000720D0A00657261736520666C6173682062
:105760006973206572726F720D0A00007772697436
:105770006520666C617368206973206572726F7250
:105780000D0A000066696C65206C656E20697320E7
:105790006572726F720D0A006672616D65206C65CC
:1057A0006E206973206572726F720D0A000000002E
:1057B0006F666673657420616464726573732069D3
:1057C00073206572726F720D0A0000006669726D57
:1057D000776172652066696C652065786973740D00
:1057E0000A0000006E6F206669726D776172652035
:1057F00065786973740D0A00592D3532305F475F43
:1058000041505000592D3532305F4D5F41505000AE
:10581000592D3532305F525F41505000592D35328D
:10582000305F475F424F4F5400000000592D353222
:10583000305F4D5F424F4F5400000000592D35320C
:10584000305F525F424F4F540000000054524143BA
:10585000450000004E4F4E450000000044454255B3
:10586000470000005741524E00000000494E464F8D
:10587000000000004552524F520000009C580008A2
:1058800000000020300100000E08000858590008F0
:1058900030010020D8080000D43C000841321042FA
:1058A000011324F4282261707020696E666F2065F0
:1058B00072726F72202121210D0A706C656173650F
:1058C00020636865636B2021700966696C650D0A49
:1058D0000D0A180A77616974696E67206631892537
:1058E00039462C2E2E2E04192B7913492248087381
:1058F0007563636573736128086E6F772072756EC8
:105900003718096C69636174696F6E322B65727642
:1059100048096669726D776172653D7D7061676582
:1059200054091437755F41505022801AFF01490C09
:105930008A020C11690C3B02400412082310FC730C
:1059400020021354581B0874041A64041A6C041AB5
:085950005C041A4C0441000044
:040000050800018965
:00000001FF
