:020000040800F2
:10000000582A01205D020008F547000865420008F3
:10001000ED470008B11C0008A151000800000000D5
:100020000000000000000000000000009D0100082A
:10003000A51E000800000000F9010008FD470008A7
:1000400077020008770200087702000877020008AC
:10005000770200087702000877020008770200089C
:10006000770200087702000877020008B91C000830
:10007000C91C0008D91C0008770200087702000894
:10008000E91C0008770200087702000877020008E0
:10009000770200087702000877020008A71E000810
:1000A0007702000805490008770200087702000877
:1000B0001549000877020008770200087702000857
:1000C000770200087702000877020008770200082C
:1000D0007702000851510008655100087951000865
:1000E000770200087702000877020008770200080C
:1000F00077020008770200087702000877020008FC
:1001000077020008770200087702000877020008EB
:10011000754A0008894A000877020008770200083B
:1001200077020008F91C0008091D00087702000882
:1001300077020008770200087702000877020008BB
:1001400077020008770200087702000877020008AB
:100150007702000877020008770200088D51000836
:10016000770200087702000877020008770200088B
:1001700077020008770200087702000800000000FC
:100180007702000877020008DFF80CD000F000FBCF
:100190000048004769620008582A01202C4B196862
:1001A0000868B0E8F04F80F30988BFF36F8F4FF015
:1001B000000080F3118870470000000008480068C4
:1001C000006880F308884FF0000080F3148862B65E
:1001D00061B6BFF34F8FBFF36F8F00DF00BF00BF6B
:1001E00008ED00E0DFF80C00016841F470010160E7
:1001F000704700BF88ED00E0EFF30980BFF36F8F19
:10020000134B1A681EF0100F08BF20ED108A20E96A
:10021000F04F106009B44FF0500080F31188BFF325
:100220004F8FBFF36F8F06F057FB4FF0000080F346
:10023000118809BC19680868B0E8F04F1EF0100F6B
:1002400008BFB0EC108A80F30988BFF36F8F704746
:100250008C000020EFF305807047000006488047BF
:1002600006480047FEE7FEE7FEE7FEE7FEE7FEE79B
:10027000FEE7FEE7FEE7FEE7E9480008890100081F
:100280002DE9F05F0546002092469B4688460646CB
:10029000814640241BE0284641464746224600F05E
:1002A00069F853465A46C01A914110D31146184670
:1002B000224600F050F82D1A67EB01084F462246FF
:1002C0000120002100F047F817EB00094E41201EE5
:1002D000A4F10104DFDC484631462A464346BDE826
:1002E000F09F40EA01039B0703D009E008C9121FF1
:1002F00008C0042AFAD203E011F8013B00F8013BE0
:10030000521EF9D27047D2B201E000F8012B491E0B
:10031000FBD270470022F6E710B513460A460446A2
:100320001946FFF7F0FF204610BD30B50B460146D9
:1003300000202022012409E021FA02F59D4205D384
:1003400003FA02F5491B04FA02F52844151EA2F12E
:100350000102F1DC30BD202A04DB203A00FA02F170
:10036000002070479140C2F1200320FA03F31943A3
:1003700090407047202A04DB203A21FA02F0002145
:10038000704721FA02F3D040C2F1200291400843A5
:1003900019467047C1F30A52C1F3130140F2FF330B
:1003A00041F480119A4202DA00200146704740F27F
:1003B00033439A42A2F2334202DC5242FFF7DABFE1
:1003C000FFF7C9BF30B5041E71F1000404DB4FF024
:1003D0000044404264EB0101141E73F1000405DB8C
:1003E0001C464FF00043524263EB0403994208BF9E
:1003F000904230BD01460020087048807047704729
:10040000532D3233305F464F524D41545445525F65
:1004100056332E302E310000000000000000000096
:1004200000000000000000000000000000000000CC
:1004300000000000000000000000000000000000BC
:100440004E6F7620323920323032342D31343A3109
:10045000363A3331000000000000000000000000C8
:10046000000000000000000000000000000000008C
:10047000000000000000000000000000000000007C
:100480002DE9FE4F804681EA0300C00F0C46009024
:1004900021F0004123F00045B8EB0200A94105D24C
:1004A0004046214690461C460B46024623F000403B
:1004B000104347D0270DC7F30A00C3F30A51029037
:1004C000401A019040286BDAC3F3130040F4801BFC
:1004D0000098924620B10023D2EB030A63EB0B0B8A
:1004E00001985946C0F140025046FFF734FF0646D6
:1004F0000D4650465946019A00F05CF910EB080091
:100500006141002487EA115284EAE7731A4340D01C
:10051000009A62B3019A012A4FEA075215DC001BC8
:1005200061EB02014FF0004202EA0752CDE90042BE
:10053000001C41F5801132462B4600F05CF903B0F7
:10054000BDE8F08F40462146F9E7001B61EB020150
:10055000001C41F5801300185B412018A2F500171C
:1005600047EB030140EAD570B6196D4111E06D0803
:100570004FEA360645EAC0754FEA0752001B61EBA9
:100580000201001C41F5801149084FEA30000019B2
:10059000514132462B4603B0BDE8F04F00F01CB984
:1005A0000098012240000023D0EB020263EBE073CD
:1005B000009821464FEAE074B8EB000061EB0401BB
:1005C000E9E783F000435BE781F0004158E72DE95C
:1005D000FE4F81EA030404F0004421F0004100943E
:1005E0004FF0000B23F0004350EA01045ED052EAC2
:1005F00003045BD0C3F30A54C1F30A552C44A4F29C
:10060000F3340194A0FB0254C1F3130141F48011AF
:10061000C3F3130343F4801301FB024400FB034EB6
:10062000840A970A44EA815447EA8357A4FB07687F
:1006300002958D0A05FB07854FEA932C04FB0C54A9
:100640002705029D4FEA065847EA1637B5EB08051D
:100650006EEB070C870E920E47EA811742EA83126F
:10066000A7FB0201B6EB0B0164EB00042B0D43EA80
:100670000C335E1844EB1C50DA465146E7FB02018E
:10068000C5F313044FEA0B3343EA14534FEA043221
:10069000019C43EA0603A4F10C040294009CCDE9FA
:1006A00000B400F0A8F803B0BDE8F08F00200146C8
:1006B000F9E72DE9F04D81EA030404F0004B21F045
:1006C000004514464FF0000A23F0004150EA0502AD
:1006D00020D054EA01021DD0C5F30A570246C5F3E3
:1006E0001303C1F31300C1F30A5640F4801543F419
:1006F0008013A7EB0608101BD64608F2FD3873EBF3
:10070000050002D308F1010801E092185B41B8F13D
:10071000000F03DA00200146BDE8F08D00204FF401
:100720008011064684460EE0171B73EB050705D3C0
:10073000121B63EB050306434CEA010C49084FEA20
:10074000300092185B4150EA0107EDD152EA0300F4
:1007500012D082EA040083EA0501084305D0101B89
:10076000AB4106D20122002306E000224FF00043F5
:1007700002E06FF0010253101AEB06004CEB085137
:1007800010EB0A0041EB0B01BDE8F04D00F024B87E
:10079000064C074D06E0E06840F0010394E80700CE
:1007A00098471034AC42F6D3FFF7F2FC20750008EE
:1007B00050750008202A06DBCB17203A41FA02F0D8
:1007C00043EAE07306E041FA02F3D040C2F12002AE
:1007D000914008431946704710B5141E73F1000488
:1007E00008DA401C41F1000192185B411A4301D123
:1007F00020F0010010BD2DE9F04D92469B4611B14D
:10080000B1FA81F202E0B0FA80F220329046FFF7AE
:10081000A2FD04460F4640EA0A0041EA0B01534696
:100820005A46084313D0114653EA010019D0C8F1C3
:1008300040025046FFF79EFD05460E46504659467B
:100840004246FFF788FD084305D0012004E020461A
:100850003946BDE8F08D0020054346EAE0762C439A
:1008600037430A986305E40AA0EB08000022FD0A5A
:1008700044EA47540A3002D500200146E9E7010561
:1008800010196941DDE9084500196941BDE8F04DDD
:10089000A2E7000070B50025174C002020602071F1
:1008A00060710021A1710120E07120720321617249
:1008B0000021A172E1724104E160811E21612146A3
:1008C000002000F01DF805460DB1284670BD142229
:1008D00009490A48FFF705FD084CFF20E071002098
:1008E00020722146012000F00BF805460DB1284684
:1008F000ECE70020EAE700008C030010A0030010E2
:1009000070B588B005460C4620216846FFF702FD09
:10091000002615B940F2FE7601E040F2FF76694606
:10092000206806F029F8207901A906F02CF86079F2
:100930000DF1050106F027F8A0790DF1060106F08A
:1009400022F8E0790DF1070106F01DF804F1080125
:10095000684604F017FD6946304605F0F1FB08B023
:1009600070BD000070B5002600241BE0002515E0D6
:100970000E4901EB441101EB8500FFF73BFD0B48ED
:1009800000EB441000EB85022946204600F010F8E9
:1009900006460EB1304670BD681CC5B2082DE7DBB7
:1009A000601CC4B2012CE1DB0020F4E75000001011
:1009B00070B588B004460D46164620216846FFF7FC
:1009C000A9FC012C01DC082D03DD4FF0FF3008B03D
:1009D00070BD3146684604F0A9FC4FF49C7101EBF0
:1009E00004114819694605F0ABFBF0E70146002009
:1009F000087048707047014600200870704700007A
:100A000010B500240548FFF7F6FF044800F008F889
:100A100004460CB1204610BD0020FCE70700002072
:100A200010B588B0044620216846FFF773FC2146C4
:100A3000684604F093FC69460A2005F081FB08B083
:100A400010BD00B5024601201070501C00F03BFEA6
:100A5000002000BD10B500240548FFF7F2FF044850
:100A600000F008F804460CB1204610BD0020FCE759
:100A70000000002010B588B0044620216846FFF72A
:100A800049FC2146684604F071FC6946092005F0DE
:100A900057FB08B010BD01460020087001204870C7
:100AA00088700020C870087148718871C8717047DB
:100AB00010B500240348FFF7EEFF024800F004F8E9
:100AC000002010BD1400002030B589B0044620215C
:100AD00001A8FFF71FFC207801A905F054FF6078FA
:100AE0000DF1050105F04FFFA0780DF1060105F0AD
:100AF0004AFFE0780DF1070105F045FF207902A9D2
:100B000005F041FF60790DF1090105F03CFFA07986
:100B10000DF10A0105F037FFE0790DF10B0105F049
:100B200032FF01A94FF4D76005F00AFB054609B072
:100B300030BD000010B50024FFF78CFF04462246AC
:100B400053A1052000F056FF0CB1204610BDFFF761
:100B500057FF0446224656A1052000F04BFF0CB17A
:100B60002046F3E700F0F6FB0446224659A1052093
:100B700000F040FF0CB12046E8E700F029FC0446F5
:100B800022465CA1052000F035FF0CB12046DDE7D0
:100B900000F0E8FC044622465EA1052000F02AFF92
:100BA0000CB12046D2E7FFF7DDFE0446224660A1E5
:100BB000052000F01FFF0CB12046C7E700F0B6FA91
:100BC0000446224662A1052000F014FF0CB1204625
:100BD000BCE700F0E3FF00F0F7FA0446224665A107
:100BE000052000F007FF0CB12046AFE700F0D6FF6C
:100BF00000F078FC0446224664A1052000F0FAFECD
:100C00000CB12046A2E700F087FD0446224665A10C
:100C1000052000F0EFFE0CB1204697E700F0D4FD70
:100C20000446224667A1052000F0E4FE0CB12046F0
:100C30008CE700F03DFB0446224668A1052000F049
:100C4000D9FE0CB1204681E700F010FC0446224694
:100C50006AA1052000F0CEFE0CB1204676E7FFF732
:100C600027FF044622466CA1052000F0C3FE0CB10C
:100C700020466BE7FFF70EFE044622466FA10520D3
:100C800000F0B8FE0CB1204660E700205EE70000EF
:100C90006465766963655F656E61626C6520726527
:100CA000636F766572792072633A2025640D0A00BD
:100CB0006465766963655F636F6E6E6563742072E9
:100CC00065636F766572792072633A2025640D0A38
:100CD0000000000070726F62655F656E61626C6536
:100CE000207265636F766572792072633A2025649D
:100CF0000D0A000070756D705F73746174757320F8
:100D00007265636F766572792072633A2025640D8F
:100D10000A00000073656E736F72207265636F76F0
:100D20006572792072633A2025640D0A0000000084
:100D3000636F6D70656E736174696F6E2072656349
:100D40006F766572792072633A2025640D0A00007F
:100D5000696E64696361746F725F616C657274203F
:100D60007265636F766572792072633A2025640D2F
:100D70000A0000006C696D6974207265636F7665A6
:100D800072792072633A2025640D0A0072656C61E5
:100D900079207265636F766572792072633A2025D7
:100DA000640D0A0074696D65735F656E61626C65E0
:100DB000207265636F766572792072633A202564CC
:100DC0000D0A000074696D6573207265636F766546
:100DD00072792072633A2025640D0A006D616E7588
:100DE000616C5F72656C6179207265636F766572A4
:100DF000792072633A2025640D0A000072656C61E7
:100E00007920706F77657220636F6E6669672072F4
:100E1000633A2025640D0A00646961676E6F736927
:100E200073206D657373616765207265636F7665A6
:100E300072792072633A2025640D0A006669726D2A
:100E40007761726520696E666F207265636F766583
:100E500072792072633A2025640D0A0030B589B09A
:100E60000024202101A8FFF755FA002500BF0EE05D
:100E700004F00F0008B900F091FEA0B201A905F03E
:100E80005FF9054615B1284609B030BD641C082C31
:100E9000EED300F083FE0B240DE004F00F0008B940
:100EA00000F07CFEA0B201A905F04AF905460DB19B
:100EB0002846E9E7641C202CEFD300F06FFE2124C4
:100EC0000DE004F00F0008B900F068FEA0B201A91F
:100ED00005F036F905460DB12846D5E7641C282CE7
:100EE000EFD300F05BFE29240DE004F00F0008B9F9
:100EF00000F054FEA0B201A905F022F905460DB19B
:100F00002846C1E7641C382CEFD300F047FE40248C
:100F10000DE004F00F0008B900F040FEA0B201A9F6
:100F200005F00EF905460DB12846ADE7641CB4F591
:100F30009C7FEED300F032FE4FF4A0740DE004F07D
:100F40000F0008B900F02AFEA0B201A905F0F8F8D8
:100F500005460DB1284697E7641CB4F5E07FEED353
:100F600000F01CFE4FF4E4740DE004F00F0008B92B
:100F700000F014FEA0B201A905F0E2F805460DB19B
:100F8000284681E7641CB4F5307FEED300F006FEFE
:100F90004FF438740DE004F00F0008B900F0FEFDC6
:100FA000A0B201A905F0CCF805460DB128466BE7C3
:100FB000641CB4F5BB6FEED300F0F0FD40F2D954E1
:100FC0000DE004F00F0008B900F0E8FDA0B201A99F
:100FD00005F0B6F805460DB1284655E7641CB4F592
:100FE000BC6FEED300F0DAFD40F2E1540DE004F006
:100FF0000F0008B900F0D2FDA0B201A905F0A0F8D9
:1010000005460DB128463FE7641CB4F5BD6FEED32D
:1010100000F0C4FD4FF4BE640DE004F00F0008B909
:1010200000F0BCFDA0B201A905F08AF805460DB19B
:10103000284629E7641CB4F5C56FEED300F0AEFD79
:1010400040F22D640DE004F00F0008B900F0A6FD99
:10105000A0B201A905F074F805460DB1284613E7C2
:10106000641CB4F5D56FEED300F098FD40F2A9648E
:101070000DE004F00F0008B900F090FDA0B201A946
:1010800005F05EF805460DB12846FDE6641CB4F592
:10109000D66FEED300F082FD40F2B5640DE004F0AF
:1010A0000F0008B900F07AFDA0B201A905F048F8D8
:1010B00005460DB12846E7E6641CB4F5D76FEED3BC
:1010C00000F06CFD40F2B9640DE004F00F0008B9C7
:1010D00000F064FDA0B201A905F032F805460DB19B
:1010E0002846D1E6641C40F2FE708442EDD300F045
:1010F00055FD2A4602A1042000F07CFC0020C3E636
:10110000667265652070616765207265636F7665DC
:1011100072792072633A2025640D0A00014600208E
:101120000870487048808880C880704770B5002675
:1011300000241BE0002515E00E4901EB841101EBB2
:10114000C500FFF7EBFF0B4800EB841000EBC50276
:101150002946204600F010F806460EB1304670BD14
:10116000681CC5B2082DE7DB601CC4B2012CE1DBB2
:101170000020F4E77000001070B588B004460D46FA
:10118000164620216846FFF7C5F8012C01DC082D22
:1011900003DD4FF0FF3008B070BD3146684604F003
:1011A000E8F94FF4E07101EB04114819694604F0C5
:1011B000C7FFF0E7014600200870487088708880FB
:1011C00088710881488170472DE9F041002700248B
:1011D00033E000252DE0002627E004EB4401194A06
:1011E00002EBC11105EB450201EB021106EB4602D1
:1011F00001EB8200FFF7DEFF04EB4400114901EB35
:10120000C01005EB450100EB011006EB460100EBB9
:10121000810332462946204600F016F8074617B1EA
:101220003846BDE8F081701CC6B2042ED5DB681CC0
:10123000C5B2082DCFDB601CC4B2012CC9DB002075
:10124000EFE70000B0000010F0B589B005460C468D
:1012500016461F46202101A8FFF75CF8012D03DC8C
:10126000082C01DC042E03DD4FF0FF3009B0F0BD87
:10127000394601A804F095F94FF4307202EB85115C
:1012800001EB8401314488B201A904F059FFEDE774
:1012900000B502460020107050709070D01C00F015
:1012A00012FA02F1090000F00EFA002000BD000061
:1012B00070B50026002423E000251DE0C4EB0411D6
:1012C00001EB8101104A1144C5EB05128818FFF7A4
:1012D000DFFFC4EB041000EB80000B490844C5EBB2
:1012E000051142182946204600F010F806460EB1B6
:1012F000304670BD681CC5B2052DDFDB601CC4B272
:10130000012CD9DB0020F4E74003001070B588B051
:1013100004460D46164620216846FEF7FBFF012CC9
:1013200001DC052D03DD4FF0FF3008B070BD314604
:10133000684604F057F94FF4C56101EB04114819F0
:10134000694604F0FDFEF0E7014600200870487091
:101350008870704770B50025002412E004EB44014A
:101360000A4A8818FFF7F0FF04EB4400074A811887
:10137000204600F00DF805460DB1284670BD601CF2
:10138000C4B2012CEADB0020F8E7000008000020CE
:1013900030B589B004460D46202101A8FEF7BAFFFA
:1013A000012C03DD4FF0FF3009B030BD294601A804
:1013B00004F0C9FC04F1200001A904F0C1FEF3E728
:1013C00010B5044610212046FEF7A4FF002010BDF2
:1013D00070B50025002410E00A4901EB0410FFF766
:1013E000EFFF084800EB0411204600F00DF8054619
:1013F0000DB1284670BD601CC4B2012CECDB00208E
:10140000F8E700001000001030B589B004460D4622
:10141000202101A8FEF77EFF012C03DD4FF0FF30F5
:1014200009B030BD294601A804F0D0FC04F1280021
:1014300001A904F085FEF3E701460020087048701A
:1014400088707047024601200870042A04D00320E7
:1014500048701E20887003E0012048700A208870C0
:101460000020C870087148718871704770B50025F8
:101470000026002411E0C4EBC4000A494618314696
:101480002046FFF7DFFF3146204600F00DF8054605
:101490000DB1284670BD601CC4B2052CEBDB0020EA
:1014A000F8E700000000000070B588B004460E4662
:1014B00020216846FEF72EFF052C03DD4FF0FF309C
:1014C00008B070BD3146684604F089FC04F5D6606A
:1014D000694604F035FE05460DB12846F0E70020C8
:1014E000EEE7000070B50025002412E004EB440193
:1014F0000A4A8818FFF7A0FF04EB4400074A811846
:10150000204600F00DF805460DB1284670BD601C60
:10151000C4B2012CEADB0020F8E700000B00002039
:1015200030B589B004460D46202101A8FEF7F2FE31
:10153000012C03DD4FF0FF3009B030BD294601A872
:1015400004F06EFC04F5BB6001A904F0F9FDF3E7BB
:1015500001460020087048708870C8700871487192
:101560007047000070B50026002423E000251DE030
:1015700004EB4401114A02EB011105EB450201EBBA
:101580004200FFF7E5FF04EB44000C4901EB0010BB
:1015900005EB450100EB41022946204600F010F81A
:1015A00006460EB1304670BD681CC5B2082DDFDBA3
:1015B000601CC4B2012CD9DB0020F4E7200000102D
:1015C00070B588B004460D46164620216846FEF7E1
:1015D000A1FE012C01DC082D03DD4FF0FF3008B027
:1015E00070BD3146684604F06BFC382101EB0411F4
:1015F0004819694604F0A4FDF1E70146012008609E
:10160000002048600872A1F80900C87201204872E1
:1016100000228A72CA7204200873002070470000FA
:1016200010B500240548FFF7E8FF044800F008F86B
:1016300004460CB1204610BD0020FCE7000000105D
:1016400030B589B00446202101A8FEF763FE01A948
:10165000082004F03BFD054615B1284609B030BD11
:1016600001A805F086F82060029860609DF80C00E3
:101670002072BDF80D00A4F809009DF80F00E0727B
:101680000020EBE710B500240548FFF7B6FF04483B
:1016900000F008F804460CB1204610BD0020FCE71D
:1016A0000000001010B588B0044620216846FEF7FF
:1016B00031FE2146684604F01FFC6946082004F00C
:1016C0003FFD08B010BD01460020087048708870CA
:1016D000C87008714871704700B502461046FFF7A0
:1016E00085F9901CFFF782F9101DFFF77FF9901D17
:1016F000FFF77CF902F10800FFF778F902F10A0020
:10170000FFF774F902F10C00FFF770F902F10E0017
:10171000FFF76CF9002000BD70B50025002410E033
:101720000A4901EB0410FFF7D7FF084800EB04114A
:10173000204600F00DF805460DB1284670BD601C2E
:10174000C4B2012CECDB0020F8E7000030020010EE
:1017500030B589B004460D46202101A8FEF7DAFD18
:10176000012C03DD4FF0FF3009B030BD294601A840
:1017700004F0F0FB04F5BC6001A904F0E1FCF3E720
:1017800000B5024600201070508010715071D0805A
:101790001081907202F10B0000F00EF802F11000BF
:1017A00000F00AF802F1150000F006F802F11A0044
:1017B00000F002F8002000BD0146002008704870CB
:1017C0008870C8700871704770B5002600241BE04F
:1017D000002515E00E4901EB042101EB4510FFF750
:1017E000CFFF0B4800EB042000EB451229462046B2
:1017F00000F010F806460EB1304670BD681CC5B248
:10180000082DE7DB601CC4B2012CE1DB0020F4E70B
:101810004002001070B588B004460D4616462021DF
:101820006846FEF777FD012C01DC082D03DD4FF043
:10183000FF3008B070BD3146684604F0CFFB4FF46E
:10184000BD6101EBC4014819694604F079FCF0E779
:1018500070B5074C25462B46224606A1002000F015
:10186000C9F80C4A0CA1002000F0C4F870BD0000BB
:10187000000400083347206F6E6C696E6520646554
:1018800076696365203C25733E20617420253038DD
:10189000780D0A0040040008636F6D70696C657212
:1018A000206174203C25733E0D0A00007047000043
:1018B0002DE9F84304460D4616460027B84610E0C9
:1018C0002B46224601210948009600F0F6FA074609
:1018D00017B93846BDE8F883052000F0A7FE08F1E7
:1018E0000108B8F1030FEBDB3846F3E77400002082
:1018F0002DE9FC4104460D4616460027B84613E084
:1019000040F6B8302B4622460121CDE90060094857
:1019100000F02AFB074617B93846BDE8FC810520D0
:1019200000F084FE08F10108B8F1030FE8DB384647
:10193000F3E700007400002030B5024600200BE001
:10194000012383400B402BB1136845000324AC40B6
:10195000A3431360431CD8B21028F1DB30BD30B56F
:10196000024600200FE0012383400B404BB1136877
:1019700045000324AC40A34345000124AC4023436D
:101980001360431CD8B21028EDDB30BD10B500F059
:10199000C9FF02F04DFF00F025F900F0FFF802F05A
:1019A000B9FC02F063FC02F0CDFE02F077FE02F01B
:1019B000ADFE02F0E3FE02F08DFE02F0FBFE02F04F
:1019C00035FE02F011FE00F045FA04460CB100F0BD
:1019D00043F8064801F09EFD62B6002080F31088AF
:1019E00000BF00BF80F3138800BF10BDF8000020C7
:1019F000002070470FB438B504460848007BA04269
:101A000002DA38BC5DF814FB06A80090009905982E
:101A100003F022FC0020009000BFF2E7000000105D
:101A20002DE9F04105460E4617460848007BA842BE
:101A300001DABDE8F081002404E0315D04A003F088
:101A4000FBFB641CBC42F8D300BFF2E700000010AF
:101A5000253032782000000010B5012080F3138873
:101A600000BF01F04FF8002010BD38B504462068D3
:101A70000068C0F3001010B320680068C0F3C00015
:101A8000E8B920680068C0F38000C0B92068006829
:101A9000C0F3400098B92068006800F0010070B9F8
:101AA00000BF002000902068006800902068406817
:101AB000009000BF00BF0021204602F083FB00BF62
:101AC0000020009020680068009020684068009026
:101AD00000BF00BF38BD000010B500220121C802C0
:101AE00004F059FF1E4908601E481F490860002085
:101AF00048604FF4805300221C4804F0A8FA0022EA
:101B00000121480204F047FF1949086019481A49A1
:101B10000860002048604FF480630022174804F0FA
:101B200096FA00220121480204F035FF14490860AA
:101B3000144815490860002048604FF48063002273
:101B4000124804F084FA12481249086000204860E4
:101B50004FF480530022104804F079FA10BD0000C1
:101B600040000020B403001038000020B80100201D
:101B70004C000020B413001044000020F8010020A5
:101B800058000020B4170010500000203802002038
:101B9000B41B00105C0000207802002010B50E4835
:101BA00000F0ACFE0D480068401C0C490860086855
:101BB00000EBD0714910A0EB4101084A11601046BA
:101BC0000068002801DD012000E000200246042119
:101BD000034800F05FFE10BDEC0000206400002010
:101BE0000010024010B502F0EBFC04210748FFF79B
:101BF000B6FE07480068002801DD012000E0002053
:101C000002460421014800F045FE10BD00100240CC
:101C10006400002000B587B0142102A8FEF77AFB0B
:101C200000BF002001901F48006840F002001D49DD
:101C300008600846006800F00200019000BF00BF85
:101C400000BF002001900846006840F004000860D2
:101C50000846006800F00400019000BF00BF80202B
:101C600002900120039004900020059002A90E48E4
:101C700000F008FD012280210B4800F00BFE4FF41C
:101C8000807002900120039004900020059002A92A
:101C9000064800F0F7FC01221102044800F0FAFDAA
:101CA00007B000BD30380240000402400008024086
:101CB000FFF7D2FE00BFFEE710B5024800F0D6FAEB
:101CC00010BD00009804002010B5024800F0CEFAC4
:101CD00010BD0000D803002010B5024800F0C6FA7D
:101CE00010BD0000B802002010B5024800F0BEFA96
:101CF00010BD00001803002010B5024800F0B6FA2D
:101D000010BD00003804002010B5024800F0AEFA03
:101D100010BD000078030020014608781038182311
:101D2000B0FBF3F20848805CC865032A05D908684F
:101D30006FF30900001D886503E008686FF3090070
:101D40008865886D70470000D07400080146002047
:101D50008A6A8B69CBB932B1012A0DD0022A03D02D
:101D6000032A10D10EE000BFCB6A03F08073B3F1F9
:101D7000807F00D1012007E0CB6AB3F1C07F00D1A2
:101D8000012001E000E000BF34E08B69B3F5005FA3
:101D90001AD132B1012A07D0022A03D0032A11D165
:101DA0000AE000BF01200EE0CB6A03F08073B3F1BC
:101DB000807F00D1012006E0CB6AB3F1C07F00D163
:101DC000012000E000BF15E032B1012A05D0022A4F
:101DD00004D0032A0CD103E000BF00BF012008E0BB
:101DE000CB6A03F08073B3F1807F00D1012000E063
:101DF00000BF00BF704730B50468246824F4802415
:101E000005682C60046863608468402C04D1046811
:101E1000A2600468E16003E00468A1600468E26015
:101E200030BD000010B5084B5968084B1B68084CC2
:101E3000B3FBF4F303FB00F200BF034B5B685B1AD8
:101E40009342FAD310BD0000001000E0880000208B
:101E500040420F001148006800F0807090B90F48B0
:101E6000006840F080700D49086000200C4948600F
:101E70000846006820F0010008600846006840F04D
:101E80000100086000BF00BF00BF0548406808B1FE
:101E9000002070474FF0FF30FBE70000FCED00E052
:101EA000001000E0704710B5402000F0DDFB10BDD1
:101EB00072B6FFF7D1FD00BFFEE72DE9F0470446FB
:101EC0000F4690469946DDF820A00025206800F0D6
:101ED0004EF907F00702A02343EA4201206800F010
:101EE0000DF9206800F081F905462DB1206800F059
:101EF0005DF92846BDE8F0874146204603F054F9D5
:101F0000054625B1206800F051F92846F2E720681F
:101F100000F02DF907F00702A02343EA4202511C0A
:101F2000206800F0EBF8206800F05FF9054625B165
:101F3000206800F03BF92846DCE700260DE0AAF116
:101F40000102B24201D0012200E0002211462068C5
:101F500000F093F809F80600761C5645EFD3206888
:101F600000F024F90020C5E72DE9F05F04460F4694
:101F700090469946DDE90AAB0025206800F0F7F8A5
:101F800007F00702A02343EA4201206800F0B6F8F8
:101F9000206800F02AF905462DB1206800F006F906
:101FA0002846BDE8F09F4146204603F0FDF805466F
:101FB00025B1206800F0FAF82846F2E700260FE085
:101FC00019F80610206800F099F8206800F00DF963
:101FD000054625B1206800F0E9F82846E1E7761CBF
:101FE0005645EDD3206800F0E1F85A4639462046C0
:101FF00003F067F9D5E710B5044621892068FFF79B
:10200000AEFC61890022606800F044FC2189002256
:10201000206800F03FFC0220FFF704FF61890122E5
:10202000606800F037FC0220FFF7FCFE61890022A7
:10203000606800F02FFC10BD10B5044621892068AF
:10204000FFF78DFC61890022606800F023FC218984
:102050000122206800F01EFC0220FFF7E3FE6189E8
:102060000122606800F016FC0220FFF7DBFE6189A8
:102070000022606800F00EFC10BD2DE9F04104461E
:102080000E46002521890122206800F003FC2189E9
:102090002068FFF751FC00271DE06189002260687D
:1020A00000F0F8FB0220FFF7BDFE618901226068A5
:1020B00000F0F0FB0220FFF7B5FE6806050E21894F
:1020C000206800F0DFFB08B1681CC5B20220FFF7F2
:1020D000A9FE781CC7B2082FDFDB61890022606887
:1020E00000F0D8FB012E03D12046FFF784FF02E069
:1020F0002046FFF7A1FF2846BDE8F08170B50446F1
:102100000D4621892068FFF72AFC0220FFF78AFE8E
:10211000002624E061890022606800F0BBFB05F026
:102120008003002B01DD012300E00023002B01DDF3
:10213000012300E000231A462189206800F0AAFB51
:102140006806050E0220FFF76DFE618901226068B6
:1021500000F0A0FB0220FFF765FE701CC6B2082E3F
:10216000D8DB61890022606800F094FB70BD10B577
:10217000044621892068FFF7F2FB218901222068AB
:1021800000F088FB0420FFF74DFE618901226068A2
:1021900000F080FB0420FFF745FE21890022206823
:1021A00000F078FB0420FFF73DFE10BD10B504469B
:1021B00021892068FFF7D3FB21890022206800F0E5
:1021C00069FB0420FFF72EFE61890122606800F0A0
:1021D00061FB0420FFF726FE21890122206800F020
:1021E00059FB0420FFF71EFE10BD70B50446002504
:1021F00021890122206800F04DFB21892068FFF72A
:102200009BFB0220FFF70EFE61890122606800F04F
:1022100041FB0220FFF706FE06E0681CC5B2FA2D5E
:1022200002DD4FF0FF3070BD2189206800F02AFBED
:102230000028F2D161890022606800F02BFB0020A9
:10224000F1E7014691F83500022803D08020486567
:1022500001207047052081F835000868006820F0EB
:1022600001000A6810600020F3E70000F8B504469A
:10227000002000908C4800684FF41651B0FBF1F735
:10228000A56D2E6894F85C1008208840304098B105
:102290002068006800F0040070B12068006820F039
:1022A00004002168086094F85C1008208840A86049
:1022B000606D40F00100606594F85C10012088407A
:1022C000304068B12068406900F0800040B194F867
:1022D0005C1001208840A860606D40F002006065DD
:1022E00094F85C1004208840304068B12068006891
:1022F00000F0020040B194F85C1004208840A8600F
:10230000606D40F00400606594F85C101020884017
:10231000304078B32068006800F0080050B394F8AB
:102320005C1010208840A8602068006800F48020BD
:1023300080B12068006800F4002028B9206CC8B182
:102340002046216C884715E0A06C98B12046A16C0E
:1023500088470FE02068006800F4807028B9206882
:10236000006820F0080021680860206C10B1204649
:10237000216C884794F85C10202088403040002869
:1023800065D02068006800F0100000285FD094F845
:102390005C1020208840A86094F83500052828D1DA
:1023A0002068006820F016002168086020684069F5
:1023B00020F0800021684861206C08B9A06C28B129
:1023C0002068006820F008002168086094F85C101C
:1023D0003F208840A86000BF002084F8340000BF80
:1023E000012084F83500206D10B12046216D88470A
:1023F000F8BD2068006800F4802080B12068006883
:1024000000F4002028B9606C10B12046616C884748
:102410001DE0E06BD8B12046E16B884717E02068EB
:10242000006800F4807068B92068006820F010002F
:102430002168086000BF002084F8340000BF01203C
:1024400084F83500E06B10B12046E16B8847606D81
:1024500038B3606D00F00100F0B1052084F835005C
:102460002068006820F001002168086000BF009823
:10247000401C0090B84200D905E02068006800F0D8
:1024800001000028F3D100BF00BF002084F8340011
:1024900000BF012084F83500E06C10B12046E16CEB
:1024A000884700BFA4E70000880000202DE9F04124
:1024B0000446002500F0F4F9074614B90120BDE8F0
:1024C000F081606A00B100BF00BF002084F83400D2
:1024D00000BF022084F835002068006820F0010069
:1024E000216808600AE000F0DBF9C01B052805D967
:1024F00020206065032084F83500E0E7206800684C
:1025000000F001000028EED1206805682148054050
:10251000D4E901010843E16808432169084361697E
:102520000843A1690843E1690843216A0843054358
:10253000606A042803D1D4E90B01084305432068ED
:1025400005602068456925F00705606A0543606AF3
:1025500004280DD1A06A0543E06A48B12046FFF780
:10256000F5FB28B140206065012084F83500A6E71E
:10257000206845612046FFF7CFFB064694F85C10C3
:102580003F208840B06000206065012084F835005D
:10259000002094E73F8010F02DE9F04704460D46F7
:1025A00016461F464FF00008D4F8589000BF94F824
:1025B0003400012802D10220BDE8F087012084F810
:1025C000340000BF94F83500012825D1022084F89A
:1025D0003500002060653B46324629462046FFF71D
:1025E0000AFC94F85C103F208840C9F80800206875
:1025F000006840F0160021680860206C28B120684F
:10260000006840F00800216808602068006840F019
:1026100001002168086006E000BF002084F8340053
:1026200000BF4FF002084046C6E7000070B5044600
:1026300000F036F906462546681C10B104480078BB
:10264000054400BF00F02CF9801BA842FAD370BDEE
:102650008400002010B50446402C02D1FDF7CFFEC7
:1026600000E000BF00BF10BD10B50446044800687C
:10267000204020B1024804602046FFF7EBFF10BD68
:10268000143C0140F8B502460B460025002400200A
:102690000021DCE0012606FA01F51E6806EA0504C1
:1026A000AC4273D15E68012E08D05E68022E05D060
:1026B0005E68112E02D05E68122E13D190684F0012
:1026C0000326BE40B0434F00DE68BE4030439060FA
:1026D000506801268E40B0431E79C6F300168E4026
:1026E00030435060D0684F000326BE40B0434F00D7
:1026F0009E68BE403043D0605E68022E02D05E68A5
:10270000122E13D1CF0802F1200656F827004E07EB
:10271000F70E0F26BE40B0434F07FF0E1E69BE40A6
:102720003043CF0802F1200646F8270010684F001A
:102730000326BE40B0431E7906F003064F00BE409C
:10274000304310605E6806F08056B6F1805F7DD140
:1027500000BF00260096404E366846F480463E4F45
:102760003E603E46366806F48046009600BF00BFD5
:102770003A4E8F0856F827008E07370F0F26BE40B7
:10278000B043374EB24202D1002624E05EE0354E1F
:10279000B24201D101261EE0334EB24201D10226DF
:1027A00019E0324EB24201D1032614E0304EB2425B
:1027B00001D104260FE02F4EB24201D105260AE0D6
:1027C0002D4EB24201D1062605E02C4EB24201D177
:1027D000072600E008268F073F0FBE4030431F4EFC
:1027E0008F0846F82700264E3068A0435E6806F43E
:1027F0008036B6F5803F00D12043214E3060361D33
:102800003068A0435E6806F40036B6F5003F00D19C
:1028100020431B4E361D3060361D3068A0435E6875
:1028200006F48016B6F5801F00D12043144E0836FA
:102830003060361D3068A0435E6806F40016B6F5B9
:10284000001F00D120430E4E0C363060491C102969
:10285000FFF420AFF8BD00004438024008380140C2
:10286000000002400004024000080240000C024048
:10287000001002400014024000180240001C0240F8
:10288000003C0140024613690B400BB1012000E0FF
:10289000002070470AB1816101E00B048361704739
:1028A00001480068704700007C00002070B50446B5
:1028B0000CB9012070BD4CF6CC402168086045F28F
:1028C000555021680860D4E9001048602168A0686C
:1028D0008860FFF7E5FF054606E0FFF7E1FF401BD4
:1028E000302801D90320E5E72068C0680028F4D12A
:1028F0004AF6AA20216808600020DBE701464AF674
:10290000AA200A6810600020704700000348006891
:102910000349097808440149086070477C00002099
:102920008400002010B50D48006840F400700B4989
:1029300008600846006840F4806008600846006847
:1029400040F480700860032000F0C8F8002000F018
:1029500007F800F04BF8002010BD0000003C0240DA
:1029600070B588B0044600250026002221461920B3
:1029700000F076F8192000F063F800BF0020019005
:102980001648006840F001001449086008460068D5
:1029900000F00100019000BF00BF02A903A800F0F1
:1029A00095F900F0CBF945000D48B5FBF0F0461E57
:1029B0000C480D49086040F2E7310B48C1604660A1
:1029C00000210161816000F069FD20B9064800F036
:1029D000A1FD08B070BD0120FBE7000044380240B3
:1029E00040420F0000000140F804002008B500BF7D
:1029F000002000901148006840F480400F490860B2
:102A00000846006800F48040009000BF00BF00BF8F
:102A100000200090081F006840F08050091F0860E7
:102A20000846006800F08050009000BF00BF002200
:102A30000F21901E00F014F808BD00004438024039
:102A400001460846002809DB00F01F0301229A40D6
:102A500043099B0003F1E023C3F8002100BF704746
:102A60002DE9F05F80460D461646002702F0FCFB7C
:102A7000074639462A46334601F00700C0F1070AE7
:102A8000BAF1040F02D94FF0040A01E0C0F1070ABD
:102A9000D14600F1040ABAF1070F02D24FF0000A42
:102AA00001E0A0F1030AD4464FF0010A0AFA09FA3C
:102AB000AAF1010A0AEA020A0AFA0CFA4FF0010B1B
:102AC0000BFA0CFBABF1010B0BEA030B4AEA0B040C
:102AD0002146404602F0D0FBBDE8F09F00BF00F069
:102AE0000702064B19684FF6FF031940044B0B43CE
:102AF00043EA0221014B196000BF70470CED00E072
:102B00000000FA0500BF00BF00BF00BF00BFBFF359
:102B10004F8F00BF00BF00BF0948006800F4E060AD
:102B200008490843001D0649086000BF00BF00BFF8
:102B3000BFF34F8F00BF00BF00BF00BF00BFFDE766
:102B40000CED00E00000FA0570B504460D460CB926
:102B5000012070BD5848006800F00F00A84209D25B
:102B600055490D700846006800F00F00A84201D0DA
:102B70000120EEE7207800F0020002281DD1207825
:102B800000F00400042805D14C48006840F4E050EF
:102B90004A490860207800F00800082805D1474815
:102BA000006840F46040454908604448006820F0EF
:102BB000F000A168084341490860207800F0010056
:102BC000A8B36068012807D13C4808380068C0F302
:102BD0004040B8B90120BCE76068022802D06068B4
:102BE000032807D1354808380068C0F3406048B969
:102BF0000120AEE7314808380068C0F3400008B94A
:102C00000120A6E72D48006820F003006168084312
:102C10002A490860FFF744FE064609E0FFF740FE38
:102C2000801B41F28831884202D9032091E707E0F6
:102C30002248006800F00C006168B0EB810FEDD114
:102C40001D48006800F00F00A84209D91A490D700C
:102C50000846006800F00F00A84201D0012078E784
:102C6000207800F00400042807D11448006820F4FC
:102C7000E050E168084311490860207800F008003E
:102C8000082808D10D48006820F46040216940EA16
:102C9000C1000A49086000F061F808490968C1F3F9
:102CA0000311074A515CC84006490860064800689D
:102CB000FFF756FE00204CE7003C02400838024077
:102CC000D874000888000020800000200F220260D5
:102CD0000D4A126802F0030242600B4A126802F0C9
:102CE000F0028260084A126802F4E052C260064AAA
:102CF000126802F46042D2080261044A126802F0CB
:102D00000F020A607047000008380240003C024091
:102D100001480068704700008800002000B5FFF7F8
:102D2000F7FF04490968C1F38221034A515CC84096
:102D300000BD000008380240E874000800B5FFF745
:102D4000E7FF04490968C1F34231034A515CC840B6
:102D500000BD000008380240E87400082DE9F04783
:102D6000002400250026A1462548006800F00C003C
:102D700020B1042805D008283AD105E0DFF8849076
:102D800039E0DFF8849036E01D48001F006800F04D
:102D90003F041B48001F006800F4800078B11A4807
:102DA0001749091F0968C1F38811A0FB017001468A
:102DB000224600233846FDF763FA05460EE0114827
:102DC0000F49091F0968C1F38811A0FB0170014672
:102DD000224600233846FDF753FA05460848001FEF
:102DE0000068C0F30140401C4600B5FBF6F902E064
:102DF000DFF8109000BF00BF4846BDE8F087000034
:102E0000083802400024F40000127A00F8B50446A5
:102E10000CB90120F8BD207800F00100002874D022
:102E2000F948006800F00C0004280DD0F64800684E
:102E300000F00C00082813D1F348001F006800F4CC
:102E40008000B0F5800F0BD1EF4808380068C0F360
:102E50004040002859D06068002856D10120D9E7A9
:102E600000BF6068B0F5803F08D1E74808380068C7
:102E700040F48030E449083908601EE06068B0F52D
:102E8000A02F0DD1E0480838006840F48020DE49CA
:102E9000083908600846006840F4803008600CE09B
:102EA000D9480838006820F48030D74908390860CC
:102EB0000846006820F48020086000BF606890B178
:102EC000FFF7EEFC054606E0FFF7EAFC401B64282E
:102ED00001D903209EE7CC4808380068C0F3404081
:102EE0000028F1D011E0FFF7DBFC054606E0FFF714
:102EF000D7FC401B642801D903208BE7C24808385F
:102F00000068C0F340400028F1D1207800F00200B2
:102F100002285FD1BC48006800F00C0058B1BA48E4
:102F2000006800F00C0008281CD1B748001F00689A
:102F300000F48000B0B9B44808380068C0F340001D
:102F400020B1E068012801D0012063E7AE480838CD
:102F5000006820F0F800216940EAC100AA49083958
:102F6000086037E0E06800B30120A8490860FFF777
:102F700097FC054606E0FFF793FC401B022801D9A9
:102F8000032047E7A04808380068C0F34000002845
:102F9000F1D09D480838006820F0F800216940EA27
:102FA000C10099490839086014E000209749086079
:102FB000FFF776FC054606E0FFF772FC401B02288F
:102FC00001D9032026E7904808380068C0F3400084
:102FD0000028F1D1207800F0080008282CD1606981
:102FE000A8B101208A490860FFF75AFC054606E0AF
:102FF000FFF756FC401B022801D903200AE782484C
:103000006C300068C0F340000028F1D014E00020CC
:103010007F490860FFF744FC054606E0FFF740FCE7
:10302000401B022801D90320F4E677486C30006881
:10303000C0F340000028F1D1207800F004000428FB
:1030400070D1002770483830006800F0805090B987
:1030500000BF002000906C483830006840F080507D
:103060006949383108600846006800F080500090D7
:1030700000BF00BF01276748006800F48070B0B946
:103080006448006840F4807062490860FFF708FCFB
:10309000054606E0FFF704FC401B022801D9032087
:1030A000B8E65C48006800F480700028F2D000BFE9
:1030B000A068012808D154486830006840F0010039
:1030C0005149683108601DE0A06805280DD14E48BF
:1030D0006830006840F004004B49683108600846D9
:1030E000006840F0010008600CE047486830006864
:1030F00020F001004449683108600846006820F06B
:103100000400086000BFA068A8B1FFF7C9FB05462E
:1031100009E0FFF7C5FB401B41F28831884202D924
:10312000032077E626E0384868300068C0F34000A6
:103130000028EED013E0FFF7B3FB054608E0FFF7E9
:10314000AFFB401B41F28831884201D9032061E680
:103150002D4868300068C0F340000028EFD1012FEF
:1031600007D129483830006820F08050264938318E
:10317000086000BFA069002845D02348006800F01F
:103180000C0008285DD0A069022845D100201F4905
:103190000866FFF785FB054606E0FFF781FB401B4D
:1031A000022801D9032035E6174808380068C0F323
:1031B00040600028F1D1D4E907010843616A40EA80
:1031C00081110122A06AC2EB500041EA00412C208B
:1031D000005D41EA00600C49091F086001200B49AD
:1031E0000866FFF75DFB054606E0FFF759FB401B4D
:1031F000022801D903200DE6034808380068C0F30F
:1032000040600028F1D03FE008380240000047420B
:10321000800E47420070004000201C490866FFF7FE
:103220003FFB054606E0FFF73BFB401B022801D9A8
:103230000320EFE516480068C0F340600028F2D193
:1032400022E0A069012800D1E4E51148001D0668CC
:1032500006F48001E069814214D106F03F01206A42
:1032600081420FD147F6C0703040616A884209D16F
:1032700006F44031A06A814204D106F07061E06A30
:10328000814201D00120C5E50020C3E5000047428E
:103290000038024010B504460CB9012010BD606A28
:1032A00038B96068B0F5827F00D105E00021E161A6
:1032B00002E00021216161610021A16294F85100C6
:1032C00028B9002084F85000204600F047F802207A
:1032D00084F851002068006820F0400021680860F0
:1032E000A08800F48270218901F404410843A18977
:1032F00001F400610843217C01F002010843217DB3
:1033000001F001010843218B01F400710843217F82
:1033100001F0380108432021095D01F080010843D4
:10332000218D01F400510843216808600421A0693F
:1033300001EA104094F8241001F0100108432168BC
:1033400048602068C06920F400602168C8610020DE
:103350006065012084F8510000209FE710B586B019
:103360000446142101A8FCF7D5FF1B4920688842B8
:1033700030D100BF002000901848006840F4804021
:10338000164908600846006800F48040009000BFBD
:1033900000BF00BF0020009010481038006840F0C7
:1033A00002000E49103908600846006800F002006B
:1033B000009000BF00BF4FF4204001900220029017
:1033C00000200390032004900520059001A90448E3
:1033D000FFF758F906B010BD0038004040380240F1
:1033E000000402407047704730B502460B4600BFEC
:1033F00092F83C00012801D1022030BD012082F862
:103400003C0000BF022082F83D001068446810684C
:10341000816824F070041868044310684460184DF3
:103420001068A8421BD01068B0F1804F17D0154D1E
:103430001068A84213D0144D1068A8420FD0134D45
:103440001068A8420BD0124D1068A84207D0114D49
:103450001068A84203D0104D1068A84205D121F091
:1034600080015868014310688160012082F83D00A6
:1034700000BF002082F83C0000BF00BFBDE7000095
:10348000000001400004004000080040000C004023
:1034900000040140004001400018004010B50446FF
:1034A0000CB9012010BD94F83D0028B9002084F823
:1034B0003C00204600F00CF8022084F83D00211D5D
:1034C000206801F02FFA012084F83D000020E9E790
:1034D00038B504462068B0F1804F17D100BF0020F6
:1034E00000900B48006840F0010009490860084658
:1034F000006800F00100009000BF00BF00220A2118
:103500001C20FFF7ADFA1C20FFF79AFA38BD000027
:103510004038024001460868C06840F001000B686E
:10352000D8600868806800F00702062A05D008689D
:10353000006840F001000B681860002070472DE91A
:10354000F04104460D4600BF94F83C00012802D12A
:103550000220BDE8F081012084F83C0000BF022079
:1035600084F83D002068866826F0770626F47F46BA
:10357000206886602868502833D00CDC202850D082
:1035800004DC00284BD0102851D149E0302849D024
:1035900040284CD139E060282DD0702807D0B0F5F4
:1035A000805F03D0B0F5005F41D10DE040E0D5E988
:1035B00002136A68206801F021FA2068866846F0E4
:1035C00077062068866033E0D5E902136A682068D0
:1035D00001F014FA2068806840F480402168886017
:1035E00026E0EA686968206801F01CFA502120682A
:1035F00001F00FFA1CE0EA686968206801F025FA1A
:103600006021206801F005FA12E0EA686968206824
:1036100001F008FA4021206801F0FBF908E000BF42
:1036200000BF00BF2968206801F0F3F900E000BF87
:1036300000BF012084F83D0000BF002084F83C005A
:1036400000BF00BF85E7704710B5044620680069D9
:10365000C0F34000D8B12068C068C0F34000B0B1EA
:103660006FF00200216808610120207720688069DE
:1036700000F0030018B12046FFF7E5FF05E0204603
:1036800000F0ADF8204600F0ABF80020207720686D
:103690000069C0F38000D8B12068C068C0F3800022
:1036A000B0B16FF004002168086102202077206823
:1036B000806900F4407018B12046FFF7C4FF05E0B0
:1036C000204600F08CF8204600F08AF80020207791
:1036D00020680069C0F3C000D8B12068C068C0F39A
:1036E000C000B0B16FF008002168086104202077A5
:1036F0002068C06900F0030018B12046FFF7A3FF5F
:1037000005E0204600F06BF8204600F069F8002044
:10371000207720680069C0F30010D8B12068C06825
:10372000C0F30010B0B16FF01000216808610820EC
:1037300020772068C06900F4407018B12046FFF778
:1037400082FF05E0204600F04AF8204600F048F8E5
:10375000002020772068006900F0010058B120683F
:10376000C06800F0010030B16FF00100216808610D
:10377000204600F037F820680069C0F3C01058B147
:103780002068C068C0F3C01030B16FF080002168BD
:1037900008612046FFF726FE20680069C0F380100C
:1037A00058B12068C068C0F3801030B16FF040009D
:1037B00021680861204600F027F820680069C0F3FE
:1037C000401058B12068C068C0F3401030B16FF0AD
:1037D0002000216808612046FFF705FE10BD7047F4
:1037E0007047000010B5044606492068884201D1A0
:1037F000FFF78CF82068B0F1804F01D1FEF756F842
:1038000010BD0000000001407047000010B50446E4
:103810002149206888420BD100F078FF00201F4921
:1038200048604FF4805300221D4802F010FC2EE047
:103830001C49206888420BD100F0A0FF00201A49E3
:1038400048604FF480630022184802F000FC1EE03C
:103850001749206888420BD100F0ACFF00201549C1
:1038600048604FF480630022134802F0F0FB0EE042
:103870001249206888420AD100F02CFF002010492C
:1038800048604FF4805300220E4802F0E0FB0EA186
:103890000520FEF7AFF810BD0010014038000020F1
:1038A000B80100200048004044000020F80100203A
:1038B0000014014050000020380200200050004059
:1038C0005C000020780200207573617274207265BC
:1038D000696E69740D0A00002DE9F04704462068FE
:1038E00005682068C668206847694FF00008C1462F
:1038F00005F00F08B8F1000F0AD105F0200038B12B
:1039000006F0200020B1204601F070F9BDE8F087F4
:10391000B8F1000F72D007F0010018B906F49070EA
:1039200000286BD005F0010030B106F4807018B1AA
:10393000E06B40F00100E06305F0040030B107F0F7
:10394000010018B1E06B40F00200E06305F00200F6
:1039500030B107F0010018B1E06B40F00400E06303
:1039600005F0080048B106F0200010B907F001008A
:1039700018B1E06B40F00800E063E06B70B305F055
:10398000200028B106F0200010B1204601F02EF9E9
:1039900020684069C0F38019E06B00F0080010B99E
:1039A000B9F1000F23D0204601F0F6F820684069F5
:1039B00000F04000402816D12068406920F0400007
:1039C00021684861606B50B11748616B0865606B96
:1039D000FEF737FC10B1606B016D88470CE02046A4
:1039E000FFF714FF08E02046FFF710FF04E0204631
:1039F000FFF70CFF0020E06388E7FFE705F0800099
:103A000030B106F0800018B1204601F037FB7DE7A9
:103A100005F0400030B106F0400018B1204601F03A
:103A2000CBF873E700BF71E79D4A000810B5044664
:103A30000CB9012010BDA06900B100E000BF94F8EE
:103A4000390028B9002084F83800204600F028F812
:103A5000242084F839002068C06820F400502168D0
:103A6000C860204601F016F92068006920F49040F3
:103A7000216808612068406920F02A0021684861B7
:103A80002068C06840F400502168C8600020E063EE
:103A9000202084F8390084F83A000020CAE70000AA
:103AA00010B586B00446142101A8FCF733FCFE498A
:103AB0002068884257D100BF00200090FB48006872
:103AC00040F40020F94908600846006800F400202E
:103AD000009000BF00BF00BF00200090F3481038E6
:103AE000006840F00400F149103908600846006899
:103AF00000F00400009000BF00BF4FF44060019050
:103B0000022002900120039004900820059001A952
:103B1000E748FEF7B7FDE748E74908604005486019
:103B20000021E5488160C1604FF48061016100219E
:103B3000416181614FF48071C16100210162416284
:103B4000FEF7B4FC08B1FEF7B3F900BFDA486063D2
:103B5000846300BF002209213420FEF781FF342056
:103B6000FEF76EFFFEE1D5492068884258D100BFBC
:103B700000200090CD48006840F40030CB49086038
:103B80000846006800F40030009000BF00BF00BF8E
:103B900000200090C5481038006840F00100C3497B
:103BA000103908600846006800F00100009000BF6E
:103BB00000BF0C200190022002900120039004908D
:103BC0000720059001A9BE48FEF75CFDB9484830C2
:103BD000BC4908604FF0006048600021B94881602E
:103BE000C1604FF4806101610021416181614FF446
:103BF0008071C161002101624162FEF757FC08B18A
:103C0000FEF756F900BFAF486063846300BF01222E
:103C10000A212620FEF724FF2620FEF711FFA1E14E
:103C2000A949206888425AD100BF002000909F48CF
:103C3000001D006840F010009C49091D08600846FE
:103C4000006800F01000009000BF00BF00BF00201F
:103C5000009096481038006840F0010093491039F0
:103C600008600846006800F00100009000BF00BF37
:103C70004FF4C06001900220029001200390049054
:103C80000720059001A98E48FEF7FCFC8F4890495B
:103C900008604FF00060486000218D488160C1607D
:103CA0004FF4806101610021416181614FF48071B5
:103CB000C161002101624162FEF7F8FB08B1FEF725
:103CC000F7F800BF82486063846300BF00220721C9
:103CD0002520FEF7C5FE2520FEF7B2FE42E17D4914
:103CE0002068884259D100BF002000906F480068CA
:103CF00040F480206D4908600846006800F4802088
:103D0000009000BF00BF00BF00200090674810383F
:103D1000006840F0020065491039086008460068F4
:103D200000F00200009000BF00BF4FF4406001901F
:103D3000022002900120039004900720059001A921
:103D40006548FEF79FFC5B481838644908604FF0EF
:103D500000604860002161488160C1604FF480616B
:103D600001610021416181614FF48071C1610021D5
:103D700001624162FEF79AFB08B1FEF799F800BFB5
:103D800056486063846300BF002208212720FEF7A5
:103D900067FE2720FEF754FEE4E051492068884280
:103DA00059D100BF002000904048001D006840F03D
:103DB00020003E49091D08600846006800F0200008
:103DC000009000BF00BF00BF0020009037481038AF
:103DD000006840F004003549103908600846006862
:103DE00000F00400009000BF00BFC020019002203E
:103DF00002900120039004900820059001A92C480E
:103E0000FEF740FC314818383649086080054860A4
:103E1000002134488160C1604FF48061016100215C
:103E2000416181614FF48071C16100210162416291
:103E3000FEF73CFB08B1FEF73BF800BF2948606382
:103E4000846300BF00220A214720FEF709FE4720B5
:103E5000FEF7F6FD86E02449206888427ED100BF47
:103E6000002000901148006840F480100F4908605D
:103E70000846006800F48010009000BF00BF00BF3B
:103E80000020009009481038006840F008000749F9
:103E9000103908600846006800F00800009000BF74
:103EA00000BF8814019021E0004C004040380240DF
:103EB0000008024040600240B80200200044004078
:103EC000000002401803002000100140406402403E
:103ED000780300200048004000040240D80300207E
:103EE00000140140380400200050004002200290DD
:103EF0000120039004900820059001A91A48FEF7BC
:103F0000C1FB042001900820059001A91748FEF785
:103F1000B9FB174817490860C005486000211548DB
:103F20008160C1604FF48061016100214161816164
:103F30004FF48071C161002101624162FEF7B6FA5F
:103F400008B1FDF7B5FF00BF0A486063846300BF96
:103F5000012207213520FEF783FD00E002E0352035
:103F6000FEF76EFD06B010BD00080240000C0240D6
:103F7000106002409804002077B581B004461546D1
:103F800094F83A00202850D1029800B115B90120C8
:103F900004B070BD00BF94F83800012801D10220A0
:103FA000F6E7012084F8380000BF0298A062A585DA
:103FB0000020E063222084F83A001D48616BC8634A
:103FC0001C48616B08641C48616BC8640020616B0D
:103FD000086502AE32682368191D2B46606BFEF738
:103FE000DBFA00BF00200090206800680090206885
:103FF0004068009000BF00BF00BF002084F8380078
:1040000000BF2068C06840F480702168C8602068E4
:10401000406940F00100216848612068406940F033
:104020004000216848610020B2E70220B0E70000AC
:10403000014B0008474B0008B14A000810B5044680
:104040000121204600F0BEF810BD70472DE9F8436D
:1040500004460D4616461F464FF0000994F83900F5
:1040600020285DD105B116B90120BDE8F88300BF55
:1040700094F83800012801D10220F6E7012084F8E5
:10408000380000BF0020E063212084F83900FEF7EB
:1040900007FC8146A684E68400BF002084F838002F
:1040A00000BF2BE0E08C401EE084A068B0F5805F8C
:1040B00016D14B46002280212046009701F012F8CD
:1040C00008B10320D1E7A846B8F80000C0F3080003
:1040D00021684860206908B9AD1C0FE06D1C0DE037
:1040E0004B46002280212046009700F0FBFF08B1DC
:1040F0000320BAE715F8010B21684860E08C00281E
:10410000D0D14B46002240212046009700F0EAFF24
:1041100008B10320A9E7202084F839000020A4E793
:104120000220A2E7F7B50446154694F83900202886
:104130003DD1019800B10DB90120FEBD00BF94F83A
:104140003800012801D10220F7E7012084F8380067
:1041500000BF01982062A584E5840020E06321204F
:1041600084F839001348216BC8631348216B086435
:104170001248216BC8640020216B086501AE2368DA
:104180001A1D31682B46206BFEF706FA6FF04000CF
:104190002168086000BF002084F8380000BF206854
:1041A000406940F08000216848610020C5E7022096
:1041B000C3E70000554B00088B4B0008B14A0008CC
:1041C0007047704738B504460D461A492068884242
:1041D00008D180142B46184A18490090204601F057
:1041E000C2FD25E016492068884208D100152B46FB
:1041F000144A15490090204601F0B5FD18E0134916
:104200002068884208D100152B46114A11490090B8
:10421000204601F0A8FD0BE00F492068884207D135
:1042200080142B460D4A0E490090204601F09BFD5C
:1042300038BD000000100140415E00083800002039
:1042400000480040615E0008440000200014014066
:10425000A15E00085000002000500040815E000870
:104260005C000020FDF7F8FB00BFFEE708B500BFCB
:10427000002000902648006840F48000244908602F
:104280000846006800F48000009000BF00BF00BF37
:10429000002000900846006840F4001008600846BE
:1042A000006800F40010009000BF00BF012205214B
:1042B0000B20FEF7D5FB0B20FEF7C2FB00220521E9
:1042C0000C20FEF7CDFB0C20FEF7BAFB00220621E6
:1042D0000D20FEF7C5FB0D20FEF7B2FB00220521E5
:1042E0001020FEF7BDFB1020FEF7AAFB00220621DE
:1042F0003920FEF7B5FB3920FEF7A2FB012206218B
:104300003A20FEF7ADFB3A20FEF79AFB08BD00000D
:104310003038024000B587B0142102A8FBF7FAFF3D
:1043200000BF002001909F48006840F004009D49B4
:1043300008600846006800F00400019000BF00BF5C
:1043400000BF002001900846006840F0800008602F
:104350000846006800F08000019000BF00BF00BF69
:10436000002001900846006840F0010008600846FF
:10437000006800F00100019000BF00BF00BF0020F6
:1043800001900846006840F0100008600846006888
:1043900000F01000019000BF00BF00BF002001909E
:1043A0000846006840F0020008600846006800F017
:1043B0000200019000BF00BF00BF0020019008462E
:1043C000006840F0080008600846006800F0080037
:1043D000019000BF00BF00224FF4C0517248FEF7A9
:1043E00059FA012211037148FEF754FA0122910390
:1043F0006E48FEF74FFA00224FF480716C48FEF7CA
:1044000049FA01224FF4C0616948FEF743FA40209F
:104410000290684803900220049002A96248FEF7C7
:1044200031F940200290002003900220049002A95C
:104430005E48FEF727F94FF4805002900120039068
:10444000022004900120059002A95848FEF71AF9AD
:104450004FF4C0500290012003900490059002A9EF
:104460005148FEF70FF9042002900120039000202C
:104470000490059002A95048FEF704F9012210218A
:104480004E48FEF707FA1020029001200390049096
:104490000020059002A94948FEF7F4F80122D10353
:1044A0004148FEF7F7F94FF40040029001200390D5
:1044B00004900020059002A93B48FEF7E3F8002293
:1044C0004FF480713D48FEF7E5F94FF4807002909B
:1044D0000120039004900020059002A93748FEF7C0
:1044E000D1F8012280213148FEF7D4F980200290D2
:1044F0000120039004900020059002A92B48FEF7AC
:10450000C1F84FF400400290002003900220049074
:1045100002A92748FEF7B6F84FF480400290012028
:10452000039004900220059002A92048FEF7AAF803
:104530004FF480700290012003900220049000202C
:10454000059002A91A48FEF79DF84FF400700290FA
:104550000120039004900020059002A91448FEF762
:1045600091F84FF4806002900120039004900220A3
:10457000059002A90E48FEF785F801200290002060
:1045800003900220049002A90748FEF77BF800225E
:104590000B211720FEF764FA1720FEF751FA07B037
:1045A00000BD00003038024000000240000402401C
:1045B000000C0240000031100010024000080240D0
:1045C00010B50748074908600420486040F23331BD
:1045D00004488160FEF76AF908B1FDF769FC10BD77
:1045E00000300040EC00002010B50E480E49086075
:1045F0004FF48270486000210B488160C160022145
:10460000016101214161490281610021C1610162B1
:10461000416281620A21C162FEF73CFE08B1FDF7EA
:1046200047FC10BD003800403805002000B587B0B9
:1046300000200390049005900690019002904FF0A6
:1046400080401549086042F2CF00486000211248BE
:10465000816042F21071C16000210161802181619D
:10466000FEF71CFF08B1FDF723FC4FF480500390C8
:1046700003A90948FEF763FF08B1FDF719FC002004
:104680000190029001A90448FEF7AEFE08B1FDF7C3
:104690000FFC07B000BD0000F800002010B50B486B
:1046A0000B4908604FF4E130486000210848816000
:1046B000C16001610C21416100218161C161FFF78D
:1046C000B5F908B1FDF7F4FB10BD0000004C004047
:1046D0003801002010B50B480B4908604FF4E13059
:1046E0004860002108488160C16001610C2141617E
:1046F00000218161C161FFF799F908B1FDF7D8FB8D
:1047000010BD0000005000407802002010B50B489A
:104710000B4908604FF4E13048600021084881608F
:10472000C16001610C21416100218161C161FFF71C
:104730007DF908B1FDF7BCFB10BD00000010014081
:10474000B801002010B50B480B4908604FF4E13068
:104750004860002108488160C16001610C2141610D
:1047600000218161C161FFF761F908B1FDF7A0FB8C
:1047700010BD0000004400407801002010B50B4837
:104780000B4908604FF416504860002108488160CA
:10479000C16001610C21416100218161C161FFF7AC
:1047A00045F908B1FDF784FB10BD0000004800404A
:1047B000F801002010B50B480B4908604FF4E130B8
:1047C0004860002108488160C16001610C2141619D
:1047D00000218161C161FFF729F908B1FDF768FB8C
:1047E00010BD00000014014038020020FDF734F92C
:1047F00000BFFEE7FDF730F900BFFEE710B500BFD0
:10480000502080F31188BFF34F8FBFF36F8F00BF2D
:1048100002F03AFA18B14FF080500449086000BF26
:10482000002080F3118800BF10BD000004ED00E0FF
:1048300000B593B0302107A8FBF76CFD142102A846
:10484000FBF768FD00BF002001902548006840F09C
:104850008050234908600846006800F080500190AD
:1048600000BF00BF00BF002001901E48006840F458
:1048700080401C4908600846006800F480400190B0
:1048800000BF00BF0120079000040890012009909C
:104890000C9002200D9041050E9104210F91A8214A
:1048A0001091022111910421129107A8FEF7AEFA8E
:1048B00008B1FDF7FDFA0F200290022003900020BE
:1048C00004904FF4A05005904FF4805006900521BD
:1048D00002A8FEF739F908B1FDF7EAFA13B000BDF6
:1048E00040380240007000400548006840F4700005
:1048F000034908604FF00060014980390860704743
:1049000088ED00E010B50248FEF79EFE10BD0000E5
:10491000F804002010B50248FEF796FE10BD000016
:10492000F800002010B50268294B98420ED0B0F173
:10493000804F0BD0274B984208D0274B984205D088
:10494000264B984202D0264B984203D122F07002A7
:104950004B681A431E4B984220D0B0F1804F1DD0B7
:104960001C4B98421AD01C4B984217D01B4B9842B4
:1049700014D01B4B984211D01A4B98420ED01A4BB0
:1049800098420BD0194B984208D0194B984205D049
:10499000184B984202D0184B984203D122F440722F
:1049A000CB681A4322F080034C6943EA0402026098
:1049B0008B68C3620B688362054B984202D0084B38
:1049C000984201D10B6903630123436110BD0000CC
:1049D000000001400004004000080040000C0040BE
:1049E00000040140004001400044014000480140F3
:1049F00000180040001C00400020004030B50C466C
:104A0000816821F47F4142EA0325254329438160DF
:104A100030BD0A46816821F0700142F00703194356
:104A20008160704730B50B461446026A056A25F06E
:104A300001050562816921F0F00141EA041122F0CB
:104A40000A021A438161026230BD30B50B4614463A
:104A5000056A25F0100505628169026A21F470413A
:104A600041EA043122F0A00242EA031281610262AB
:104A700030BD000010B50348FEF72EFF0148FCF7DB
:104A8000F4FF10BD3801002010B50348FEF724FFE5
:104A90000148FCF7EAFF10BD7802002070B505461A
:104AA000AC6B0020E085E0842046FEF7AFFE70BDD1
:104AB00070B506460025B46B20684069C0F3C01588
:104AC00094F83900212805D125B10020E084204642
:104AD00000F082F820684069C0F3801594F83A002D
:104AE000222805D125B10020E085204600F054F8A9
:104AF000E06B40F01000E0632046FEF787FE70BDDB
:104B000070B50546AC6B2868006800F48070B0B9D9
:104B10000020E0852068C06820F480702168C860AB
:104B20002068406920F001002168486120684069E0
:104B300020F0400021684861202084F83A00204697
:104B4000FFF77CFA70BD70B50446A56B2846FFF7E9
:104B50007CFA70BD70B50546AC6B2868006800F43F
:104B6000807070B90020E0842068406920F08000E7
:104B7000216848612068C06840F040002168C86032
:104B800002E02046FFF71CFB70BD70B50446A56B24
:104B90002846FFF716FB70BD0168C96821F49071C3
:104BA0000268D1600168496921F001010268516120
:104BB000202180F83A10704710B504462068C0687C
:104BC00020F040002168C860202084F83900204689
:104BD000FFF7F6FA002010BD0168C96821F0C00196
:104BE0000268D160202180F83910704770B5044602
:104BF00094F83A0022284AD1A068B0F5805F13D11A
:104C0000A56A206940B920684068C0F30800288080
:104C1000A06A801CA06219E020684068C0B22880A9
:104C2000A06A401CA06211E0206938B92068406881
:104C3000C1B2A26A501CA062117007E020684068EF
:104C400000F07F01A26A501CA0621170E08D401E2E
:104C500080B2E085C8B92068C06820F020002168D3
:104C6000C8602068C06820F480702168C86020682F
:104C7000406920F0010021684861202084F83A0052
:104C80002046FFF7DBF9002070BD0020FCE7022082
:104C9000FAE700002DE9F84F04462068006920F487
:104CA0004050E1680843216808612169A068084311
:104CB00061690843E169084300902068C06849F2CF
:104CC0000C618843009908432168C86020684069E6
:104CD00020F44070A169084321684861E069B0F59B
:104CE000004F75D1E3492068884203D0E24920682B
:104CF00088426FD1FEF722F8814602206168A0FB4E
:104D000001510B461920A9FB00712A463846FBF7D2
:104D1000B7FA6421B0FBF1F04FEA001A0220616893
:104D2000A0FB01510B461920A9FB00712A46384609
:104D3000FBF7A6FA074602206168A0FB01510B466B
:104D40001920A9FB00B12A465846FBF799FA6421BD
:104D5000B0FBF1F000EBC00101EB0010A7EB80000D
:104D6000322101EBC0006421B0FBF1F000F0F8004B
:104D70000AEB400A02206168A0FB01510B46192092
:104D8000A9FB00712A463846FBF77AFA074602204B
:104D90006168A0FB01510B461920A9FB00B12A460E
:104DA0005846FBF76DFA6421B0FBF1F000EBC0014F
:104DB00001EB0010A7EB8000322101EBC000642161
:104DC000B0FBF1F000F007005044216888604FE12B
:104DD0006EE0FFE7FDF7A2FF814602206168A0FBBD
:104DE00001510B461920A9FB00712A463846FBF7F2
:104DF00047FA6421B0FBF1F04FEA001A0220616823
:104E0000A0FB01510B461920A9FB00712A46384628
:104E1000FBF736FA074602206168A0FB01510B46FA
:104E20001920A9FB00B12A465846FBF729FA64214C
:104E3000B0FBF1F000EBC00101EB0010A7EB80002C
:104E4000322101EBC0006421B0FBF1F000F0F8006A
:104E50000AEB400A02206168A0FB01510B461920B1
:104E6000A9FB00712A463846FBF70AFA07460220DA
:104E70006168A0FB015003461920A9FB00B12A4636
:104E80005846FBF7FDF96421B0FBF1F000EBC001DF
:104E900001EB0010A7EB8000322101EBC000642180
:104EA000B0FBF1F000F00700504421688860DFE0BB
:104EB00070492068884203D06F49206888426BD1CE
:104EC000FDF73CFF814604206168A0FB01510B46C1
:104ED0001920A9FB00712A463846FBF7D1F9824612
:104EE00004206168A0FB01510B461920A9FB007149
:104EF0002A463846FBF7C4F96421B0FBF1F000EB19
:104F0000C00101EB0010AAEB8000322101EB001080
:104F10006421B0FBF1F000F0F00A04206168A0FB0E
:104F2000015003461920A9FB00712A463846FBF7B9
:104F3000A7F96421B0FBF1F00AEB001A04206168C4
:104F4000A0FB01510B461920A9FB00712A463846E7
:104F5000FBF796F9074604206168A0FB0150034661
:104F60001920A9FB00B12A465846FBF789F96421AC
:104F7000B0FBF1F000EBC00101EB0010A7EB8000EB
:104F8000322101EB00106421B0FBF1F000F00F00C2
:104F90005044216888606BE0FDF7C0FE8146042024
:104FA0006168A0FB015003461920A9FB00712A4645
:104FB0003846FBF765F9824604206168A0FB015082
:104FC00003461920A9FB00712A463846FBF758F919
:104FD0006421B0FBF1F000EBC00101EB0010AAEB83
:104FE0008000322101EB00106421B0FBF1F000F0F1
:104FF000F00A04206168A0FB015003461920A9FBB8
:1050000000712A463846FBF73BF96421B0FBF1F00A
:105010000AEB001A04206168A0FB01700346192006
:10502000A9FB005001463A462846FBF729F90746F6
:1050300004206168A0FB015003461920A9FB00B1C0
:105040002A465846FBF71CF96421B0FBF1F000EB4F
:10505000C00101EB0010A7EB8000322101EB001032
:105060006421B0FBF1F000F00F005044216888602B
:10507000BDE8F88F0010014000140140014691F88E
:10508000390021282CD18868B0F5805F0FD10A6AD9
:105090001088C0F308000B685860086918B9086ADE
:1050A000801C086209E0086A401C086205E00B6A7F
:1050B000581C086218780B685860C88C401E80B273
:1050C000C88458B90868C06820F080000B68D860B0
:1050D0000868C06840F040000B68D8600020704746
:1050E0000220FCE72DE9F04104460D46174698469C
:1050F000069E21E0701CF8B12EB1FDF7D1FBA0EBAC
:105100000800B04218D92068C06820F4D070216827
:10511000C8602068406920F00100216848612020B3
:1051200084F8390084F83A0000BF002084F8380081
:1051300000BF0320BDE8F081206800682840A84235
:1051400001D1012000E00020B842D3D00020F1E7D7
:1051500010B50348FEF7C0FB0148FCF786FC10BD04
:10516000B801002010B50348FEF7B6FB0148FCF774
:105170007CFC10BD7801002010B50348FEF7ACFBA5
:105180000148FCF772FC10BDF801002010B503487F
:10519000FEF7A2FB0148FCF768FC10BD38020020B6
:1051A000FCF75AFC00BFFEE72DE9F04105460C462E
:1051B00000262879012815D12746E21704EB126250
:1051C0001212A4EB0222D1B22868FCF797FF2868DC
:1051D000FDF70BF806466EB32868FCF7E7FF30468C
:1051E000BDE8F0812746E21704EB1262C2F3072103
:1051F0002868FCF783FF2868FCF7F7FF064626B10E
:105200002868FCF7D3FF3046EAE72746E21704EBAD
:1052100012621212A4EB0222D1B22868FCF76EFFD0
:105220002868FCF7E2FF064626B12868FCF7BEFFB7
:105230003046D5E70020D3E70FB4054B10B503A9DE
:10524000044A029800F0E8F910BC5DF814FB000075
:10525000316200081C000020014B024A00F0DCB95A
:10526000316200081C00002002480068C0F30220E0
:10527000704700000CED00E010B5002804DB0A07C1
:10528000130E054A135406E00A07140E034A00F0F1
:105290000F031B1FD45410BD00E400E018ED00E024
:1052A00002E008C8121F08C1002AFAD170477047EF
:1052B000002001E001C1121F002AFBD1704700202D
:1052C00070472DE9F04104460D4616460027FDF7CC
:1052D000E7FA804600BFFDF7E3FAA0EB0800B04212
:1052E00006D92068FCF762FF4FF0FF30BDE8F0817F
:1052F0001420FCF797FD2068FCF739FF05F0070242
:10530000A02343EA4202511C2068FCF7F7FE206804
:10531000FCF76BFF074600212068FCF7AEFE206813
:10532000FCF744FF002FD6D10020DFE770B504461C
:105330000D462878214601F026FB6888611C01F0A3
:1053400013FB70BD70B504460D462878214601F068
:105350001AFB6878611C01F016FB70BD70B504463D
:105360000D462878214601F00EFB70BD70B504464D
:105370000D462878214601F006FB691C601C00F0F0
:10538000CDFD70BD70B504460D46287804F10801C6
:1053900001F0F9FA687804F1090101F0F4FAA8784B
:1053A00004F10A0101F0EFFAE87804F10B0101F0D1
:1053B000EAFA04F10C01686801F0DEFA04F1100168
:1053C000A86801F0D9FA002070BD00002DE9FF5F48
:1053D00082B00021DDE90430020DDDF840B0034366
:1053E00018D044F61050A2F2FF324243151411981F
:1053F00001281FD0A5EB0B00401C5FEA000A4FF00C
:1054000000064E4FDFF83891B046504615D5CAF128
:10541000000413E0119801244AA3012801D16FEA86
:105420000B010298119AC0E90031C0E9024206B0AE
:10543000BDE8F09FCBF10000DFE704460021404AC1
:10544000491842EB0450CDE9001012E0E00707D004
:1054500032463B4640464946FBF7B9F88046894606
:1054600032463B4610461946FBF7B1F806460F4652
:105470006410002CEAD1DDE90401DDE90023BAF172
:10548000000F06DAFBF7A3F842464B46FBF79FF8FE
:1054900005E0FBF70EF942464B46FBF70AF90446D6
:1054A0000E460022284BFAF78DFF03D84FF0FF304D
:1054B000014607E00022254B20463146FAF7E0FF7F
:1054C000FAF768FF102409E0002C0ADB0A22002307
:1054D000FAF7D6FE039B30321A55641E50EA0102D9
:1054E000F2D1641C039AC4F111031444119A012AE5
:1054F00003D0012208430DD10AE0084304D0002064
:105500004FF0110B119072E7A3EB0B056D1E0DE030
:105510005B4504DD4FF0000205F1010504E003DA0C
:105520004FF00002A5F10105002AECD00298119974
:10553000C0E90231C0E9004579E7000000001440ED
:105540000000F03F300000000000F0430000E03FAA
:10555000F0B50446104607E0C5B214F8016B6E4082
:1055600033F8166086EA20200E1EA1F10101F3D166
:10557000F0BD70B504460D462878214601F003FAC7
:105580006878611C01F0FFF96888A11C01F0ECF952
:10559000A888211D01F0E8F9E888A11D01F0E4F9CF
:1055A00070BD70B504460D462878214601F0EBF930
:1055B0006878611C01F0E7F9A878A11C01F0E3F913
:1055C000A888E11C01F0D0F9A879611D01F0DBF990
:1055D0002889A11D01F0C8F9688904F1080101F0CA
:1055E000C3F970BD70B504460D462878214601F018
:1055F000CAF96878611C01F0C6F9A878A11C01F00D
:10560000C2F9E91CE01C00F089FC05F1090104F174
:10561000090000F083FC70BD2DE9FF4F95B09B465B
:105620008946064600250FE2252877D10024274623
:10563000F84A0121059400E0044316F8013F203B9D
:1056400001FA03F01042F7D130782A2811D06FF018
:105650002F033078A0F13002092A16D8059A44F0B9
:10566000020402EB820203EB42021044761C059016
:10567000EFE759F8042B0592002A03DA504244F46C
:105680000054059044F00204761C30782E2816D180
:1056900016F8010F44F004042A280DD06FF02F02F1
:1056A0003078A0F13003092B09D807EB870302EB10
:1056B0004303C718761CF3E759F8047B761C30784F
:1056C0006C280FD006DC4C2817D068280DD06A282B
:1056D00014D104E0742810D07A280FD10DE044F4DE
:1056E00000140AE044F4801401E044F44014727899
:1056F000824202D104F58014761C761C307866282C
:105700000BD013DC582877D009DC002875D0452849
:10571000F6D04628F4D047281AD19DE118E0632836
:1057200035D0642879D0652812D195E1702873D0DE
:1057300008DC6728F1D069286FD06E280DD06F285B
:1057400006D1B5E073282CD0752875D0782874D090
:105750005A46179990476D1C75E1C4F30250022810
:1057600009D003280DD0D9F8001004280DD00D6001
:1057700009F1040967E1D9F80010EA17C1E90052FC
:10578000F6E7D9F800100D80F2E70D70F0E719F890
:10579000041B8DF8001000208DF80100EA4601205E
:1057A00003E059F804AB4FF0FF3061074FF0000100
:1057B00002D40DE008F101018846B9420FDA8045B4
:1057C000F8DB1AF808100029F4D108E008F101010B
:1057D00088468142FADB1AF808100029F6D10598AC
:1057E0005B46A0EB080721463846179A00F094FA6A
:1057F000284400EB080507E04DE029E10DE01AF828
:10580000010B5A4617999047B8F10108F7D25B4649
:1058100021463846179A13E142E00A220092C4F367
:1058200002524FF0000A022A08D059F804CB032A8A
:105830004FEAEC710AD00DE029E02AE009F10701F6
:1058400021F00702F2E802C1914609E00FFA8CFC50
:105850004FEAEC71042A03D14FFA8CFC4FEAEC7149
:10586000002907DA0A460021DCF1000C61EB020195
:105870002D2202E0220504D52B228DF804200122DE
:1058800003E0E20701D02022F7E7904659E00A2121
:1058900002E010220DE010214FF0000A00910BE011
:1058A00010224FF0000A44F004040827009203E09D
:1058B00008224FF0000A0092C4F30252022A05D0D7
:1058C00059F804CB0021032A08D009E009F10701A7
:1058D00021F00702F2E802C1914605E01FFA8CFCB4
:1058E000042A01D10CF0FF0C4FF00008220728D544
:1058F000702806D0009B83F0100353EA0A0305D0FA
:105900000EE040228DF80420012208E05CEA01024A
:1059100006D030228DF804208DF805000222904632
:10592000009B83F0080353EA0A030AD15CEA0102F0
:1059300001D1620705D530228DF804204FF001080F
:105940007F1E582804D034A003900EA802900DE0CA
:1059500036A0F9E753466046009AFAF791FC844670
:105960000398825C0298401E029002705CEA01007B
:10597000F0D1029806A9081A00F1200A600702D5A2
:1059800024F4803400E00127574502DDA7EB0A002C
:1059900000E0002000EB0A01009005984144401A05
:1059A0000590E00306D45B462146179A059800F05F
:1059B000B3F90544002706E001A85A46C05D1799CF
:1059C00090476D1C7F1C4745F6DBE0030CD55B461A
:1059D0002146179A059800F09FF9054404E030200D
:1059E0005A46179990476D1C0099481E009000294F
:1059F000F5DC08E0029802995A460078491C0291A9
:105A0000179990476D1CBAF10001AAF1010AF1DC67
:105A100065E1000009280100303132333435363772
:105A200038396162636465660000000030313233EA
:105A3000343536373839414243444546000000008A
:105A400000F058F90544761C307800287FF4ECAD5E
:105A500019B02846BDE8F08F620700D4062709F187
:105A6000070222F0070CFCE80223E14603F000489D
:105A70005FEA080C02D00FF2702C0DE05FEA045CC4
:105A800002D50FF2682C07E05FEAC47C02D00FF267
:105A9000602C01E0AFF2700C4FF0FF3823F00043B0
:105AA000CDF850C065280CD006DC452809D0462822
:105AB0001DD047283DD13DE0662818D067287ED10B
:105AC00038E00021112F01DB112000E0781CCDE926
:105AD000000106A90EA8FFF779FCDDE90F010E9A77
